{
  "_format": "hh-sol-artifact-1",
  "contractName": "DpidRegistry",
  "sourceName": "contracts/DpidRegistry.sol",
  "abi": [
    {
      "inputs": [],
      "stateMutability": "nonpayable",
      "type": "constructor"
    },
    {
      "anonymous": false,
      "inputs": [
        {
          "indexed": false,
          "internalType": "uint8",
          "name": "version",
          "type": "uint8"
        }
      ],
      "name": "Initialized",
      "type": "event"
    },
    {
      "anonymous": false,
      "inputs": [
        {
          "indexed": true,
          "internalType": "address",
          "name": "previousOwner",
          "type": "address"
        },
        {
          "indexed": true,
          "internalType": "address",
          "name": "newOwner",
          "type": "address"
        }
      ],
      "name": "OwnershipTransferred",
      "type": "event"
    },
    {
      "anonymous": false,
      "inputs": [
        {
          "indexed": false,
          "internalType": "bytes32",
          "name": "prefix",
          "type": "bytes32"
        },
        {
          "indexed": false,
          "internalType": "uint256",
          "name": "entryId",
          "type": "uint256"
        }
      ],
      "name": "Register",
      "type": "event"
    },
    {
      "anonymous": false,
      "inputs": [
        {
          "indexed": false,
          "internalType": "bytes32",
          "name": "prefix",
          "type": "bytes32"
        },
        {
          "indexed": false,
          "internalType": "address",
          "name": "registrant",
          "type": "address"
        },
        {
          "indexed": false,
          "internalType": "address[]",
          "name": "tokenGate",
          "type": "address[]"
        }
      ],
      "name": "RegisterOrganization",
      "type": "event"
    },
    {
      "anonymous": false,
      "inputs": [
        {
          "indexed": false,
          "internalType": "bytes32",
          "name": "prefix",
          "type": "bytes32"
        },
        {
          "indexed": false,
          "internalType": "address",
          "name": "registrant",
          "type": "address"
        },
        {
          "indexed": false,
          "internalType": "address[]",
          "name": "tokenGate",
          "type": "address[]"
        }
      ],
      "name": "UpdateOrganization",
      "type": "event"
    },
    {
      "inputs": [
        {
          "internalType": "bytes32",
          "name": "prefix",
          "type": "bytes32"
        },
        {
          "internalType": "uint256",
          "name": "entryId",
          "type": "uint256"
        }
      ],
      "name": "exists",
      "outputs": [
        {
          "internalType": "bool",
          "name": "",
          "type": "bool"
        }
      ],
      "stateMutability": "view",
      "type": "function"
    },
    {
      "inputs": [
        {
          "internalType": "bytes32",
          "name": "prefix",
          "type": "bytes32"
        },
        {
          "internalType": "uint256",
          "name": "entryId",
          "type": "uint256"
        }
      ],
      "name": "get",
      "outputs": [
        {
          "internalType": "uint256",
          "name": "",
          "type": "uint256"
        }
      ],
      "stateMutability": "view",
      "type": "function"
    },
    {
      "inputs": [],
      "name": "getFee",
      "outputs": [
        {
          "internalType": "uint256",
          "name": "",
          "type": "uint256"
        }
      ],
      "stateMutability": "view",
      "type": "function"
    },
    {
      "inputs": [],
      "name": "getOrgFee",
      "outputs": [
        {
          "internalType": "uint256",
          "name": "",
          "type": "uint256"
        }
      ],
      "stateMutability": "view",
      "type": "function"
    },
    {
      "inputs": [
        {
          "internalType": "bytes32",
          "name": "prefix",
          "type": "bytes32"
        }
      ],
      "name": "getOrganization",
      "outputs": [
        {
          "internalType": "uint256",
          "name": "",
          "type": "uint256"
        },
        {
          "internalType": "address",
          "name": "",
          "type": "address"
        }
      ],
      "stateMutability": "view",
      "type": "function"
    },
    {
      "inputs": [],
      "name": "initialize",
      "outputs": [],
      "stateMutability": "nonpayable",
      "type": "function"
    },
    {
      "inputs": [
        {
          "internalType": "bytes32",
          "name": "",
          "type": "bytes32"
        }
      ],
      "name": "organizations",
      "outputs": [
        {
          "internalType": "bytes32",
          "name": "prefix",
          "type": "bytes32"
        },
        {
          "internalType": "address",
          "name": "registrant",
          "type": "address"
        },
        {
          "internalType": "uint256",
          "name": "count",
          "type": "uint256"
        }
      ],
      "stateMutability": "view",
      "type": "function"
    },
    {
      "inputs": [],
      "name": "owner",
      "outputs": [
        {
          "internalType": "address",
          "name": "",
          "type": "address"
        }
      ],
      "stateMutability": "view",
      "type": "function"
    },
    {
      "inputs": [
        {
          "internalType": "bytes32",
          "name": "prefix",
          "type": "bytes32"
        },
        {
          "internalType": "uint256",
          "name": "entry",
          "type": "uint256"
        }
      ],
      "name": "put",
      "outputs": [
        {
          "internalType": "uint256",
          "name": "",
          "type": "uint256"
        }
      ],
      "stateMutability": "payable",
      "type": "function"
    },
    {
      "inputs": [
        {
          "internalType": "bytes32",
          "name": "prefix",
          "type": "bytes32"
        }
      ],
      "name": "registerOrg",
      "outputs": [],
      "stateMutability": "payable",
      "type": "function"
    },
    {
      "inputs": [
        {
          "internalType": "bytes32",
          "name": "prefix",
          "type": "bytes32"
        },
        {
          "internalType": "address[]",
          "name": "tokenGate",
          "type": "address[]"
        }
      ],
      "name": "registerOrgWithGate",
      "outputs": [],
      "stateMutability": "payable",
      "type": "function"
    },
    {
      "inputs": [],
      "name": "renounceOwnership",
      "outputs": [],
      "stateMutability": "nonpayable",
      "type": "function"
    },
    {
      "inputs": [
        {
          "internalType": "uint256",
          "name": "gweiFee",
          "type": "uint256"
        }
      ],
      "name": "setFee",
      "outputs": [],
      "stateMutability": "nonpayable",
      "type": "function"
    },
    {
      "inputs": [
        {
          "internalType": "uint256",
          "name": "gweiFee",
          "type": "uint256"
        }
      ],
      "name": "setOrgFee",
      "outputs": [],
      "stateMutability": "nonpayable",
      "type": "function"
    },
    {
      "inputs": [
        {
          "internalType": "string",
          "name": "source",
          "type": "string"
        }
      ],
      "name": "stringToBytes32",
      "outputs": [
        {
          "internalType": "bytes32",
          "name": "result",
          "type": "bytes32"
        }
      ],
      "stateMutability": "pure",
      "type": "function"
    },
    {
      "inputs": [
        {
          "internalType": "address",
          "name": "newOwner",
          "type": "address"
        }
      ],
      "name": "transferOwnership",
      "outputs": [],
      "stateMutability": "nonpayable",
      "type": "function"
    },
    {
      "inputs": [
        {
          "internalType": "bytes32",
          "name": "prefix",
          "type": "bytes32"
        },
        {
          "internalType": "address[]",
          "name": "tokenGate",
          "type": "address[]"
        }
      ],
      "name": "updateOrg",
      "outputs": [],
      "stateMutability": "nonpayable",
      "type": "function"
    },
    {
      "inputs": [
        {
          "internalType": "bytes32",
          "name": "prefix",
          "type": "bytes32"
        }
      ],
      "name": "validateCharacters",
      "outputs": [
        {
          "internalType": "bool",
          "name": "valid",
          "type": "bool"
        }
      ],
      "stateMutability": "pure",
      "type": "function"
    },
    {
      "inputs": [],
      "name": "withdraw",
      "outputs": [],
      "stateMutability": "nonpayable",
      "type": "function"
    }
  ],
  "bytecode": "0x60806040523480156200001157600080fd5b50620000226200002860201b60201c565b620001d3565b600060019054906101000a900460ff16156200007b576040517f08c379a0000000000000000000000000000000000000000000000000000000008152600401620000729062000176565b60405180910390fd5b60ff801660008054906101000a900460ff1660ff161015620000ed5760ff6000806101000a81548160ff021916908360ff1602179055507f7f26b83ff96e1f2b6a682f133852f6798a09c465da95921460cefb384740249860ff604051620000e49190620001b6565b60405180910390a15b565b600082825260208201905092915050565b7f496e697469616c697a61626c653a20636f6e747261637420697320696e69746960008201527f616c697a696e6700000000000000000000000000000000000000000000000000602082015250565b60006200015e602783620000ef565b91506200016b8262000100565b604082019050919050565b6000602082019050818103600083015262000191816200014f565b9050919050565b600060ff82169050919050565b620001b08162000198565b82525050565b6000602082019050620001cd6000830184620001a5565b92915050565b6122a980620001e36000396000f3fe6080604052600436106101145760003560e01c80638129fc1c116100a0578063ced72f8711610064578063ced72f871461037f578063cef25dbc146103aa578063cfb51928146103c6578063da4a984214610403578063f2fde38b1461043357610114565b80638129fc1c146102aa57806381e104ca146102c15780638da5cb5b146102ec578063a40a990b14610317578063ba51b14e1461034057610114565b80634b22d5d0116100e75780634b22d5d0146101c75780634fb6020e146102045780635cb316351461022d57806369fe0e2d1461026a578063715018a61461029357610114565b80631785b6771461011957806318ae19c21461013557806322b3cd4e146101725780633ccfd60b146101b0575b600080fd5b610133600480360381019061012e9190611661565b61045c565b005b34801561014157600080fd5b5061015c600480360381019061015791906116c4565b6104b2565b6040516101699190611713565b60405180910390f35b34801561017e57600080fd5b5061019960048036038101906101949190611661565b610542565b6040516101a792919061176f565b60405180910390f35b3480156101bc57600080fd5b506101c56105e8565b005b3480156101d357600080fd5b506101ee60048036038101906101e99190611661565b610646565b6040516101fb91906117b3565b60405180910390f35b34801561021057600080fd5b5061022b600480360381019061022691906117ce565b6107ab565b005b34801561023957600080fd5b50610254600480360381019061024f91906116c4565b6107bd565b60405161026191906117b3565b60405180910390f35b34801561027657600080fd5b50610291600480360381019061028c91906117ce565b61083e565b005b34801561029f57600080fd5b506102a8610850565b005b3480156102b657600080fd5b506102bf610864565b005b3480156102cd57600080fd5b506102d6610c3a565b6040516102e39190611713565b60405180910390f35b3480156102f857600080fd5b50610301610c44565b60405161030e91906117fb565b60405180910390f35b34801561032357600080fd5b5061033e6004803603810190610339919061199b565b610c6e565b005b34801561034c57600080fd5b5061036760048036038101906103629190611661565b610d92565b60405161037693929190611a06565b60405180910390f35b34801561038b57600080fd5b50610394610ddc565b6040516103a19190611713565b60405180910390f35b6103c460048036038101906103bf919061199b565b610de6565b005b3480156103d257600080fd5b506103ed60048036038101906103e89190611af2565b610e81565b6040516103fa9190611b3b565b60405180910390f35b61041d600480360381019061041891906116c4565b610eaa565b60405161042a9190611713565b60405180910390f35b34801561043f57600080fd5b5061045a60048036038101906104559190611b56565b611131565b005b6104af81600067ffffffffffffffff81111561047b5761047a61182c565b5b6040519080825280602002602001820160405280156104a95781602001602082028036833780820191505090505b50610de6565b50565b60008260656000858152602001908152602001600020600001541461050c576040517f08c379a000000000000000000000000000000000000000000000000000000000815260040161050390611be0565b60405180910390fd5b60006065600085815260200190815260200160002090508060030160008481526020019081526020016000205491505092915050565b6000808260656000858152602001908152602001600020600001541461059d576040517f08c379a000000000000000000000000000000000000000000000000000000000815260040161059490611be0565b60405180910390fd5b600060656000858152602001908152602001600020905080600401548160010160009054906101000a900473ffffffffffffffffffffffffffffffffffffffff169250925050915091565b6105f06111b4565b60006105fa610c44565b90508073ffffffffffffffffffffffffffffffffffffffff166108fc479081150290604051600060405180830381858888f19350505050158015610642573d6000803e3d6000fd5b5050565b6000806000905060008060405180606001604052806027815260200161224d60279139905060005b602060ff1681101561078957600060f81b86826020811061069257610691611c00565b5b1a60f81b7effffffffffffffffffffffffffffffffffffffffffffffffffffffffffffff1916036106c557809250610789565b60005b8251811015610775578281815181106106e4576106e3611c00565b5b602001015160f81c60f81b7effffffffffffffffffffffffffffffffffffffffffffffffffffffffffffff191687836020811061072457610723611c00565b5b1a60f81b7effffffffffffffffffffffffffffffffffffffffffffffffffffffffffffff19160361076257848061075a90611c5e565b955050610775565b808061076d90611c5e565b9150506106c8565b50808061078190611c5e565b91505061066e565b508183101561079e57600093505050506107a6565b600193505050505b919050565b6107b36111b4565b8060678190555050565b600082606560008581526020019081526020016000206000015414610817576040517f08c379a000000000000000000000000000000000000000000000000000000000815260040161080e90611be0565b60405180910390fd5b60006065600085815260200190815260200160002090508060040154831091505092915050565b6108466111b4565b8060668190555050565b6108586111b4565b6108626000611232565b565b60008060019054906101000a900460ff161590508080156108955750600160008054906101000a900460ff1660ff16105b806108c257506108a4306112f8565b1580156108c15750600160008054906101000a900460ff1660ff16145b5b610901576040517f08c379a00000000000000000000000000000000000000000000000000000000081526004016108f890611d18565b60405180910390fd5b60016000806101000a81548160ff021916908360ff160217905550801561093e576001600060016101000a81548160ff0219169083151502179055505b6601c6bf526340006066819055506706f05b59d3b2000060678190555060008067ffffffffffffffff8111156109775761097661182c565b5b6040519080825280602002602001820160405280156109a55781602001602082028036833780820191505090505b5090506109b360008261131b565b6109dd7f64706964000000000000000000000000000000000000000000000000000000008261131b565b610a077f64636974650000000000000000000000000000000000000000000000000000008261131b565b610a317f64657600000000000000000000000000000000000000000000000000000000008261131b565b610a5b7f73746167650000000000000000000000000000000000000000000000000000008261131b565b610a857f62657461000000000000000000000000000000000000000000000000000000008261131b565b610aaf7f64657363690000000000000000000000000000000000000000000000000000008261131b565b610ad97f6e6f6465000000000000000000000000000000000000000000000000000000008261131b565b610b037f6e6f6465730000000000000000000000000000000000000000000000000000008261131b565b610b2d7f646f6900000000000000000000000000000000000000000000000000000000008261131b565b610b577f61000000000000000000000000000000000000000000000000000000000000008261131b565b610b817f64000000000000000000000000000000000000000000000000000000000000008261131b565b610bab7f78000000000000000000000000000000000000000000000000000000000000008261131b565b610bd57f7a000000000000000000000000000000000000000000000000000000000000008261131b565b610bdd6114ae565b508015610c375760008060016101000a81548160ff0219169083151502179055507f7f26b83ff96e1f2b6a682f133852f6798a09c465da95921460cefb38474024986001604051610c2e9190611d8a565b60405180910390a15b50565b6000606754905090565b6000603360009054906101000a900473ffffffffffffffffffffffffffffffffffffffff16905090565b81610c77611507565b73ffffffffffffffffffffffffffffffffffffffff166065600083815260200190815260200160002060010160009054906101000a900473ffffffffffffffffffffffffffffffffffffffff1673ffffffffffffffffffffffffffffffffffffffff1614610d1a576040517f08c379a0000000000000000000000000000000000000000000000000000000008152600401610d1190611df1565b60405180910390fd5b600060656000858152602001908152602001600020905082816002019080519060200190610d49929190611570565b507f2f78800ab5b47f6617eaf3124043ced0ee3ae49c0b4a77167ee4cd2fbc674f0484610d74611507565b85604051610d8493929190611ecf565b60405180910390a150505050565b60656020528060005260406000206000915090508060000154908060010160009054906101000a900473ffffffffffffffffffffffffffffffffffffffff16908060040154905083565b6000606654905090565b606754341015610e2b576040517f08c379a0000000000000000000000000000000000000000000000000000000008152600401610e2290611f59565b60405180910390fd5b610e3482610646565b610e73576040517f08c379a0000000000000000000000000000000000000000000000000000000008152600401610e6a90611be0565b60405180910390fd5b610e7d828261131b565b5050565b6000808290506000815103610e9c576000801b915050610ea5565b60208301519150505b919050565b6000606654341015610ef1576040517f08c379a0000000000000000000000000000000000000000000000000000000008152600401610ee890611f59565b60405180910390fd5b82606560008581526020019081526020016000206000015414610f49576040517f08c379a0000000000000000000000000000000000000000000000000000000008152600401610f4090611be0565b60405180910390fd5b60006065600085815260200190815260200160002090506000816002018054905011156110b0576000816002018054905090506000805b8281101561106c576000846002018281548110610fa057610f9f611c00565b5b9060005260206000200160009054906101000a900473ffffffffffffffffffffffffffffffffffffffff16905060008173ffffffffffffffffffffffffffffffffffffffff166370a08231610ff3611507565b6040518263ffffffff1660e01b815260040161100f91906117fb565b602060405180830381865afa15801561102c573d6000803e3d6000fd5b505050506040513d601f19601f820116820180604052508101906110509190611f8e565b111561106057600192505061106c565b81600101915050610f80565b50806110ad576040517f08c379a00000000000000000000000000000000000000000000000000000000081526004016110a490612007565b60405180910390fd5b50505b60008160040154905083826003016000838152602001908152602001600020819055507fd5fa0e9a716b3ec4895a48223ad309e2d3fa5e27f04d8dc9b3c33cc738a50eb08582604051611104929190612027565b60405180910390a181600401600081548092919061112190611c5e565b9190505550809250505092915050565b6111396111b4565b600073ffffffffffffffffffffffffffffffffffffffff168173ffffffffffffffffffffffffffffffffffffffff16036111a8576040517f08c379a000000000000000000000000000000000000000000000000000000000815260040161119f906120c2565b60405180910390fd5b6111b181611232565b50565b6111bc611507565b73ffffffffffffffffffffffffffffffffffffffff166111da610c44565b73ffffffffffffffffffffffffffffffffffffffff1614611230576040517f08c379a00000000000000000000000000000000000000000000000000000000081526004016112279061212e565b60405180910390fd5b565b6000603360009054906101000a900473ffffffffffffffffffffffffffffffffffffffff16905081603360006101000a81548173ffffffffffffffffffffffffffffffffffffffff021916908373ffffffffffffffffffffffffffffffffffffffff1602179055508173ffffffffffffffffffffffffffffffffffffffff168173ffffffffffffffffffffffffffffffffffffffff167f8be0079c531659141344cd1fd0a4f28419497f9722a3daafe3b4186f6b6457e060405160405180910390a35050565b6000808273ffffffffffffffffffffffffffffffffffffffff163b119050919050565b6000801b60656000848152602001908152602001600020600001541480156113a55750600073ffffffffffffffffffffffffffffffffffffffff166065600084815260200190815260200160002060010160009054906101000a900473ffffffffffffffffffffffffffffffffffffffff1673ffffffffffffffffffffffffffffffffffffffff16145b6113e4576040517f08c379a00000000000000000000000000000000000000000000000000000000081526004016113db9061219a565b60405180910390fd5b6000606560008481526020019081526020016000209050611403611507565b8160010160006101000a81548173ffffffffffffffffffffffffffffffffffffffff021916908373ffffffffffffffffffffffffffffffffffffffff16021790555082816000018190555081816002019080519060200190611466929190611570565b507f1603286ac6b9f753cbc1a1d33146ab15a401314d80d8553aa8fb1473df47f3ec83611491611507565b846040516114a193929190611ecf565b60405180910390a1505050565b600060019054906101000a900460ff166114fd576040517f08c379a00000000000000000000000000000000000000000000000000000000081526004016114f49061222c565b60405180910390fd5b61150561150f565b565b600033905090565b600060019054906101000a900460ff1661155e576040517f08c379a00000000000000000000000000000000000000000000000000000000081526004016115559061222c565b60405180910390fd5b61156e611569611507565b611232565b565b8280548282559060005260206000209081019282156115e9579160200282015b828111156115e85782518260006101000a81548173ffffffffffffffffffffffffffffffffffffffff021916908373ffffffffffffffffffffffffffffffffffffffff16021790555091602001919060010190611590565b5b5090506115f691906115fa565b5090565b5b808211156116135760008160009055506001016115fb565b5090565b6000604051905090565b600080fd5b600080fd5b6000819050919050565b61163e8161162b565b811461164957600080fd5b50565b60008135905061165b81611635565b92915050565b60006020828403121561167757611676611621565b5b60006116858482850161164c565b91505092915050565b6000819050919050565b6116a18161168e565b81146116ac57600080fd5b50565b6000813590506116be81611698565b92915050565b600080604083850312156116db576116da611621565b5b60006116e98582860161164c565b92505060206116fa858286016116af565b9150509250929050565b61170d8161168e565b82525050565b60006020820190506117286000830184611704565b92915050565b600073ffffffffffffffffffffffffffffffffffffffff82169050919050565b60006117598261172e565b9050919050565b6117698161174e565b82525050565b60006040820190506117846000830185611704565b6117916020830184611760565b9392505050565b60008115159050919050565b6117ad81611798565b82525050565b60006020820190506117c860008301846117a4565b92915050565b6000602082840312156117e4576117e3611621565b5b60006117f2848285016116af565b91505092915050565b60006020820190506118106000830184611760565b92915050565b600080fd5b6000601f19601f8301169050919050565b7f4e487b7100000000000000000000000000000000000000000000000000000000600052604160045260246000fd5b6118648261181b565b810181811067ffffffffffffffff821117156118835761188261182c565b5b80604052505050565b6000611896611617565b90506118a2828261185b565b919050565b600067ffffffffffffffff8211156118c2576118c161182c565b5b602082029050602081019050919050565b600080fd5b6118e18161174e565b81146118ec57600080fd5b50565b6000813590506118fe816118d8565b92915050565b6000611917611912846118a7565b61188c565b9050808382526020820190506020840283018581111561193a576119396118d3565b5b835b81811015611963578061194f88826118ef565b84526020840193505060208101905061193c565b5050509392505050565b600082601f83011261198257611981611816565b5b8135611992848260208601611904565b91505092915050565b600080604083850312156119b2576119b1611621565b5b60006119c08582860161164c565b925050602083013567ffffffffffffffff8111156119e1576119e0611626565b5b6119ed8582860161196d565b9150509250929050565b611a008161162b565b82525050565b6000606082019050611a1b60008301866119f7565b611a286020830185611760565b611a356040830184611704565b949350505050565b600080fd5b600067ffffffffffffffff821115611a5d57611a5c61182c565b5b611a668261181b565b9050602081019050919050565b82818337600083830152505050565b6000611a95611a9084611a42565b61188c565b905082815260208101848484011115611ab157611ab0611a3d565b5b611abc848285611a73565b509392505050565b600082601f830112611ad957611ad8611816565b5b8135611ae9848260208601611a82565b91505092915050565b600060208284031215611b0857611b07611621565b5b600082013567ffffffffffffffff811115611b2657611b25611626565b5b611b3284828501611ac4565b91505092915050565b6000602082019050611b5060008301846119f7565b92915050565b600060208284031215611b6c57611b6b611621565b5b6000611b7a848285016118ef565b91505092915050565b600082825260208201905092915050565b7f496e76616c696420707265666978000000000000000000000000000000000000600082015250565b6000611bca600e83611b83565b9150611bd582611b94565b602082019050919050565b60006020820190508181036000830152611bf981611bbd565b9050919050565b7f4e487b7100000000000000000000000000000000000000000000000000000000600052603260045260246000fd5b7f4e487b7100000000000000000000000000000000000000000000000000000000600052601160045260246000fd5b6000611c698261168e565b91507fffffffffffffffffffffffffffffffffffffffffffffffffffffffffffffffff8203611c9b57611c9a611c2f565b5b600182019050919050565b7f496e697469616c697a61626c653a20636f6e747261637420697320616c72656160008201527f647920696e697469616c697a6564000000000000000000000000000000000000602082015250565b6000611d02602e83611b83565b9150611d0d82611ca6565b604082019050919050565b60006020820190508181036000830152611d3181611cf5565b9050919050565b6000819050919050565b600060ff82169050919050565b6000819050919050565b6000611d74611d6f611d6a84611d38565b611d4f565b611d42565b9050919050565b611d8481611d59565b82525050565b6000602082019050611d9f6000830184611d7b565b92915050565b7f4f6e6c79206f776e657220757064617465730000000000000000000000000000600082015250565b6000611ddb601283611b83565b9150611de682611da5565b602082019050919050565b60006020820190508181036000830152611e0a81611dce565b9050919050565b600081519050919050565b600082825260208201905092915050565b6000819050602082019050919050565b611e468161174e565b82525050565b6000611e588383611e3d565b60208301905092915050565b6000602082019050919050565b6000611e7c82611e11565b611e868185611e1c565b9350611e9183611e2d565b8060005b83811015611ec2578151611ea98882611e4c565b9750611eb483611e64565b925050600181019050611e95565b5085935050505092915050565b6000606082019050611ee460008301866119f7565b611ef16020830185611760565b8181036040830152611f038184611e71565b9050949350505050565b7f4665652072657175697265640000000000000000000000000000000000000000600082015250565b6000611f43600c83611b83565b9150611f4e82611f0d565b602082019050919050565b60006020820190508181036000830152611f7281611f36565b9050919050565b600081519050611f8881611698565b92915050565b600060208284031215611fa457611fa3611621565b5b6000611fb284828501611f79565b91505092915050565b7f556e617574686f72697a65643a20546f6b656e20676174650000000000000000600082015250565b6000611ff1601883611b83565b9150611ffc82611fbb565b602082019050919050565b6000602082019050818103600083015261202081611fe4565b9050919050565b600060408201905061203c60008301856119f7565b6120496020830184611704565b9392505050565b7f4f776e61626c653a206e6577206f776e657220697320746865207a65726f206160008201527f6464726573730000000000000000000000000000000000000000000000000000602082015250565b60006120ac602683611b83565b91506120b782612050565b604082019050919050565b600060208201905081810360008301526120db8161209f565b9050919050565b7f4f776e61626c653a2063616c6c6572206973206e6f7420746865206f776e6572600082015250565b6000612118602083611b83565b9150612123826120e2565b602082019050919050565b600060208201905081810360008301526121478161210b565b9050919050565b7f5072656669782074616b656e0000000000000000000000000000000000000000600082015250565b6000612184600c83611b83565b915061218f8261214e565b602082019050919050565b600060208201905081810360008301526121b381612177565b9050919050565b7f496e697469616c697a61626c653a20636f6e7472616374206973206e6f74206960008201527f6e697469616c697a696e67000000000000000000000000000000000000000000602082015250565b6000612216602b83611b83565b9150612221826121ba565b604082019050919050565b6000602082019050818103600083015261224581612209565b905091905056fe6162636465666768696a6b6c6d6e6f707172737475767778797a303132333435363738392d5f2ea26469706673582212209c9a70441a74727dee57db9e941d6a7ad94f2ff35f3a3e0ccc441f122771b47264736f6c63430008110033",
  "linkReferences": {},
  "deployedLinkReferences": {}
}