{
  "_format": "hh-sol-artifact-1",
  "contractName": "ResearchObject",
  "sourceName": "contracts/ResearchObject.sol",
  "abi": [
    {
      "inputs": [],
      "stateMutability": "nonpayable",
      "type": "constructor"
    },
    {
      "anonymous": false,
      "inputs": [
        {
          "indexed": true,
          "internalType": "address",
          "name": "owner",
          "type": "address"
        },
        {
          "indexed": true,
          "internalType": "address",
          "name": "approved",
          "type": "address"
        },
        {
          "indexed": true,
          "internalType": "uint256",
          "name": "tokenId",
          "type": "uint256"
        }
      ],
      "name": "Approval",
      "type": "event"
    },
    {
      "anonymous": false,
      "inputs": [
        {
          "indexed": true,
          "internalType": "address",
          "name": "owner",
          "type": "address"
        },
        {
          "indexed": true,
          "internalType": "address",
          "name": "operator",
          "type": "address"
        },
        {
          "indexed": false,
          "internalType": "bool",
          "name": "approved",
          "type": "bool"
        }
      ],
      "name": "ApprovalForAll",
      "type": "event"
    },
    {
      "anonymous": false,
      "inputs": [
        {
          "indexed": false,
          "internalType": "uint8",
          "name": "version",
          "type": "uint8"
        }
      ],
      "name": "Initialized",
      "type": "event"
    },
    {
      "anonymous": false,
      "inputs": [
        {
          "indexed": true,
          "internalType": "address",
          "name": "previousOwner",
          "type": "address"
        },
        {
          "indexed": true,
          "internalType": "address",
          "name": "newOwner",
          "type": "address"
        }
      ],
      "name": "OwnershipTransferred",
      "type": "event"
    },
    {
      "anonymous": false,
      "inputs": [
        {
          "indexed": true,
          "internalType": "address",
          "name": "from",
          "type": "address"
        },
        {
          "indexed": true,
          "internalType": "address",
          "name": "to",
          "type": "address"
        },
        {
          "indexed": true,
          "internalType": "uint256",
          "name": "tokenId",
          "type": "uint256"
        }
      ],
      "name": "Transfer",
      "type": "event"
    },
    {
      "anonymous": false,
      "inputs": [
        {
          "indexed": true,
          "internalType": "address",
          "name": "_from",
          "type": "address"
        },
        {
          "indexed": true,
          "internalType": "uint256",
          "name": "_uuid",
          "type": "uint256"
        },
        {
          "indexed": false,
          "internalType": "bytes",
          "name": "_cid",
          "type": "bytes"
        }
      ],
      "name": "VersionPush",
      "type": "event"
    },
    {
      "inputs": [
        {
          "internalType": "string",
          "name": "name",
          "type": "string"
        },
        {
          "internalType": "string",
          "name": "symbol",
          "type": "string"
        }
      ],
      "name": "__VersionedERC721_init",
      "outputs": [],
      "stateMutability": "nonpayable",
      "type": "function"
    },
    {
      "inputs": [],
      "name": "_dpidRegistry",
      "outputs": [
        {
          "internalType": "address",
          "name": "",
          "type": "address"
        }
      ],
      "stateMutability": "view",
      "type": "function"
    },
    {
      "inputs": [
        {
          "internalType": "uint256",
          "name": "",
          "type": "uint256"
        }
      ],
      "name": "_metadata",
      "outputs": [
        {
          "internalType": "bytes",
          "name": "",
          "type": "bytes"
        }
      ],
      "stateMutability": "view",
      "type": "function"
    },
    {
      "inputs": [
        {
          "internalType": "address",
          "name": "to",
          "type": "address"
        },
        {
          "internalType": "uint256",
          "name": "tokenId",
          "type": "uint256"
        }
      ],
      "name": "approve",
      "outputs": [],
      "stateMutability": "nonpayable",
      "type": "function"
    },
    {
      "inputs": [
        {
          "internalType": "address",
          "name": "owner",
          "type": "address"
        }
      ],
      "name": "balanceOf",
      "outputs": [
        {
          "internalType": "uint256",
          "name": "",
          "type": "uint256"
        }
      ],
      "stateMutability": "view",
      "type": "function"
    },
    {
      "inputs": [
        {
          "internalType": "uint256",
          "name": "tokenId",
          "type": "uint256"
        }
      ],
      "name": "exists",
      "outputs": [
        {
          "internalType": "bool",
          "name": "",
          "type": "bool"
        }
      ],
      "stateMutability": "view",
      "type": "function"
    },
    {
      "inputs": [
        {
          "internalType": "uint256",
          "name": "tokenId",
          "type": "uint256"
        }
      ],
      "name": "getApproved",
      "outputs": [
        {
          "internalType": "address",
          "name": "",
          "type": "address"
        }
      ],
      "stateMutability": "view",
      "type": "function"
    },
    {
      "inputs": [],
      "name": "getTrustedForwarder",
      "outputs": [
        {
          "internalType": "address",
          "name": "forwarder",
          "type": "address"
        }
      ],
      "stateMutability": "view",
      "type": "function"
    },
    {
      "inputs": [
        {
          "internalType": "address",
          "name": "dpidRegistry",
          "type": "address"
        },
        {
          "internalType": "address",
          "name": "forwarder",
          "type": "address"
        }
      ],
      "name": "initialize",
      "outputs": [],
      "stateMutability": "nonpayable",
      "type": "function"
    },
    {
      "inputs": [
        {
          "internalType": "address",
          "name": "owner",
          "type": "address"
        },
        {
          "internalType": "address",
          "name": "operator",
          "type": "address"
        }
      ],
      "name": "isApprovedForAll",
      "outputs": [
        {
          "internalType": "bool",
          "name": "",
          "type": "bool"
        }
      ],
      "stateMutability": "view",
      "type": "function"
    },
    {
      "inputs": [
        {
          "internalType": "address",
          "name": "forwarder",
          "type": "address"
        }
      ],
      "name": "isTrustedForwarder",
      "outputs": [
        {
          "internalType": "bool",
          "name": "",
          "type": "bool"
        }
      ],
      "stateMutability": "view",
      "type": "function"
    },
    {
      "inputs": [
        {
          "internalType": "uint256",
          "name": "uuid",
          "type": "uint256"
        },
        {
          "internalType": "bytes",
          "name": "cid",
          "type": "bytes"
        }
      ],
      "name": "mint",
      "outputs": [],
      "stateMutability": "nonpayable",
      "type": "function"
    },
    {
      "inputs": [
        {
          "internalType": "uint256",
          "name": "uuid",
          "type": "uint256"
        },
        {
          "internalType": "bytes",
          "name": "cid",
          "type": "bytes"
        },
        {
          "internalType": "bytes32",
          "name": "prefix",
          "type": "bytes32"
        },
        {
          "internalType": "uint256",
          "name": "expectedDpid",
          "type": "uint256"
        }
      ],
      "name": "mintWithDpid",
      "outputs": [],
      "stateMutability": "payable",
      "type": "function"
    },
    {
      "inputs": [],
      "name": "name",
      "outputs": [
        {
          "internalType": "string",
          "name": "",
          "type": "string"
        }
      ],
      "stateMutability": "view",
      "type": "function"
    },
    {
      "inputs": [],
      "name": "owner",
      "outputs": [
        {
          "internalType": "address",
          "name": "",
          "type": "address"
        }
      ],
      "stateMutability": "view",
      "type": "function"
    },
    {
      "inputs": [
        {
          "internalType": "uint256",
          "name": "tokenId",
          "type": "uint256"
        }
      ],
      "name": "ownerOf",
      "outputs": [
        {
          "internalType": "address",
          "name": "",
          "type": "address"
        }
      ],
      "stateMutability": "view",
      "type": "function"
    },
    {
      "inputs": [],
      "name": "renounceOwnership",
      "outputs": [],
      "stateMutability": "nonpayable",
      "type": "function"
    },
    {
      "inputs": [
        {
          "internalType": "address",
          "name": "from",
          "type": "address"
        },
        {
          "internalType": "address",
          "name": "to",
          "type": "address"
        },
        {
          "internalType": "uint256",
          "name": "tokenId",
          "type": "uint256"
        }
      ],
      "name": "safeTransferFrom",
      "outputs": [],
      "stateMutability": "nonpayable",
      "type": "function"
    },
    {
      "inputs": [
        {
          "internalType": "address",
          "name": "from",
          "type": "address"
        },
        {
          "internalType": "address",
          "name": "to",
          "type": "address"
        },
        {
          "internalType": "uint256",
          "name": "tokenId",
          "type": "uint256"
        },
        {
          "internalType": "bytes",
          "name": "data",
          "type": "bytes"
        }
      ],
      "name": "safeTransferFrom",
      "outputs": [],
      "stateMutability": "nonpayable",
      "type": "function"
    },
    {
      "inputs": [
        {
          "internalType": "address",
          "name": "operator",
          "type": "address"
        },
        {
          "internalType": "bool",
          "name": "approved",
          "type": "bool"
        }
      ],
      "name": "setApprovalForAll",
      "outputs": [],
      "stateMutability": "nonpayable",
      "type": "function"
    },
    {
      "inputs": [
        {
          "internalType": "address",
          "name": "dpidRegistry",
          "type": "address"
        }
      ],
      "name": "setRegistry",
      "outputs": [],
      "stateMutability": "nonpayable",
      "type": "function"
    },
    {
      "inputs": [
        {
          "internalType": "string",
          "name": "uri",
          "type": "string"
        }
      ],
      "name": "setURI",
      "outputs": [],
      "stateMutability": "nonpayable",
      "type": "function"
    },
    {
      "inputs": [
        {
          "internalType": "bytes4",
          "name": "interfaceId",
          "type": "bytes4"
        }
      ],
      "name": "supportsInterface",
      "outputs": [
        {
          "internalType": "bool",
          "name": "",
          "type": "bool"
        }
      ],
      "stateMutability": "view",
      "type": "function"
    },
    {
      "inputs": [],
      "name": "symbol",
      "outputs": [
        {
          "internalType": "string",
          "name": "",
          "type": "string"
        }
      ],
      "stateMutability": "view",
      "type": "function"
    },
    {
      "inputs": [
        {
          "internalType": "uint256",
          "name": "tokenId",
          "type": "uint256"
        }
      ],
      "name": "tokenURI",
      "outputs": [
        {
          "internalType": "string",
          "name": "",
          "type": "string"
        }
      ],
      "stateMutability": "view",
      "type": "function"
    },
    {
      "inputs": [
        {
          "internalType": "address",
          "name": "from",
          "type": "address"
        },
        {
          "internalType": "address",
          "name": "to",
          "type": "address"
        },
        {
          "internalType": "uint256",
          "name": "tokenId",
          "type": "uint256"
        }
      ],
      "name": "transferFrom",
      "outputs": [],
      "stateMutability": "nonpayable",
      "type": "function"
    },
    {
      "inputs": [
        {
          "internalType": "address",
          "name": "newOwner",
          "type": "address"
        }
      ],
      "name": "transferOwnership",
      "outputs": [],
      "stateMutability": "nonpayable",
      "type": "function"
    },
    {
      "inputs": [
        {
          "internalType": "uint256",
          "name": "tokenId",
          "type": "uint256"
        },
        {
          "internalType": "bytes",
          "name": "cid",
          "type": "bytes"
        }
      ],
      "name": "updateMetadata",
      "outputs": [],
      "stateMutability": "nonpayable",
      "type": "function"
    }
  ],
  "bytecode": "0x60806040523480156200001157600080fd5b50620000226200002860201b60201c565b620001d3565b600060019054906101000a900460ff16156200007b576040517f08c379a0000000000000000000000000000000000000000000000000000000008152600401620000729062000176565b60405180910390fd5b60ff801660008054906101000a900460ff1660ff161015620000ed5760ff6000806101000a81548160ff021916908360ff1602179055507f7f26b83ff96e1f2b6a682f133852f6798a09c465da95921460cefb384740249860ff604051620000e49190620001b6565b60405180910390a15b565b600082825260208201905092915050565b7f496e697469616c697a61626c653a20636f6e747261637420697320696e69746960008201527f616c697a696e6700000000000000000000000000000000000000000000000000602082015250565b60006200015e602783620000ef565b91506200016b8262000100565b604082019050919050565b6000602082019050818103600083015262000191816200014f565b9050919050565b600060ff82169050919050565b620001b08162000198565b82525050565b6000602082019050620001cd6000830184620001a5565b92915050565b613f6480620001e36000396000f3fe6080604052600436106101b75760003560e01c806370a08231116100ec578063b88d4fde1161008a578063ce1b815f11610064578063ce1b815f1461061d578063db7fd40814610648578063e985e9c514610671578063f2fde38b146106ae576101b7565b8063b88d4fde1461059b578063c87b56dd146105c4578063c88efd1514610601576101b7565b806395d89b41116100c657806395d89b41146104f55780639a7fad4014610520578063a22cb46514610549578063a91ee0dc14610572576101b7565b806370a0823114610476578063715018a6146104b35780638da5cb5b146104ca576101b7565b80633dcd3236116101595780634f558e79116101335780634f558e7914610396578063572b6c05146103d3578063599ad936146104105780636352211e14610439576101b7565b80633dcd32361461031957806342842e0e14610344578063485cc9551461036d576101b7565b8063081812fc11610195578063081812fc1461024d578063095ea7b31461028a57806313859f46146102b357806323b872dd146102f0576101b7565b806301ffc9a7146101bc57806302fe5305146101f957806306fdde0314610222575b600080fd5b3480156101c857600080fd5b506101e360048036038101906101de91906125a4565b6106d7565b6040516101f091906125ec565b60405180910390f35b34801561020557600080fd5b50610220600480360381019061021b919061274d565b6107b9565b005b34801561022e57600080fd5b506102376107d4565b6040516102449190612815565b60405180910390f35b34801561025957600080fd5b50610274600480360381019061026f919061286d565b610866565b60405161028191906128db565b60405180910390f35b34801561029657600080fd5b506102b160048036038101906102ac9190612922565b6108ac565b005b3480156102bf57600080fd5b506102da60048036038101906102d5919061286d565b6109c3565b6040516102e791906129b7565b60405180910390f35b3480156102fc57600080fd5b50610317600480360381019061031291906129d9565b610a63565b005b34801561032557600080fd5b5061032e610ac3565b60405161033b91906128db565b60405180910390f35b34801561035057600080fd5b5061036b600480360381019061036691906129d9565b610ae9565b005b34801561037957600080fd5b50610394600480360381019061038f9190612a2c565b610b09565b005b3480156103a257600080fd5b506103bd60048036038101906103b8919061286d565b610d07565b6040516103ca91906125ec565b60405180910390f35b3480156103df57600080fd5b506103fa60048036038101906103f59190612a6c565b610d19565b60405161040791906125ec565b60405180910390f35b34801561041c57600080fd5b5061043760048036038101906104329190612a99565b610d73565b005b34801561044557600080fd5b50610460600480360381019061045b919061286d565b610dd0565b60405161046d91906128db565b60405180910390f35b34801561048257600080fd5b5061049d60048036038101906104989190612a6c565b610e81565b6040516104aa9190612b20565b60405180910390f35b3480156104bf57600080fd5b506104c8610f38565b005b3480156104d657600080fd5b506104df610f4c565b6040516104ec91906128db565b60405180910390f35b34801561050157600080fd5b5061050a610f76565b6040516105179190612815565b60405180910390f35b34801561052c57600080fd5b5061054760048036038101906105429190612bdc565b611008565b005b34801561055557600080fd5b50610570600480360381019061056b9190612c64565b61110e565b005b34801561057e57600080fd5b5061059960048036038101906105949190612a6c565b611124565b005b3480156105a757600080fd5b506105c260048036038101906105bd9190612ca4565b611170565b005b3480156105d057600080fd5b506105eb60048036038101906105e6919061286d565b6111d2565b6040516105f89190612815565b60405180910390f35b61061b60048036038101906106169190612dbd565b61123a565b005b34801561062957600080fd5b5061063261133a565b60405161063f91906128db565b60405180910390f35b34801561065457600080fd5b5061066f600480360381019061066a9190612e45565b611364565b005b34801561067d57600080fd5b5061069860048036038101906106939190612a2c565b6113d4565b6040516106a591906125ec565b60405180910390f35b3480156106ba57600080fd5b506106d560048036038101906106d09190612a6c565b611468565b005b60007f80ac58cd000000000000000000000000000000000000000000000000000000007bffffffffffffffffffffffffffffffffffffffffffffffffffffffff1916827bffffffffffffffffffffffffffffffffffffffffffffffffffffffff191614806107a257507f5b5e139f000000000000000000000000000000000000000000000000000000007bffffffffffffffffffffffffffffffffffffffffffffffffffffffff1916827bffffffffffffffffffffffffffffffffffffffffffffffffffffffff1916145b806107b257506107b1826114eb565b5b9050919050565b6107c1611555565b8060cb90816107d091906130b1565b5050565b6060606580546107e390612ed4565b80601f016020809104026020016040519081016040528092919081815260200182805461080f90612ed4565b801561085c5780601f106108315761010080835404028352916020019161085c565b820191906000526020600020905b81548152906001019060200180831161083f57829003601f168201915b5050505050905090565b6000610871826115d3565b6069600083815260200190815260200160002060009054906101000a900473ffffffffffffffffffffffffffffffffffffffff169050919050565b60006108b782610dd0565b90508073ffffffffffffffffffffffffffffffffffffffff168373ffffffffffffffffffffffffffffffffffffffff1603610927576040517f08c379a000000000000000000000000000000000000000000000000000000000815260040161091e906131f5565b60405180910390fd5b8073ffffffffffffffffffffffffffffffffffffffff1661094661161e565b73ffffffffffffffffffffffffffffffffffffffff16148061097557506109748161096f61161e565b6113d4565b5b6109b4576040517f08c379a00000000000000000000000000000000000000000000000000000000081526004016109ab90613287565b60405180910390fd5b6109be8383611655565b505050565b609760205280600052604060002060009150905080546109e290612ed4565b80601f0160208091040260200160405190810160405280929190818152602001828054610a0e90612ed4565b8015610a5b5780601f10610a3057610100808354040283529160200191610a5b565b820191906000526020600020905b815481529060010190602001808311610a3e57829003601f168201915b505050505081565b610a74610a6e61161e565b8261170e565b610ab3576040517f08c379a0000000000000000000000000000000000000000000000000000000008152600401610aaa90613319565b60405180910390fd5b610abe8383836117a3565b505050565b60cc60009054906101000a900473ffffffffffffffffffffffffffffffffffffffff1681565b610b0483838360405180602001604052806000815250611170565b505050565b60008060019054906101000a900460ff16159050808015610b3a5750600160008054906101000a900460ff1660ff16105b80610b675750610b4930611a09565b158015610b665750600160008054906101000a900460ff1660ff16145b5b610ba6576040517f08c379a0000000000000000000000000000000000000000000000000000000008152600401610b9d906133ab565b60405180910390fd5b60016000806101000a81548160ff021916908360ff1602179055508015610be3576001600060016101000a81548160ff0219169083151502179055505b610c576040518060400160405280601581526020017f4465536369205265736561726368204f626a65637400000000000000000000008152506040518060400160405280600a81526020017f44655363692d4e6f646500000000000000000000000000000000000000000000815250610d73565b610c5f611a2c565b8260cc60006101000a81548173ffffffffffffffffffffffffffffffffffffffff021916908373ffffffffffffffffffffffffffffffffffffffff160217905550610ca982611a85565b8015610d025760008060016101000a81548160ff0219169083151502179055507f7f26b83ff96e1f2b6a682f133852f6798a09c465da95921460cefb38474024986001604051610cf99190613413565b60405180910390a15b505050565b6000610d1282611ac9565b9050919050565b600060ca60009054906101000a900473ffffffffffffffffffffffffffffffffffffffff1673ffffffffffffffffffffffffffffffffffffffff168273ffffffffffffffffffffffffffffffffffffffff16149050919050565b600060019054906101000a900460ff16610dc2576040517f08c379a0000000000000000000000000000000000000000000000000000000008152600401610db9906134a0565b60405180910390fd5b610dcc8282611b35565b5050565b6000806067600084815260200190815260200160002060009054906101000a900473ffffffffffffffffffffffffffffffffffffffff169050600073ffffffffffffffffffffffffffffffffffffffff168173ffffffffffffffffffffffffffffffffffffffff1603610e78576040517f08c379a0000000000000000000000000000000000000000000000000000000008152600401610e6f9061350c565b60405180910390fd5b80915050919050565b60008073ffffffffffffffffffffffffffffffffffffffff168273ffffffffffffffffffffffffffffffffffffffff1603610ef1576040517f08c379a0000000000000000000000000000000000000000000000000000000008152600401610ee89061359e565b60405180910390fd5b606860008373ffffffffffffffffffffffffffffffffffffffff1673ffffffffffffffffffffffffffffffffffffffff168152602001908152602001600020549050919050565b610f40611555565b610f4a6000611b92565b565b6000609860009054906101000a900473ffffffffffffffffffffffffffffffffffffffff16905090565b606060668054610f8590612ed4565b80601f0160208091040260200160405190810160405280929190818152602001828054610fb190612ed4565b8015610ffe5780601f10610fd357610100808354040283529160200191610ffe565b820191906000526020600020905b815481529060010190602001808311610fe157829003601f168201915b5050505050905090565b81600061101361161e565b905060008173ffffffffffffffffffffffffffffffffffffffff1661103784610dd0565b73ffffffffffffffffffffffffffffffffffffffff1614905080611090576040517f08c379a00000000000000000000000000000000000000000000000000000000081526004016110879061360a565b60405180910390fd5b836097600087815260200190815260200160002090816110b09190613685565b50846110ba61161e565b73ffffffffffffffffffffffffffffffffffffffff167fabddf73bfc8efbf8287a09ea355e43cf6c0c22880ce0470affeba5271c0a7694866040516110ff91906129b7565b60405180910390a35050505050565b61112061111961161e565b8383611c58565b5050565b61112c611555565b8060cc60006101000a81548173ffffffffffffffffffffffffffffffffffffffff021916908373ffffffffffffffffffffffffffffffffffffffff16021790555050565b61118161117b61161e565b8361170e565b6111c0576040517f08c379a00000000000000000000000000000000000000000000000000000000081526004016111b790613319565b60405180910390fd5b6111cc84848484611dc4565b50505050565b60606111dd826115d3565b60006111e7611e20565b905060008151116112075760405180602001604052806000815250611232565b8061121184611eb2565b604051602001611222929190613793565b6040516020818303038152906040525b915050919050565b600060cc60009054906101000a900473ffffffffffffffffffffffffffffffffffffffff16905060008173ffffffffffffffffffffffffffffffffffffffff1663da4a984234868a6040518463ffffffff1660e01b815260040161129f9291906137c6565b60206040518083038185885af11580156112bd573d6000803e3d6000fd5b50505050506040513d601f19601f820116820180604052508101906112e29190613804565b9050808314611326576040517f08c379a000000000000000000000000000000000000000000000000000000000815260040161131d9061387d565b60405180910390fd5b611331878787611364565b50505050505050565b600060ca60009054906101000a900473ffffffffffffffffffffffffffffffffffffffff16905090565b600061136e61161e565b9050600084905061137f8282612012565b6113cd8585858080601f016020809104026020016040519081016040528093929190818152602001838380828437600081840152601f19601f82011690508083019250505050505050611008565b5050505050565b6000606a60008473ffffffffffffffffffffffffffffffffffffffff1673ffffffffffffffffffffffffffffffffffffffff16815260200190815260200160002060008373ffffffffffffffffffffffffffffffffffffffff1673ffffffffffffffffffffffffffffffffffffffff16815260200190815260200160002060009054906101000a900460ff16905092915050565b611470611555565b600073ffffffffffffffffffffffffffffffffffffffff168173ffffffffffffffffffffffffffffffffffffffff16036114df576040517f08c379a00000000000000000000000000000000000000000000000000000000081526004016114d69061390f565b60405180910390fd5b6114e881611b92565b50565b60007f01ffc9a7000000000000000000000000000000000000000000000000000000007bffffffffffffffffffffffffffffffffffffffffffffffffffffffff1916827bffffffffffffffffffffffffffffffffffffffffffffffffffffffff1916149050919050565b61155d61161e565b73ffffffffffffffffffffffffffffffffffffffff1661157b610f4c565b73ffffffffffffffffffffffffffffffffffffffff16146115d1576040517f08c379a00000000000000000000000000000000000000000000000000000000081526004016115c89061397b565b60405180910390fd5b565b6115dc81611ac9565b61161b576040517f08c379a00000000000000000000000000000000000000000000000000000000081526004016116129061350c565b60405180910390fd5b50565b6000601460003690501015801561163a575061163933610d19565b5b1561164e57601436033560601c9050611652565b3390505b90565b816069600083815260200190815260200160002060006101000a81548173ffffffffffffffffffffffffffffffffffffffff021916908373ffffffffffffffffffffffffffffffffffffffff160217905550808273ffffffffffffffffffffffffffffffffffffffff166116c883610dd0565b73ffffffffffffffffffffffffffffffffffffffff167f8c5be1e5ebec7d5bd14f71427d1e84f3dd0314c0f7b2291e5b200ac8c7c3b92560405160405180910390a45050565b60008061171a83610dd0565b90508073ffffffffffffffffffffffffffffffffffffffff168473ffffffffffffffffffffffffffffffffffffffff16148061175c575061175b81856113d4565b5b8061179a57508373ffffffffffffffffffffffffffffffffffffffff1661178284610866565b73ffffffffffffffffffffffffffffffffffffffff16145b91505092915050565b8273ffffffffffffffffffffffffffffffffffffffff166117c382610dd0565b73ffffffffffffffffffffffffffffffffffffffff1614611819576040517f08c379a000000000000000000000000000000000000000000000000000000000815260040161181090613a0d565b60405180910390fd5b600073ffffffffffffffffffffffffffffffffffffffff168273ffffffffffffffffffffffffffffffffffffffff1603611888576040517f08c379a000000000000000000000000000000000000000000000000000000000815260040161187f90613a9f565b60405180910390fd5b611893838383612030565b61189e600082611655565b6001606860008573ffffffffffffffffffffffffffffffffffffffff1673ffffffffffffffffffffffffffffffffffffffff16815260200190815260200160002060008282546118ee9190613aee565b925050819055506001606860008473ffffffffffffffffffffffffffffffffffffffff1673ffffffffffffffffffffffffffffffffffffffff16815260200190815260200160002060008282546119459190613b22565b92505081905550816067600083815260200190815260200160002060006101000a81548173ffffffffffffffffffffffffffffffffffffffff021916908373ffffffffffffffffffffffffffffffffffffffff160217905550808273ffffffffffffffffffffffffffffffffffffffff168473ffffffffffffffffffffffffffffffffffffffff167fddf252ad1be2c89b69c2b068fc378daa952ba7f163c4a11628f55a4df523b3ef60405160405180910390a4611a048383836120a4565b505050565b6000808273ffffffffffffffffffffffffffffffffffffffff163b119050919050565b600060019054906101000a900460ff16611a7b576040517f08c379a0000000000000000000000000000000000000000000000000000000008152600401611a72906134a0565b60405180910390fd5b611a836120a9565b565b8060ca60006101000a81548173ffffffffffffffffffffffffffffffffffffffff021916908373ffffffffffffffffffffffffffffffffffffffff16021790555050565b60008073ffffffffffffffffffffffffffffffffffffffff166067600084815260200190815260200160002060009054906101000a900473ffffffffffffffffffffffffffffffffffffffff1673ffffffffffffffffffffffffffffffffffffffff1614159050919050565b600060019054906101000a900460ff16611b84576040517f08c379a0000000000000000000000000000000000000000000000000000000008152600401611b7b906134a0565b60405180910390fd5b611b8e828261210a565b5050565b6000609860009054906101000a900473ffffffffffffffffffffffffffffffffffffffff16905081609860006101000a81548173ffffffffffffffffffffffffffffffffffffffff021916908373ffffffffffffffffffffffffffffffffffffffff1602179055508173ffffffffffffffffffffffffffffffffffffffff168173ffffffffffffffffffffffffffffffffffffffff167f8be0079c531659141344cd1fd0a4f28419497f9722a3daafe3b4186f6b6457e060405160405180910390a35050565b8173ffffffffffffffffffffffffffffffffffffffff168373ffffffffffffffffffffffffffffffffffffffff1603611cc6576040517f08c379a0000000000000000000000000000000000000000000000000000000008152600401611cbd90613ba2565b60405180910390fd5b80606a60008573ffffffffffffffffffffffffffffffffffffffff1673ffffffffffffffffffffffffffffffffffffffff16815260200190815260200160002060008473ffffffffffffffffffffffffffffffffffffffff1673ffffffffffffffffffffffffffffffffffffffff16815260200190815260200160002060006101000a81548160ff0219169083151502179055508173ffffffffffffffffffffffffffffffffffffffff168373ffffffffffffffffffffffffffffffffffffffff167f17307eab39ab6107e8899845ad3d59bd9653f200f220920489ca2b5937696c3183604051611db791906125ec565b60405180910390a3505050565b611dcf8484846117a3565b611ddb8484848461217d565b611e1a576040517f08c379a0000000000000000000000000000000000000000000000000000000008152600401611e1190613c34565b60405180910390fd5b50505050565b606060cb8054611e2f90612ed4565b80601f0160208091040260200160405190810160405280929190818152602001828054611e5b90612ed4565b8015611ea85780601f10611e7d57610100808354040283529160200191611ea8565b820191906000526020600020905b815481529060010190602001808311611e8b57829003601f168201915b5050505050905090565b606060008203611ef9576040518060400160405280600181526020017f3000000000000000000000000000000000000000000000000000000000000000815250905061200d565b600082905060005b60008214611f2b578080611f1490613c54565b915050600a82611f249190613ccb565b9150611f01565b60008167ffffffffffffffff811115611f4757611f46612622565b5b6040519080825280601f01601f191660200182016040528015611f795781602001600182028036833780820191505090505b5090505b6000851461200657600182611f929190613aee565b9150600a85611fa19190613cfc565b6030611fad9190613b22565b60f81b818381518110611fc357611fc2613d2d565b5b60200101907effffffffffffffffffffffffffffffffffffffffffffffffffffffffffffff1916908160001a905350600a85611fff9190613ccb565b9450611f7d565b8093505050505b919050565b61202c828260405180602001604052806000815250612304565b5050565b600073ffffffffffffffffffffffffffffffffffffffff168373ffffffffffffffffffffffffffffffffffffffff161461209f576040517f08c379a000000000000000000000000000000000000000000000000000000000815260040161209690613da8565b60405180910390fd5b505050565b505050565b600060019054906101000a900460ff166120f8576040517f08c379a00000000000000000000000000000000000000000000000000000000081526004016120ef906134a0565b60405180910390fd5b61210861210361161e565b611b92565b565b600060019054906101000a900460ff16612159576040517f08c379a0000000000000000000000000000000000000000000000000000000008152600401612150906134a0565b60405180910390fd5b816065908161216891906130b1565b50806066908161217891906130b1565b505050565b600061219e8473ffffffffffffffffffffffffffffffffffffffff16611a09565b156122f7578373ffffffffffffffffffffffffffffffffffffffff1663150b7a026121c761161e565b8786866040518563ffffffff1660e01b81526004016121e99493929190613dc8565b6020604051808303816000875af192505050801561222557506040513d601f19601f820116820180604052508101906122229190613e29565b60015b6122a7573d8060008114612255576040519150601f19603f3d011682016040523d82523d6000602084013e61225a565b606091505b50600081510361229f576040517f08c379a000000000000000000000000000000000000000000000000000000000815260040161229690613c34565b60405180910390fd5b805181602001fd5b63150b7a0260e01b7bffffffffffffffffffffffffffffffffffffffffffffffffffffffff1916817bffffffffffffffffffffffffffffffffffffffffffffffffffffffff1916149150506122fc565b600190505b949350505050565b61230e838361235f565b61231b600084848461217d565b61235a576040517f08c379a000000000000000000000000000000000000000000000000000000000815260040161235190613c34565b60405180910390fd5b505050565b600073ffffffffffffffffffffffffffffffffffffffff168273ffffffffffffffffffffffffffffffffffffffff16036123ce576040517f08c379a00000000000000000000000000000000000000000000000000000000081526004016123c590613ea2565b60405180910390fd5b6123d781611ac9565b15612417576040517f08c379a000000000000000000000000000000000000000000000000000000000815260040161240e90613f0e565b60405180910390fd5b61242360008383612030565b6001606860008473ffffffffffffffffffffffffffffffffffffffff1673ffffffffffffffffffffffffffffffffffffffff16815260200190815260200160002060008282546124739190613b22565b92505081905550816067600083815260200190815260200160002060006101000a81548173ffffffffffffffffffffffffffffffffffffffff021916908373ffffffffffffffffffffffffffffffffffffffff160217905550808273ffffffffffffffffffffffffffffffffffffffff16600073ffffffffffffffffffffffffffffffffffffffff167fddf252ad1be2c89b69c2b068fc378daa952ba7f163c4a11628f55a4df523b3ef60405160405180910390a4612534600083836120a4565b5050565b6000604051905090565b600080fd5b600080fd5b60007fffffffff0000000000000000000000000000000000000000000000000000000082169050919050565b6125818161254c565b811461258c57600080fd5b50565b60008135905061259e81612578565b92915050565b6000602082840312156125ba576125b9612542565b5b60006125c88482850161258f565b91505092915050565b60008115159050919050565b6125e6816125d1565b82525050565b600060208201905061260160008301846125dd565b92915050565b600080fd5b600080fd5b6000601f19601f8301169050919050565b7f4e487b7100000000000000000000000000000000000000000000000000000000600052604160045260246000fd5b61265a82612611565b810181811067ffffffffffffffff8211171561267957612678612622565b5b80604052505050565b600061268c612538565b90506126988282612651565b919050565b600067ffffffffffffffff8211156126b8576126b7612622565b5b6126c182612611565b9050602081019050919050565b82818337600083830152505050565b60006126f06126eb8461269d565b612682565b90508281526020810184848401111561270c5761270b61260c565b5b6127178482856126ce565b509392505050565b600082601f83011261273457612733612607565b5b81356127448482602086016126dd565b91505092915050565b60006020828403121561276357612762612542565b5b600082013567ffffffffffffffff81111561278157612780612547565b5b61278d8482850161271f565b91505092915050565b600081519050919050565b600082825260208201905092915050565b60005b838110156127d05780820151818401526020810190506127b5565b60008484015250505050565b60006127e782612796565b6127f181856127a1565b93506128018185602086016127b2565b61280a81612611565b840191505092915050565b6000602082019050818103600083015261282f81846127dc565b905092915050565b6000819050919050565b61284a81612837565b811461285557600080fd5b50565b60008135905061286781612841565b92915050565b60006020828403121561288357612882612542565b5b600061289184828501612858565b91505092915050565b600073ffffffffffffffffffffffffffffffffffffffff82169050919050565b60006128c58261289a565b9050919050565b6128d5816128ba565b82525050565b60006020820190506128f060008301846128cc565b92915050565b6128ff816128ba565b811461290a57600080fd5b50565b60008135905061291c816128f6565b92915050565b6000806040838503121561293957612938612542565b5b60006129478582860161290d565b925050602061295885828601612858565b9150509250929050565b600081519050919050565b600082825260208201905092915050565b600061298982612962565b612993818561296d565b93506129a38185602086016127b2565b6129ac81612611565b840191505092915050565b600060208201905081810360008301526129d1818461297e565b905092915050565b6000806000606084860312156129f2576129f1612542565b5b6000612a008682870161290d565b9350506020612a118682870161290d565b9250506040612a2286828701612858565b9150509250925092565b60008060408385031215612a4357612a42612542565b5b6000612a518582860161290d565b9250506020612a628582860161290d565b9150509250929050565b600060208284031215612a8257612a81612542565b5b6000612a908482850161290d565b91505092915050565b60008060408385031215612ab057612aaf612542565b5b600083013567ffffffffffffffff811115612ace57612acd612547565b5b612ada8582860161271f565b925050602083013567ffffffffffffffff811115612afb57612afa612547565b5b612b078582860161271f565b9150509250929050565b612b1a81612837565b82525050565b6000602082019050612b356000830184612b11565b92915050565b600067ffffffffffffffff821115612b5657612b55612622565b5b612b5f82612611565b9050602081019050919050565b6000612b7f612b7a84612b3b565b612682565b905082815260208101848484011115612b9b57612b9a61260c565b5b612ba68482856126ce565b509392505050565b600082601f830112612bc357612bc2612607565b5b8135612bd3848260208601612b6c565b91505092915050565b60008060408385031215612bf357612bf2612542565b5b6000612c0185828601612858565b925050602083013567ffffffffffffffff811115612c2257612c21612547565b5b612c2e85828601612bae565b9150509250929050565b612c41816125d1565b8114612c4c57600080fd5b50565b600081359050612c5e81612c38565b92915050565b60008060408385031215612c7b57612c7a612542565b5b6000612c898582860161290d565b9250506020612c9a85828601612c4f565b9150509250929050565b60008060008060808587031215612cbe57612cbd612542565b5b6000612ccc8782880161290d565b9450506020612cdd8782880161290d565b9350506040612cee87828801612858565b925050606085013567ffffffffffffffff811115612d0f57612d0e612547565b5b612d1b87828801612bae565b91505092959194509250565b600080fd5b600080fd5b60008083601f840112612d4757612d46612607565b5b8235905067ffffffffffffffff811115612d6457612d63612d27565b5b602083019150836001820283011115612d8057612d7f612d2c565b5b9250929050565b6000819050919050565b612d9a81612d87565b8114612da557600080fd5b50565b600081359050612db781612d91565b92915050565b600080600080600060808688031215612dd957612dd8612542565b5b6000612de788828901612858565b955050602086013567ffffffffffffffff811115612e0857612e07612547565b5b612e1488828901612d31565b94509450506040612e2788828901612da8565b9250506060612e3888828901612858565b9150509295509295909350565b600080600060408486031215612e5e57612e5d612542565b5b6000612e6c86828701612858565b935050602084013567ffffffffffffffff811115612e8d57612e8c612547565b5b612e9986828701612d31565b92509250509250925092565b7f4e487b7100000000000000000000000000000000000000000000000000000000600052602260045260246000fd5b60006002820490506001821680612eec57607f821691505b602082108103612eff57612efe612ea5565b5b50919050565b60008190508160005260206000209050919050565b60006020601f8301049050919050565b600082821b905092915050565b600060088302612f677fffffffffffffffffffffffffffffffffffffffffffffffffffffffffffffffff82612f2a565b612f718683612f2a565b95508019841693508086168417925050509392505050565b6000819050919050565b6000612fae612fa9612fa484612837565b612f89565b612837565b9050919050565b6000819050919050565b612fc883612f93565b612fdc612fd482612fb5565b848454612f37565b825550505050565b600090565b612ff1612fe4565b612ffc818484612fbf565b505050565b5b8181101561302057613015600082612fe9565b600181019050613002565b5050565b601f8211156130655761303681612f05565b61303f84612f1a565b8101602085101561304e578190505b61306261305a85612f1a565b830182613001565b50505b505050565b600082821c905092915050565b60006130886000198460080261306a565b1980831691505092915050565b60006130a18383613077565b9150826002028217905092915050565b6130ba82612796565b67ffffffffffffffff8111156130d3576130d2612622565b5b6130dd8254612ed4565b6130e8828285613024565b600060209050601f83116001811461311b5760008415613109578287015190505b6131138582613095565b86555061317b565b601f19841661312986612f05565b60005b828110156131515784890151825560018201915060208501945060208101905061312c565b8683101561316e578489015161316a601f891682613077565b8355505b6001600288020188555050505b505050505050565b7f4552433732313a20617070726f76616c20746f2063757272656e74206f776e6560008201527f7200000000000000000000000000000000000000000000000000000000000000602082015250565b60006131df6021836127a1565b91506131ea82613183565b604082019050919050565b6000602082019050818103600083015261320e816131d2565b9050919050565b7f4552433732313a20617070726f76652063616c6c6572206973206e6f7420746f60008201527f6b656e206f776e6572206e6f7220617070726f76656420666f7220616c6c0000602082015250565b6000613271603e836127a1565b915061327c82613215565b604082019050919050565b600060208201905081810360008301526132a081613264565b9050919050565b7f4552433732313a2063616c6c6572206973206e6f7420746f6b656e206f776e6560008201527f72206e6f7220617070726f766564000000000000000000000000000000000000602082015250565b6000613303602e836127a1565b915061330e826132a7565b604082019050919050565b60006020820190508181036000830152613332816132f6565b9050919050565b7f496e697469616c697a61626c653a20636f6e747261637420697320616c72656160008201527f647920696e697469616c697a6564000000000000000000000000000000000000602082015250565b6000613395602e836127a1565b91506133a082613339565b604082019050919050565b600060208201905081810360008301526133c481613388565b9050919050565b6000819050919050565b600060ff82169050919050565b60006133fd6133f86133f3846133cb565b612f89565b6133d5565b9050919050565b61340d816133e2565b82525050565b60006020820190506134286000830184613404565b92915050565b7f496e697469616c697a61626c653a20636f6e7472616374206973206e6f74206960008201527f6e697469616c697a696e67000000000000000000000000000000000000000000602082015250565b600061348a602b836127a1565b91506134958261342e565b604082019050919050565b600060208201905081810360008301526134b98161347d565b9050919050565b7f4552433732313a20696e76616c696420746f6b656e2049440000000000000000600082015250565b60006134f66018836127a1565b9150613501826134c0565b602082019050919050565b60006020820190508181036000830152613525816134e9565b9050919050565b7f4552433732313a2061646472657373207a65726f206973206e6f74206120766160008201527f6c6964206f776e65720000000000000000000000000000000000000000000000602082015250565b60006135886029836127a1565b91506135938261352c565b604082019050919050565b600060208201905081810360008301526135b78161357b565b9050919050565b7f4e6f207065726d697373696f6e00000000000000000000000000000000000000600082015250565b60006135f4600d836127a1565b91506135ff826135be565b602082019050919050565b60006020820190508181036000830152613623816135e7565b9050919050565b60008190508160005260206000209050919050565b601f821115613680576136518161362a565b61365a84612f1a565b81016020851015613669578190505b61367d61367585612f1a565b830182613001565b50505b505050565b61368e82612962565b67ffffffffffffffff8111156136a7576136a6612622565b5b6136b18254612ed4565b6136bc82828561363f565b600060209050601f8311600181146136ef57600084156136dd578287015190505b6136e78582613095565b86555061374f565b601f1984166136fd8661362a565b60005b8281101561372557848901518255600182019150602085019450602081019050613700565b86831015613742578489015161373e601f891682613077565b8355505b6001600288020188555050505b505050505050565b600081905092915050565b600061376d82612796565b6137778185613757565b93506137878185602086016127b2565b80840191505092915050565b600061379f8285613762565b91506137ab8284613762565b91508190509392505050565b6137c081612d87565b82525050565b60006040820190506137db60008301856137b7565b6137e86020830184612b11565b9392505050565b6000815190506137fe81612841565b92915050565b60006020828403121561381a57613819612542565b5b6000613828848285016137ef565b91505092915050565b7f556e657870656374656420645049440000000000000000000000000000000000600082015250565b6000613867600f836127a1565b915061387282613831565b602082019050919050565b600060208201905081810360008301526138968161385a565b9050919050565b7f4f776e61626c653a206e6577206f776e657220697320746865207a65726f206160008201527f6464726573730000000000000000000000000000000000000000000000000000602082015250565b60006138f96026836127a1565b91506139048261389d565b604082019050919050565b60006020820190508181036000830152613928816138ec565b9050919050565b7f4f776e61626c653a2063616c6c6572206973206e6f7420746865206f776e6572600082015250565b60006139656020836127a1565b91506139708261392f565b602082019050919050565b6000602082019050818103600083015261399481613958565b9050919050565b7f4552433732313a207472616e736665722066726f6d20696e636f72726563742060008201527f6f776e6572000000000000000000000000000000000000000000000000000000602082015250565b60006139f76025836127a1565b9150613a028261399b565b604082019050919050565b60006020820190508181036000830152613a26816139ea565b9050919050565b7f4552433732313a207472616e7366657220746f20746865207a65726f2061646460008201527f7265737300000000000000000000000000000000000000000000000000000000602082015250565b6000613a896024836127a1565b9150613a9482613a2d565b604082019050919050565b60006020820190508181036000830152613ab881613a7c565b9050919050565b7f4e487b7100000000000000000000000000000000000000000000000000000000600052601160045260246000fd5b6000613af982612837565b9150613b0483612837565b9250828203905081811115613b1c57613b1b613abf565b5b92915050565b6000613b2d82612837565b9150613b3883612837565b9250828201905080821115613b5057613b4f613abf565b5b92915050565b7f4552433732313a20617070726f766520746f2063616c6c657200000000000000600082015250565b6000613b8c6019836127a1565b9150613b9782613b56565b602082019050919050565b60006020820190508181036000830152613bbb81613b7f565b9050919050565b7f4552433732313a207472616e7366657220746f206e6f6e20455243373231526560008201527f63656976657220696d706c656d656e7465720000000000000000000000000000602082015250565b6000613c1e6032836127a1565b9150613c2982613bc2565b604082019050919050565b60006020820190508181036000830152613c4d81613c11565b9050919050565b6000613c5f82612837565b91507fffffffffffffffffffffffffffffffffffffffffffffffffffffffffffffffff8203613c9157613c90613abf565b5b600182019050919050565b7f4e487b7100000000000000000000000000000000000000000000000000000000600052601260045260246000fd5b6000613cd682612837565b9150613ce183612837565b925082613cf157613cf0613c9c565b5b828204905092915050565b6000613d0782612837565b9150613d1283612837565b925082613d2257613d21613c9c565b5b828206905092915050565b7f4e487b7100000000000000000000000000000000000000000000000000000000600052603260045260246000fd5b7f6e6f207472616e73666572000000000000000000000000000000000000000000600082015250565b6000613d92600b836127a1565b9150613d9d82613d5c565b602082019050919050565b60006020820190508181036000830152613dc181613d85565b9050919050565b6000608082019050613ddd60008301876128cc565b613dea60208301866128cc565b613df76040830185612b11565b8181036060830152613e09818461297e565b905095945050505050565b600081519050613e2381612578565b92915050565b600060208284031215613e3f57613e3e612542565b5b6000613e4d84828501613e14565b91505092915050565b7f4552433732313a206d696e7420746f20746865207a65726f2061646472657373600082015250565b6000613e8c6020836127a1565b9150613e9782613e56565b602082019050919050565b60006020820190508181036000830152613ebb81613e7f565b9050919050565b7f4552433732313a20746f6b656e20616c7265616479206d696e74656400000000600082015250565b6000613ef8601c836127a1565b9150613f0382613ec2565b602082019050919050565b60006020820190508181036000830152613f2781613eeb565b905091905056fea26469706673582212203338189aea77f9a1f86a4f40eb97d3b0aa3fe08baf7ad38d02bae9e10db0361564736f6c63430008110033",
  "linkReferences": {},
  "deployedLinkReferences": {}
}