{
  "_format": "hh-sol-artifact-1",
  "contractName": "ResearchObjectMigrated",
  "sourceName": "contracts/migrated/ResearchObjectMigrated.sol",
  "abi": [
    {
      "inputs": [],
      "stateMutability": "nonpayable",
      "type": "constructor"
    },
    {
      "anonymous": false,
      "inputs": [
        {
          "indexed": true,
          "internalType": "address",
          "name": "owner",
          "type": "address"
        },
        {
          "indexed": true,
          "internalType": "address",
          "name": "approved",
          "type": "address"
        },
        {
          "indexed": true,
          "internalType": "uint256",
          "name": "tokenId",
          "type": "uint256"
        }
      ],
      "name": "Approval",
      "type": "event"
    },
    {
      "anonymous": false,
      "inputs": [
        {
          "indexed": true,
          "internalType": "address",
          "name": "owner",
          "type": "address"
        },
        {
          "indexed": true,
          "internalType": "address",
          "name": "operator",
          "type": "address"
        },
        {
          "indexed": false,
          "internalType": "bool",
          "name": "approved",
          "type": "bool"
        }
      ],
      "name": "ApprovalForAll",
      "type": "event"
    },
    {
      "anonymous": false,
      "inputs": [
        {
          "indexed": false,
          "internalType": "uint8",
          "name": "version",
          "type": "uint8"
        }
      ],
      "name": "Initialized",
      "type": "event"
    },
    {
      "anonymous": false,
      "inputs": [
        {
          "indexed": true,
          "internalType": "address",
          "name": "previousOwner",
          "type": "address"
        },
        {
          "indexed": true,
          "internalType": "address",
          "name": "newOwner",
          "type": "address"
        }
      ],
      "name": "OwnershipTransferred",
      "type": "event"
    },
    {
      "anonymous": false,
      "inputs": [
        {
          "indexed": true,
          "internalType": "address",
          "name": "from",
          "type": "address"
        },
        {
          "indexed": true,
          "internalType": "address",
          "name": "to",
          "type": "address"
        },
        {
          "indexed": true,
          "internalType": "uint256",
          "name": "tokenId",
          "type": "uint256"
        }
      ],
      "name": "Transfer",
      "type": "event"
    },
    {
      "anonymous": false,
      "inputs": [
        {
          "indexed": true,
          "internalType": "address",
          "name": "_from",
          "type": "address"
        },
        {
          "indexed": true,
          "internalType": "uint256",
          "name": "_uuid",
          "type": "uint256"
        },
        {
          "indexed": false,
          "internalType": "bytes",
          "name": "_cid",
          "type": "bytes"
        }
      ],
      "name": "VersionPush",
      "type": "event"
    },
    {
      "anonymous": false,
      "inputs": [
        {
          "indexed": true,
          "internalType": "address",
          "name": "_from",
          "type": "address"
        },
        {
          "indexed": true,
          "internalType": "uint256",
          "name": "_uuid",
          "type": "uint256"
        },
        {
          "indexed": false,
          "internalType": "bytes",
          "name": "_cid",
          "type": "bytes"
        },
        {
          "indexed": false,
          "internalType": "uint256",
          "name": "_migration_timestamp",
          "type": "uint256"
        }
      ],
      "name": "VersionPushMigrated",
      "type": "event"
    },
    {
      "inputs": [
        {
          "internalType": "address",
          "name": "dpidRegistry",
          "type": "address"
        }
      ],
      "name": "__ResearchObjectV2_init",
      "outputs": [],
      "stateMutability": "nonpayable",
      "type": "function"
    },
    {
      "inputs": [
        {
          "internalType": "string",
          "name": "name",
          "type": "string"
        },
        {
          "internalType": "string",
          "name": "symbol",
          "type": "string"
        }
      ],
      "name": "__VersionedERC721V2_init",
      "outputs": [],
      "stateMutability": "nonpayable",
      "type": "function"
    },
    {
      "inputs": [],
      "name": "_dpidRegistry",
      "outputs": [
        {
          "internalType": "address",
          "name": "",
          "type": "address"
        }
      ],
      "stateMutability": "view",
      "type": "function"
    },
    {
      "inputs": [
        {
          "internalType": "uint256",
          "name": "",
          "type": "uint256"
        }
      ],
      "name": "_metadata",
      "outputs": [
        {
          "internalType": "bytes",
          "name": "",
          "type": "bytes"
        }
      ],
      "stateMutability": "view",
      "type": "function"
    },
    {
      "inputs": [
        {
          "internalType": "address",
          "name": "to",
          "type": "address"
        },
        {
          "internalType": "uint256",
          "name": "tokenId",
          "type": "uint256"
        }
      ],
      "name": "approve",
      "outputs": [],
      "stateMutability": "nonpayable",
      "type": "function"
    },
    {
      "inputs": [
        {
          "internalType": "address",
          "name": "owner",
          "type": "address"
        }
      ],
      "name": "balanceOf",
      "outputs": [
        {
          "internalType": "uint256",
          "name": "",
          "type": "uint256"
        }
      ],
      "stateMutability": "view",
      "type": "function"
    },
    {
      "inputs": [
        {
          "internalType": "uint256",
          "name": "tokenId",
          "type": "uint256"
        }
      ],
      "name": "exists",
      "outputs": [
        {
          "internalType": "bool",
          "name": "",
          "type": "bool"
        }
      ],
      "stateMutability": "view",
      "type": "function"
    },
    {
      "inputs": [
        {
          "internalType": "uint256",
          "name": "tokenId",
          "type": "uint256"
        }
      ],
      "name": "getApproved",
      "outputs": [
        {
          "internalType": "address",
          "name": "",
          "type": "address"
        }
      ],
      "stateMutability": "view",
      "type": "function"
    },
    {
      "inputs": [
        {
          "internalType": "address",
          "name": "dpidRegistry",
          "type": "address"
        },
        {
          "components": [
            {
              "internalType": "address",
              "name": "from",
              "type": "address"
            },
            {
              "internalType": "uint256",
              "name": "uuid",
              "type": "uint256"
            },
            {
              "internalType": "bytes",
              "name": "cid",
              "type": "bytes"
            },
            {
              "internalType": "uint256",
              "name": "timestamp",
              "type": "uint256"
            },
            {
              "internalType": "uint256",
              "name": "dpid",
              "type": "uint256"
            }
          ],
          "internalType": "struct MigrationData[]",
          "name": "importData",
          "type": "tuple[]"
        },
        {
          "internalType": "bytes32",
          "name": "defaultPrefix",
          "type": "bytes32"
        }
      ],
      "name": "initialize",
      "outputs": [],
      "stateMutability": "nonpayable",
      "type": "function"
    },
    {
      "inputs": [
        {
          "internalType": "address",
          "name": "owner",
          "type": "address"
        },
        {
          "internalType": "address",
          "name": "operator",
          "type": "address"
        }
      ],
      "name": "isApprovedForAll",
      "outputs": [
        {
          "internalType": "bool",
          "name": "",
          "type": "bool"
        }
      ],
      "stateMutability": "view",
      "type": "function"
    },
    {
      "inputs": [
        {
          "internalType": "uint256",
          "name": "uuid",
          "type": "uint256"
        },
        {
          "internalType": "bytes",
          "name": "cid",
          "type": "bytes"
        }
      ],
      "name": "mint",
      "outputs": [],
      "stateMutability": "nonpayable",
      "type": "function"
    },
    {
      "inputs": [
        {
          "internalType": "uint256",
          "name": "uuid",
          "type": "uint256"
        },
        {
          "internalType": "bytes",
          "name": "cid",
          "type": "bytes"
        },
        {
          "internalType": "bytes32",
          "name": "prefix",
          "type": "bytes32"
        },
        {
          "internalType": "uint256",
          "name": "expectedDpid",
          "type": "uint256"
        }
      ],
      "name": "mintWithDpid",
      "outputs": [],
      "stateMutability": "payable",
      "type": "function"
    },
    {
      "inputs": [],
      "name": "name",
      "outputs": [
        {
          "internalType": "string",
          "name": "",
          "type": "string"
        }
      ],
      "stateMutability": "view",
      "type": "function"
    },
    {
      "inputs": [],
      "name": "owner",
      "outputs": [
        {
          "internalType": "address",
          "name": "",
          "type": "address"
        }
      ],
      "stateMutability": "view",
      "type": "function"
    },
    {
      "inputs": [
        {
          "internalType": "uint256",
          "name": "tokenId",
          "type": "uint256"
        }
      ],
      "name": "ownerOf",
      "outputs": [
        {
          "internalType": "address",
          "name": "",
          "type": "address"
        }
      ],
      "stateMutability": "view",
      "type": "function"
    },
    {
      "inputs": [],
      "name": "renounceOwnership",
      "outputs": [],
      "stateMutability": "nonpayable",
      "type": "function"
    },
    {
      "inputs": [
        {
          "internalType": "address",
          "name": "from",
          "type": "address"
        },
        {
          "internalType": "address",
          "name": "to",
          "type": "address"
        },
        {
          "internalType": "uint256",
          "name": "tokenId",
          "type": "uint256"
        }
      ],
      "name": "safeTransferFrom",
      "outputs": [],
      "stateMutability": "nonpayable",
      "type": "function"
    },
    {
      "inputs": [
        {
          "internalType": "address",
          "name": "from",
          "type": "address"
        },
        {
          "internalType": "address",
          "name": "to",
          "type": "address"
        },
        {
          "internalType": "uint256",
          "name": "tokenId",
          "type": "uint256"
        },
        {
          "internalType": "bytes",
          "name": "data",
          "type": "bytes"
        }
      ],
      "name": "safeTransferFrom",
      "outputs": [],
      "stateMutability": "nonpayable",
      "type": "function"
    },
    {
      "inputs": [
        {
          "internalType": "address",
          "name": "operator",
          "type": "address"
        },
        {
          "internalType": "bool",
          "name": "approved",
          "type": "bool"
        }
      ],
      "name": "setApprovalForAll",
      "outputs": [],
      "stateMutability": "nonpayable",
      "type": "function"
    },
    {
      "inputs": [
        {
          "internalType": "address",
          "name": "dpidRegistry",
          "type": "address"
        }
      ],
      "name": "setRegistry",
      "outputs": [],
      "stateMutability": "nonpayable",
      "type": "function"
    },
    {
      "inputs": [
        {
          "internalType": "string",
          "name": "uri",
          "type": "string"
        }
      ],
      "name": "setURI",
      "outputs": [],
      "stateMutability": "nonpayable",
      "type": "function"
    },
    {
      "inputs": [
        {
          "internalType": "bytes4",
          "name": "interfaceId",
          "type": "bytes4"
        }
      ],
      "name": "supportsInterface",
      "outputs": [
        {
          "internalType": "bool",
          "name": "",
          "type": "bool"
        }
      ],
      "stateMutability": "view",
      "type": "function"
    },
    {
      "inputs": [],
      "name": "symbol",
      "outputs": [
        {
          "internalType": "string",
          "name": "",
          "type": "string"
        }
      ],
      "stateMutability": "view",
      "type": "function"
    },
    {
      "inputs": [
        {
          "internalType": "uint256",
          "name": "tokenId",
          "type": "uint256"
        }
      ],
      "name": "tokenURI",
      "outputs": [
        {
          "internalType": "string",
          "name": "",
          "type": "string"
        }
      ],
      "stateMutability": "view",
      "type": "function"
    },
    {
      "inputs": [
        {
          "internalType": "address",
          "name": "from",
          "type": "address"
        },
        {
          "internalType": "address",
          "name": "to",
          "type": "address"
        },
        {
          "internalType": "uint256",
          "name": "tokenId",
          "type": "uint256"
        }
      ],
      "name": "transferFrom",
      "outputs": [],
      "stateMutability": "nonpayable",
      "type": "function"
    },
    {
      "inputs": [
        {
          "internalType": "address",
          "name": "newOwner",
          "type": "address"
        }
      ],
      "name": "transferOwnership",
      "outputs": [],
      "stateMutability": "nonpayable",
      "type": "function"
    },
    {
      "inputs": [
        {
          "internalType": "uint256",
          "name": "tokenId",
          "type": "uint256"
        },
        {
          "internalType": "bytes",
          "name": "cid",
          "type": "bytes"
        }
      ],
      "name": "updateMetadata",
      "outputs": [],
      "stateMutability": "nonpayable",
      "type": "function"
    }
  ],
  "bytecode": "0x60806040523480156200001157600080fd5b50620000226200003860201b60201c565b620000326200003860201b60201c565b620001e3565b600060019054906101000a900460ff16156200008b576040517f08c379a0000000000000000000000000000000000000000000000000000000008152600401620000829062000137565b60405180910390fd5b60ff801660008054906101000a900460ff1660ff161015620000fd5760ff6000806101000a81548160ff021916908360ff1602179055507f7f26b83ff96e1f2b6a682f133852f6798a09c465da95921460cefb384740249860ff604051620000f4919062000159565b60405180910390a15b565b60006200010e60278362000176565b91506200011b8262000194565b604082019050919050565b620001318162000187565b82525050565b600060208201905081810360008301526200015281620000ff565b9050919050565b600060208201905062000170600083018462000126565b92915050565b600082825260208201905092915050565b600060ff82169050919050565b7f496e697469616c697a61626c653a20636f6e747261637420697320696e69746960008201527f616c697a696e6700000000000000000000000000000000000000000000000000602082015250565b61420f80620001f36000396000f3fe60806040526004361061019c5760003560e01c8063715018a6116100ec578063b88d4fde1161008a578063db7fd40811610064578063db7fd408146105c5578063e985e9c5146105ee578063f2fde38b1461062b578063ffe77b0f146106545761019c565b8063b88d4fde14610543578063c87b56dd1461056c578063c88efd15146105a95761019c565b80639a7fad40116100c65780639a7fad401461049f578063a22cb465146104c8578063a91ee0dc146104f1578063af3ba9c11461051a5761019c565b8063715018a6146104325780638da5cb5b1461044957806395d89b41146104745761019c565b806323b872dd116101595780634f558e79116101335780634f558e79146103525780636352211e1461038f5780636d804938146103cc57806370a08231146103f55761019c565b806323b872dd146102d55780633dcd3236146102fe57806342842e0e146103295761019c565b806301ffc9a7146101a157806302fe5305146101de57806306fdde0314610207578063081812fc14610232578063095ea7b31461026f57806313859f4614610298575b600080fd5b3480156101ad57600080fd5b506101c860048036038101906101c39190612f34565b61067d565b6040516101d591906135a0565b60405180910390f35b3480156101ea57600080fd5b5061020560048036038101906102009190612f86565b61075f565b005b34801561021357600080fd5b5061021c610781565b6040516102299190613651565b60405180910390f35b34801561023e57600080fd5b5061025960048036038101906102549190613033565b610813565b6040516102669190613539565b60405180910390f35b34801561027b57600080fd5b5061029660048036038101906102919190612ef8565b610859565b005b3480156102a457600080fd5b506102bf60048036038101906102ba9190613033565b610971565b6040516102cc91906135e4565b60405180910390f35b3480156102e157600080fd5b506102fc60048036038101906102f79190612d8b565b610a11565b005b34801561030a57600080fd5b50610313610a71565b6040516103209190613539565b60405180910390f35b34801561033557600080fd5b50610350600480360381019061034b9190612d8b565b610a97565b005b34801561035e57600080fd5b5061037960048036038101906103749190613033565b610ab7565b60405161038691906135a0565b60405180910390f35b34801561039b57600080fd5b506103b660048036038101906103b19190613033565b610ac9565b6040516103c39190613539565b60405180910390f35b3480156103d857600080fd5b506103f360048036038101906103ee9190612e55565b610b7b565b005b34801561040157600080fd5b5061041c60048036038101906104179190612d26565b610d8e565b60405161042991906138b3565b60405180910390f35b34801561043e57600080fd5b50610447610e46565b005b34801561045557600080fd5b5061045e610e5a565b60405161046b9190613539565b60405180910390f35b34801561048057600080fd5b50610489610e84565b6040516104969190613651565b60405180910390f35b3480156104ab57600080fd5b506104c660048036038101906104c1919061315d565b610f16565b005b3480156104d457600080fd5b506104ef60048036038101906104ea9190612ebc565b611034565b005b3480156104fd57600080fd5b5061051860048036038101906105139190612d26565b61104a565b005b34801561052657600080fd5b50610541600480360381019061053c9190612fc7565b611096565b005b34801561054f57600080fd5b5061056a60048036038101906105659190612dda565b6110f3565b005b34801561057857600080fd5b50610593600480360381019061058e9190613033565b611155565b6040516105a09190613651565b60405180910390f35b6105c360048036038101906105be91906130dd565b6111bd565b005b3480156105d157600080fd5b506105ec60048036038101906105e79190613085565b6112cc565b005b3480156105fa57600080fd5b5061061560048036038101906106109190612d4f565b61133c565b60405161062291906135a0565b60405180910390f35b34801561063757600080fd5b50610652600480360381019061064d9190612d26565b6113d0565b005b34801561066057600080fd5b5061067b60048036038101906106769190612d26565b611454565b005b60007f80ac58cd000000000000000000000000000000000000000000000000000000007bffffffffffffffffffffffffffffffffffffffffffffffffffffffff1916827bffffffffffffffffffffffffffffffffffffffffffffffffffffffff1916148061074857507f5b5e139f000000000000000000000000000000000000000000000000000000007bffffffffffffffffffffffffffffffffffffffffffffffffffffffff1916827bffffffffffffffffffffffffffffffffffffffffffffffffffffffff1916145b80610758575061075782611648565b5b9050919050565b6107676116b2565b8060ca908051906020019061077d929190612900565b5050565b60606065805461079090613b5e565b80601f01602080910402602001604051908101604052809291908181526020018280546107bc90613b5e565b80156108095780601f106107de57610100808354040283529160200191610809565b820191906000526020600020905b8154815290600101906020018083116107ec57829003601f168201915b5050505050905090565b600061081e82611730565b6069600083815260200190815260200160002060009054906101000a900473ffffffffffffffffffffffffffffffffffffffff169050919050565b600061086482610ac9565b90508073ffffffffffffffffffffffffffffffffffffffff168373ffffffffffffffffffffffffffffffffffffffff1614156108d5576040517f08c379a00000000000000000000000000000000000000000000000000000000081526004016108cc90613853565b60405180910390fd5b8073ffffffffffffffffffffffffffffffffffffffff166108f461177b565b73ffffffffffffffffffffffffffffffffffffffff16148061092357506109228161091d61177b565b61133c565b5b610962576040517f08c379a0000000000000000000000000000000000000000000000000000000008152600401610959906137b3565b60405180910390fd5b61096c8383611783565b505050565b6097602052806000526040600020600091509050805461099090613b5e565b80601f01602080910402602001604051908101604052809291908181526020018280546109bc90613b5e565b8015610a095780601f106109de57610100808354040283529160200191610a09565b820191906000526020600020905b8154815290600101906020018083116109ec57829003601f168201915b505050505081565b610a22610a1c61177b565b8261183c565b610a61576040517f08c379a0000000000000000000000000000000000000000000000000000000008152600401610a5890613893565b60405180910390fd5b610a6c8383836118d1565b505050565b60cb60009054906101000a900473ffffffffffffffffffffffffffffffffffffffff1681565b610ab2838383604051806020016040528060008152506110f3565b505050565b6000610ac282611b38565b9050919050565b6000806067600084815260200190815260200160002060009054906101000a900473ffffffffffffffffffffffffffffffffffffffff169050600073ffffffffffffffffffffffffffffffffffffffff168173ffffffffffffffffffffffffffffffffffffffff161415610b72576040517f08c379a0000000000000000000000000000000000000000000000000000000008152600401610b6990613833565b60405180910390fd5b80915050919050565b60008060019054906101000a900460ff16159050808015610bac5750600160008054906101000a900460ff1660ff16105b80610bd95750610bbb30611ba4565b158015610bd85750600160008054906101000a900460ff1660ff16145b5b610c18576040517f08c379a0000000000000000000000000000000000000000000000000000000008152600401610c0f90613793565b60405180910390fd5b60016000806101000a81548160ff021916908360ff1602179055508015610c55576001600060016101000a81548160ff0219169083151502179055505b610c5e84611454565b610c66611bc7565b8360cb60006101000a81548173ffffffffffffffffffffffffffffffffffffffff021916908373ffffffffffffffffffffffffffffffffffffffff16021790555060005b8351811015610d2e576000848281518110610cee577f4e487b7100000000000000000000000000000000000000000000000000000000600052603260045260246000fd5b60200260200101519050610d1a8160200151826040015186846080015185606001518660000151611c20565b508080610d2690613bc1565b915050610caa565b508015610d885760008060016101000a81548160ff0219169083151502179055507f7f26b83ff96e1f2b6a682f133852f6798a09c465da95921460cefb38474024986001604051610d7f9190613636565b60405180910390a15b50505050565b60008073ffffffffffffffffffffffffffffffffffffffff168273ffffffffffffffffffffffffffffffffffffffff161415610dff576040517f08c379a0000000000000000000000000000000000000000000000000000000008152600401610df690613773565b60405180910390fd5b606860008373ffffffffffffffffffffffffffffffffffffffff1673ffffffffffffffffffffffffffffffffffffffff168152602001908152602001600020549050919050565b610e4e6116b2565b610e586000611e90565b565b6000609860009054906101000a900473ffffffffffffffffffffffffffffffffffffffff16905090565b606060668054610e9390613b5e565b80601f0160208091040260200160405190810160405280929190818152602001828054610ebf90613b5e565b8015610f0c5780601f10610ee157610100808354040283529160200191610f0c565b820191906000526020600020905b815481529060010190602001808311610eef57829003601f168201915b5050505050905090565b816000610f2161177b565b905060008173ffffffffffffffffffffffffffffffffffffffff16610f4584610ac9565b73ffffffffffffffffffffffffffffffffffffffff161480610f6d5750610f6c828461183c565b5b905080610faf576040517f08c379a0000000000000000000000000000000000000000000000000000000008152600401610fa6906137f3565b60405180910390fd5b83609760008781526020019081526020016000209080519060200190610fd6929190612986565b5084610fe061177b565b73ffffffffffffffffffffffffffffffffffffffff167fabddf73bfc8efbf8287a09ea355e43cf6c0c22880ce0470affeba5271c0a76948660405161102591906135e4565b60405180910390a35050505050565b61104661103f61177b565b8383611f56565b5050565b6110526116b2565b8060cb60006101000a81548173ffffffffffffffffffffffffffffffffffffffff021916908373ffffffffffffffffffffffffffffffffffffffff16021790555050565b600060019054906101000a900460ff166110e5576040517f08c379a00000000000000000000000000000000000000000000000000000000081526004016110dc90613873565b60405180910390fd5b6110ef82826120c3565b5050565b6111046110fe61177b565b8361183c565b611143576040517f08c379a000000000000000000000000000000000000000000000000000000000815260040161113a90613893565b60405180910390fd5b61114f84848484612120565b50505050565b606061116082611730565b600061116a61217c565b9050600081511161118a57604051806020016040528060008152506111b5565b806111948461220e565b6040516020016111a5929190613515565b6040516020818303038152906040525b915050919050565b600060cb60009054906101000a900473ffffffffffffffffffffffffffffffffffffffff16905060008173ffffffffffffffffffffffffffffffffffffffff1663da4a984234868a6040518463ffffffff1660e01b81526004016112229291906135bb565b6020604051808303818588803b15801561123b57600080fd5b505af115801561124f573d6000803e3d6000fd5b50505050506040513d601f19601f82011682018060405250810190611274919061305c565b90508083146112b8576040517f08c379a00000000000000000000000000000000000000000000000000000000081526004016112af906136f3565b60405180910390fd5b6112c38787876112cc565b50505050505050565b60006112d661177b565b905060008490506112e782826123bb565b6113358585858080601f016020809104026020016040519081016040528093929190818152602001838380828437600081840152601f19601f82011690508083019250505050505050610f16565b5050505050565b6000606a60008473ffffffffffffffffffffffffffffffffffffffff1673ffffffffffffffffffffffffffffffffffffffff16815260200190815260200160002060008373ffffffffffffffffffffffffffffffffffffffff1673ffffffffffffffffffffffffffffffffffffffff16815260200190815260200160002060009054906101000a900460ff16905092915050565b6113d86116b2565b600073ffffffffffffffffffffffffffffffffffffffff168173ffffffffffffffffffffffffffffffffffffffff161415611448576040517f08c379a000000000000000000000000000000000000000000000000000000000815260040161143f90613693565b60405180910390fd5b61145181611e90565b50565b60008060019054906101000a900460ff161590508080156114855750600160008054906101000a900460ff1660ff16105b806114b2575061149430611ba4565b1580156114b15750600160008054906101000a900460ff1660ff16145b5b6114f1576040517f08c379a00000000000000000000000000000000000000000000000000000000081526004016114e890613793565b60405180910390fd5b60016000806101000a81548160ff021916908360ff160217905550801561152e576001600060016101000a81548160ff0219169083151502179055505b6115a26040518060400160405280601581526020017f4465536369205265736561726368204f626a65637400000000000000000000008152506040518060400160405280600a81526020017f44655363692d4e6f646500000000000000000000000000000000000000000000815250611096565b6115aa611bc7565b8160cb60006101000a81548173ffffffffffffffffffffffffffffffffffffffff021916908373ffffffffffffffffffffffffffffffffffffffff16021790555080156116445760008060016101000a81548160ff0219169083151502179055507f7f26b83ff96e1f2b6a682f133852f6798a09c465da95921460cefb3847402498600160405161163b9190613636565b60405180910390a15b5050565b60007f01ffc9a7000000000000000000000000000000000000000000000000000000007bffffffffffffffffffffffffffffffffffffffffffffffffffffffff1916827bffffffffffffffffffffffffffffffffffffffffffffffffffffffff1916149050919050565b6116ba61177b565b73ffffffffffffffffffffffffffffffffffffffff166116d8610e5a565b73ffffffffffffffffffffffffffffffffffffffff161461172e576040517f08c379a000000000000000000000000000000000000000000000000000000000815260040161172590613813565b60405180910390fd5b565b61173981611b38565b611778576040517f08c379a000000000000000000000000000000000000000000000000000000000815260040161176f90613833565b60405180910390fd5b50565b600033905090565b816069600083815260200190815260200160002060006101000a81548173ffffffffffffffffffffffffffffffffffffffff021916908373ffffffffffffffffffffffffffffffffffffffff160217905550808273ffffffffffffffffffffffffffffffffffffffff166117f683610ac9565b73ffffffffffffffffffffffffffffffffffffffff167f8c5be1e5ebec7d5bd14f71427d1e84f3dd0314c0f7b2291e5b200ac8c7c3b92560405160405180910390a45050565b60008061184883610ac9565b90508073ffffffffffffffffffffffffffffffffffffffff168473ffffffffffffffffffffffffffffffffffffffff16148061188a5750611889818561133c565b5b806118c857508373ffffffffffffffffffffffffffffffffffffffff166118b084610813565b73ffffffffffffffffffffffffffffffffffffffff16145b91505092915050565b8273ffffffffffffffffffffffffffffffffffffffff166118f182610ac9565b73ffffffffffffffffffffffffffffffffffffffff1614611947576040517f08c379a000000000000000000000000000000000000000000000000000000000815260040161193e906136b3565b60405180910390fd5b600073ffffffffffffffffffffffffffffffffffffffff168273ffffffffffffffffffffffffffffffffffffffff1614156119b7576040517f08c379a00000000000000000000000000000000000000000000000000000000081526004016119ae90613713565b60405180910390fd5b6119c28383836123d9565b6119cd600082611783565b6001606860008573ffffffffffffffffffffffffffffffffffffffff1673ffffffffffffffffffffffffffffffffffffffff1681526020019081526020016000206000828254611a1d9190613a4b565b925050819055506001606860008473ffffffffffffffffffffffffffffffffffffffff1673ffffffffffffffffffffffffffffffffffffffff1681526020019081526020016000206000828254611a7491906139c4565b92505081905550816067600083815260200190815260200160002060006101000a81548173ffffffffffffffffffffffffffffffffffffffff021916908373ffffffffffffffffffffffffffffffffffffffff160217905550808273ffffffffffffffffffffffffffffffffffffffff168473ffffffffffffffffffffffffffffffffffffffff167fddf252ad1be2c89b69c2b068fc378daa952ba7f163c4a11628f55a4df523b3ef60405160405180910390a4611b3383838361244d565b505050565b60008073ffffffffffffffffffffffffffffffffffffffff166067600084815260200190815260200160002060009054906101000a900473ffffffffffffffffffffffffffffffffffffffff1673ffffffffffffffffffffffffffffffffffffffff1614159050919050565b6000808273ffffffffffffffffffffffffffffffffffffffff163b119050919050565b600060019054906101000a900460ff16611c16576040517f08c379a0000000000000000000000000000000000000000000000000000000008152600401611c0d90613873565b60405180910390fd5b611c1e612452565b565b600060019054906101000a900460ff16611c6f576040517f08c379a0000000000000000000000000000000000000000000000000000000008152600401611c6690613873565b60405180910390fd5b600060cb60009054906101000a900473ffffffffffffffffffffffffffffffffffffffff16905060008173ffffffffffffffffffffffffffffffffffffffff166318ae19c287876040518363ffffffff1660e01b8152600401611cd39291906135bb565b60206040518083038186803b158015611ceb57600080fd5b505afa158015611cff573d6000803e3d6000fd5b505050506040513d601f19601f82011682018060405250810190611d23919061305c565b9050600083905060008990506000831415611e295760008473ffffffffffffffffffffffffffffffffffffffff1663da4a9842348b8e6040518463ffffffff1660e01b8152600401611d769291906135bb565b6020604051808303818588803b158015611d8f57600080fd5b505af1158015611da3573d6000803e3d6000fd5b50505050506040513d601f19601f82011682018060405250810190611dc8919061305c565b9050808814611e0c576040517f08c379a0000000000000000000000000000000000000000000000000000000008152600401611e03906136f3565b60405180910390fd5b611e1683836123bb565b611e27611e2161177b565b83611783565b505b611e338a8a610f16565b808273ffffffffffffffffffffffffffffffffffffffff167f4c2f0fd1019fdc5963138c1513932ae5dca836a3b35e8bd71a68803dec00ea1d8b89604051611e7c929190613606565b60405180910390a350505050505050505050565b6000609860009054906101000a900473ffffffffffffffffffffffffffffffffffffffff16905081609860006101000a81548173ffffffffffffffffffffffffffffffffffffffff021916908373ffffffffffffffffffffffffffffffffffffffff1602179055508173ffffffffffffffffffffffffffffffffffffffff168173ffffffffffffffffffffffffffffffffffffffff167f8be0079c531659141344cd1fd0a4f28419497f9722a3daafe3b4186f6b6457e060405160405180910390a35050565b8173ffffffffffffffffffffffffffffffffffffffff168373ffffffffffffffffffffffffffffffffffffffff161415611fc5576040517f08c379a0000000000000000000000000000000000000000000000000000000008152600401611fbc90613733565b60405180910390fd5b80606a60008573ffffffffffffffffffffffffffffffffffffffff1673ffffffffffffffffffffffffffffffffffffffff16815260200190815260200160002060008473ffffffffffffffffffffffffffffffffffffffff1673ffffffffffffffffffffffffffffffffffffffff16815260200190815260200160002060006101000a81548160ff0219169083151502179055508173ffffffffffffffffffffffffffffffffffffffff168373ffffffffffffffffffffffffffffffffffffffff167f17307eab39ab6107e8899845ad3d59bd9653f200f220920489ca2b5937696c31836040516120b691906135a0565b60405180910390a3505050565b600060019054906101000a900460ff16612112576040517f08c379a000000000000000000000000000000000000000000000000000000000815260040161210990613873565b60405180910390fd5b61211c82826124b3565b5050565b61212b8484846118d1565b61213784848484612534565b612176576040517f08c379a000000000000000000000000000000000000000000000000000000000815260040161216d90613673565b60405180910390fd5b50505050565b606060ca805461218b90613b5e565b80601f01602080910402602001604051908101604052809291908181526020018280546121b790613b5e565b80156122045780601f106121d957610100808354040283529160200191612204565b820191906000526020600020905b8154815290600101906020018083116121e757829003601f168201915b5050505050905090565b60606000821415612256576040518060400160405280600181526020017f300000000000000000000000000000000000000000000000000000000000000081525090506123b6565b600082905060005b6000821461228857808061227190613bc1565b915050600a826122819190613a1a565b915061225e565b60008167ffffffffffffffff8111156122ca577f4e487b7100000000000000000000000000000000000000000000000000000000600052604160045260246000fd5b6040519080825280601f01601f1916602001820160405280156122fc5781602001600182028036833780820191505090505b5090505b600085146123af576001826123159190613a4b565b9150600a856123249190613c0a565b603061233091906139c4565b60f81b81838151811061236c577f4e487b7100000000000000000000000000000000000000000000000000000000600052603260045260246000fd5b60200101907effffffffffffffffffffffffffffffffffffffffffffffffffffffffffffff1916908160001a905350600a856123a89190613a1a565b9450612300565b8093505050505b919050565b6123d58282604051806020016040528060008152506126cb565b5050565b600073ffffffffffffffffffffffffffffffffffffffff168373ffffffffffffffffffffffffffffffffffffffff1614612448576040517f08c379a000000000000000000000000000000000000000000000000000000000815260040161243f90613753565b60405180910390fd5b505050565b505050565b600060019054906101000a900460ff166124a1576040517f08c379a000000000000000000000000000000000000000000000000000000000815260040161249890613873565b60405180910390fd5b6124b16124ac61177b565b611e90565b565b600060019054906101000a900460ff16612502576040517f08c379a00000000000000000000000000000000000000000000000000000000081526004016124f990613873565b60405180910390fd5b8160659080519060200190612518929190612900565b50806066908051906020019061252f929190612900565b505050565b60006125558473ffffffffffffffffffffffffffffffffffffffff16611ba4565b156126be578373ffffffffffffffffffffffffffffffffffffffff1663150b7a0261257e61177b565b8786866040518563ffffffff1660e01b81526004016125a09493929190613554565b602060405180830381600087803b1580156125ba57600080fd5b505af19250505080156125eb57506040513d601f19601f820116820180604052508101906125e89190612f5d565b60015b61266e573d806000811461261b576040519150601f19603f3d011682016040523d82523d6000602084013e612620565b606091505b50600081511415612666576040517f08c379a000000000000000000000000000000000000000000000000000000000815260040161265d90613673565b60405180910390fd5b805181602001fd5b63150b7a0260e01b7bffffffffffffffffffffffffffffffffffffffffffffffffffffffff1916817bffffffffffffffffffffffffffffffffffffffffffffffffffffffff1916149150506126c3565b600190505b949350505050565b6126d58383612726565b6126e26000848484612534565b612721576040517f08c379a000000000000000000000000000000000000000000000000000000000815260040161271890613673565b60405180910390fd5b505050565b600073ffffffffffffffffffffffffffffffffffffffff168273ffffffffffffffffffffffffffffffffffffffff161415612796576040517f08c379a000000000000000000000000000000000000000000000000000000000815260040161278d906137d3565b60405180910390fd5b61279f81611b38565b156127df576040517f08c379a00000000000000000000000000000000000000000000000000000000081526004016127d6906136d3565b60405180910390fd5b6127eb600083836123d9565b6001606860008473ffffffffffffffffffffffffffffffffffffffff1673ffffffffffffffffffffffffffffffffffffffff168152602001908152602001600020600082825461283b91906139c4565b92505081905550816067600083815260200190815260200160002060006101000a81548173ffffffffffffffffffffffffffffffffffffffff021916908373ffffffffffffffffffffffffffffffffffffffff160217905550808273ffffffffffffffffffffffffffffffffffffffff16600073ffffffffffffffffffffffffffffffffffffffff167fddf252ad1be2c89b69c2b068fc378daa952ba7f163c4a11628f55a4df523b3ef60405160405180910390a46128fc6000838361244d565b5050565b82805461290c90613b5e565b90600052602060002090601f01602090048101928261292e5760008555612975565b82601f1061294757805160ff1916838001178555612975565b82800160010185558215612975579182015b82811115612974578251825591602001919060010190612959565b5b5090506129829190612a0c565b5090565b82805461299290613b5e565b90600052602060002090601f0160209004810192826129b457600085556129fb565b82601f106129cd57805160ff19168380011785556129fb565b828001600101855582156129fb579182015b828111156129fa5782518255916020019190600101906129df565b5b509050612a089190612a0c565b5090565b5b80821115612a25576000816000905550600101612a0d565b5090565b6000612a3c612a37846138f3565b6138ce565b90508083825260208201905082856020860282011115612a5b57600080fd5b60005b85811015612aa557813567ffffffffffffffff811115612a7d57600080fd5b808601612a8a8982612c5c565b85526020850194506020840193505050600181019050612a5e565b5050509392505050565b6000612ac2612abd8461391f565b6138ce565b905082815260208101848484011115612ada57600080fd5b612ae5848285613b1c565b509392505050565b6000612b00612afb84613950565b6138ce565b905082815260208101848484011115612b1857600080fd5b612b23848285613b1c565b509392505050565b600081359050612b3a81614166565b92915050565b600082601f830112612b5157600080fd5b8135612b61848260208601612a29565b91505092915050565b600081359050612b798161417d565b92915050565b600081359050612b8e81614194565b92915050565b600081359050612ba3816141ab565b92915050565b600081519050612bb8816141ab565b92915050565b60008083601f840112612bd057600080fd5b8235905067ffffffffffffffff811115612be957600080fd5b602083019150836001820283011115612c0157600080fd5b9250929050565b600082601f830112612c1957600080fd5b8135612c29848260208601612aaf565b91505092915050565b600082601f830112612c4357600080fd5b8135612c53848260208601612aed565b91505092915050565b600060a08284031215612c6e57600080fd5b612c7860a06138ce565b90506000612c8884828501612b2b565b6000830152506020612c9c84828501612cfc565b602083015250604082013567ffffffffffffffff811115612cbc57600080fd5b612cc884828501612c08565b6040830152506060612cdc84828501612cfc565b6060830152506080612cf084828501612cfc565b60808301525092915050565b600081359050612d0b816141c2565b92915050565b600081519050612d20816141c2565b92915050565b600060208284031215612d3857600080fd5b6000612d4684828501612b2b565b91505092915050565b60008060408385031215612d6257600080fd5b6000612d7085828601612b2b565b9250506020612d8185828601612b2b565b9150509250929050565b600080600060608486031215612da057600080fd5b6000612dae86828701612b2b565b9350506020612dbf86828701612b2b565b9250506040612dd086828701612cfc565b9150509250925092565b60008060008060808587031215612df057600080fd5b6000612dfe87828801612b2b565b9450506020612e0f87828801612b2b565b9350506040612e2087828801612cfc565b925050606085013567ffffffffffffffff811115612e3d57600080fd5b612e4987828801612c08565b91505092959194509250565b600080600060608486031215612e6a57600080fd5b6000612e7886828701612b2b565b935050602084013567ffffffffffffffff811115612e9557600080fd5b612ea186828701612b40565b9250506040612eb286828701612b7f565b9150509250925092565b60008060408385031215612ecf57600080fd5b6000612edd85828601612b2b565b9250506020612eee85828601612b6a565b9150509250929050565b60008060408385031215612f0b57600080fd5b6000612f1985828601612b2b565b9250506020612f2a85828601612cfc565b9150509250929050565b600060208284031215612f4657600080fd5b6000612f5484828501612b94565b91505092915050565b600060208284031215612f6f57600080fd5b6000612f7d84828501612ba9565b91505092915050565b600060208284031215612f9857600080fd5b600082013567ffffffffffffffff811115612fb257600080fd5b612fbe84828501612c32565b91505092915050565b60008060408385031215612fda57600080fd5b600083013567ffffffffffffffff811115612ff457600080fd5b61300085828601612c32565b925050602083013567ffffffffffffffff81111561301d57600080fd5b61302985828601612c32565b9150509250929050565b60006020828403121561304557600080fd5b600061305384828501612cfc565b91505092915050565b60006020828403121561306e57600080fd5b600061307c84828501612d11565b91505092915050565b60008060006040848603121561309a57600080fd5b60006130a886828701612cfc565b935050602084013567ffffffffffffffff8111156130c557600080fd5b6130d186828701612bbe565b92509250509250925092565b6000806000806000608086880312156130f557600080fd5b600061310388828901612cfc565b955050602086013567ffffffffffffffff81111561312057600080fd5b61312c88828901612bbe565b9450945050604061313f88828901612b7f565b925050606061315088828901612cfc565b9150509295509295909350565b6000806040838503121561317057600080fd5b600061317e85828601612cfc565b925050602083013567ffffffffffffffff81111561319b57600080fd5b6131a785828601612c08565b9150509250929050565b6131ba81613a7f565b82525050565b6131c981613a91565b82525050565b6131d881613a9d565b82525050565b60006131e982613981565b6131f38185613997565b9350613203818560208601613b2b565b61320c81613cf7565b840191505092915050565b61322081613b0a565b82525050565b60006132318261398c565b61323b81856139a8565b935061324b818560208601613b2b565b61325481613cf7565b840191505092915050565b600061326a8261398c565b61327481856139b9565b9350613284818560208601613b2b565b80840191505092915050565b600061329d6032836139a8565b91506132a882613d08565b604082019050919050565b60006132c06026836139a8565b91506132cb82613d57565b604082019050919050565b60006132e36025836139a8565b91506132ee82613da6565b604082019050919050565b6000613306601c836139a8565b915061331182613df5565b602082019050919050565b6000613329600f836139a8565b915061333482613e1e565b602082019050919050565b600061334c6024836139a8565b915061335782613e47565b604082019050919050565b600061336f6019836139a8565b915061337a82613e96565b602082019050919050565b6000613392600b836139a8565b915061339d82613ebf565b602082019050919050565b60006133b56029836139a8565b91506133c082613ee8565b604082019050919050565b60006133d8602e836139a8565b91506133e382613f37565b604082019050919050565b60006133fb603e836139a8565b915061340682613f86565b604082019050919050565b600061341e6020836139a8565b915061342982613fd5565b602082019050919050565b6000613441600d836139a8565b915061344c82613ffe565b602082019050919050565b60006134646020836139a8565b915061346f82614027565b602082019050919050565b60006134876018836139a8565b915061349282614050565b602082019050919050565b60006134aa6021836139a8565b91506134b582614079565b604082019050919050565b60006134cd602b836139a8565b91506134d8826140c8565b604082019050919050565b60006134f0602e836139a8565b91506134fb82614117565b604082019050919050565b61350f81613af3565b82525050565b6000613521828561325f565b915061352d828461325f565b91508190509392505050565b600060208201905061354e60008301846131b1565b92915050565b600060808201905061356960008301876131b1565b61357660208301866131b1565b6135836040830185613506565b818103606083015261359581846131de565b905095945050505050565b60006020820190506135b560008301846131c0565b92915050565b60006040820190506135d060008301856131cf565b6135dd6020830184613506565b9392505050565b600060208201905081810360008301526135fe81846131de565b905092915050565b6000604082019050818103600083015261362081856131de565b905061362f6020830184613506565b9392505050565b600060208201905061364b6000830184613217565b92915050565b6000602082019050818103600083015261366b8184613226565b905092915050565b6000602082019050818103600083015261368c81613290565b9050919050565b600060208201905081810360008301526136ac816132b3565b9050919050565b600060208201905081810360008301526136cc816132d6565b9050919050565b600060208201905081810360008301526136ec816132f9565b9050919050565b6000602082019050818103600083015261370c8161331c565b9050919050565b6000602082019050818103600083015261372c8161333f565b9050919050565b6000602082019050818103600083015261374c81613362565b9050919050565b6000602082019050818103600083015261376c81613385565b9050919050565b6000602082019050818103600083015261378c816133a8565b9050919050565b600060208201905081810360008301526137ac816133cb565b9050919050565b600060208201905081810360008301526137cc816133ee565b9050919050565b600060208201905081810360008301526137ec81613411565b9050919050565b6000602082019050818103600083015261380c81613434565b9050919050565b6000602082019050818103600083015261382c81613457565b9050919050565b6000602082019050818103600083015261384c8161347a565b9050919050565b6000602082019050818103600083015261386c8161349d565b9050919050565b6000602082019050818103600083015261388c816134c0565b9050919050565b600060208201905081810360008301526138ac816134e3565b9050919050565b60006020820190506138c86000830184613506565b92915050565b60006138d86138e9565b90506138e48282613b90565b919050565b6000604051905090565b600067ffffffffffffffff82111561390e5761390d613cc8565b5b602082029050602081019050919050565b600067ffffffffffffffff82111561393a57613939613cc8565b5b61394382613cf7565b9050602081019050919050565b600067ffffffffffffffff82111561396b5761396a613cc8565b5b61397482613cf7565b9050602081019050919050565b600081519050919050565b600081519050919050565b600082825260208201905092915050565b600082825260208201905092915050565b600081905092915050565b60006139cf82613af3565b91506139da83613af3565b9250827fffffffffffffffffffffffffffffffffffffffffffffffffffffffffffffffff03821115613a0f57613a0e613c3b565b5b828201905092915050565b6000613a2582613af3565b9150613a3083613af3565b925082613a4057613a3f613c6a565b5b828204905092915050565b6000613a5682613af3565b9150613a6183613af3565b925082821015613a7457613a73613c3b565b5b828203905092915050565b6000613a8a82613ad3565b9050919050565b60008115159050919050565b6000819050919050565b60007fffffffff0000000000000000000000000000000000000000000000000000000082169050919050565b600073ffffffffffffffffffffffffffffffffffffffff82169050919050565b6000819050919050565b600060ff82169050919050565b6000613b1582613afd565b9050919050565b82818337600083830152505050565b60005b83811015613b49578082015181840152602081019050613b2e565b83811115613b58576000848401525b50505050565b60006002820490506001821680613b7657607f821691505b60208210811415613b8a57613b89613c99565b5b50919050565b613b9982613cf7565b810181811067ffffffffffffffff82111715613bb857613bb7613cc8565b5b80604052505050565b6000613bcc82613af3565b91507fffffffffffffffffffffffffffffffffffffffffffffffffffffffffffffffff821415613bff57613bfe613c3b565b5b600182019050919050565b6000613c1582613af3565b9150613c2083613af3565b925082613c3057613c2f613c6a565b5b828206905092915050565b7f4e487b7100000000000000000000000000000000000000000000000000000000600052601160045260246000fd5b7f4e487b7100000000000000000000000000000000000000000000000000000000600052601260045260246000fd5b7f4e487b7100000000000000000000000000000000000000000000000000000000600052602260045260246000fd5b7f4e487b7100000000000000000000000000000000000000000000000000000000600052604160045260246000fd5b6000601f19601f8301169050919050565b7f4552433732313a207472616e7366657220746f206e6f6e20455243373231526560008201527f63656976657220696d706c656d656e7465720000000000000000000000000000602082015250565b7f4f776e61626c653a206e6577206f776e657220697320746865207a65726f206160008201527f6464726573730000000000000000000000000000000000000000000000000000602082015250565b7f4552433732313a207472616e736665722066726f6d20696e636f72726563742060008201527f6f776e6572000000000000000000000000000000000000000000000000000000602082015250565b7f4552433732313a20746f6b656e20616c7265616479206d696e74656400000000600082015250565b7f556e657870656374656420645049440000000000000000000000000000000000600082015250565b7f4552433732313a207472616e7366657220746f20746865207a65726f2061646460008201527f7265737300000000000000000000000000000000000000000000000000000000602082015250565b7f4552433732313a20617070726f766520746f2063616c6c657200000000000000600082015250565b7f6e6f207472616e73666572000000000000000000000000000000000000000000600082015250565b7f4552433732313a2061646472657373207a65726f206973206e6f74206120766160008201527f6c6964206f776e65720000000000000000000000000000000000000000000000602082015250565b7f496e697469616c697a61626c653a20636f6e747261637420697320616c72656160008201527f647920696e697469616c697a6564000000000000000000000000000000000000602082015250565b7f4552433732313a20617070726f76652063616c6c6572206973206e6f7420746f60008201527f6b656e206f776e6572206e6f7220617070726f76656420666f7220616c6c0000602082015250565b7f4552433732313a206d696e7420746f20746865207a65726f2061646472657373600082015250565b7f4e6f207065726d697373696f6e00000000000000000000000000000000000000600082015250565b7f4f776e61626c653a2063616c6c6572206973206e6f7420746865206f776e6572600082015250565b7f4552433732313a20696e76616c696420746f6b656e2049440000000000000000600082015250565b7f4552433732313a20617070726f76616c20746f2063757272656e74206f776e6560008201527f7200000000000000000000000000000000000000000000000000000000000000602082015250565b7f496e697469616c697a61626c653a20636f6e7472616374206973206e6f74206960008201527f6e697469616c697a696e67000000000000000000000000000000000000000000602082015250565b7f4552433732313a2063616c6c6572206973206e6f7420746f6b656e206f776e6560008201527f72206e6f7220617070726f766564000000000000000000000000000000000000602082015250565b61416f81613a7f565b811461417a57600080fd5b50565b61418681613a91565b811461419157600080fd5b50565b61419d81613a9d565b81146141a857600080fd5b50565b6141b481613aa7565b81146141bf57600080fd5b50565b6141cb81613af3565b81146141d657600080fd5b5056fea2646970667358221220b4a6657d771c2b33dbbe5065cd3cb44ab0a50db65e4cf3bd36180cfa9d94582064736f6c63430008040033",
  "linkReferences": {},
  "deployedLinkReferences": {}
}