{
  "_format": "hh-sol-artifact-1",
  "contractName": "Paymaster",
  "sourceName": "contracts/Paymaster.sol",
  "abi": [
    {
      "anonymous": false,
      "inputs": [
        {
          "indexed": true,
          "internalType": "address",
          "name": "previousOwner",
          "type": "address"
        },
        {
          "indexed": true,
          "internalType": "address",
          "name": "newOwner",
          "type": "address"
        }
      ],
      "name": "OwnershipTransferred",
      "type": "event"
    },
    {
      "anonymous": false,
      "inputs": [
        {
          "indexed": true,
          "internalType": "address",
          "name": "target",
          "type": "address"
        }
      ],
      "name": "TargetAdded",
      "type": "event"
    },
    {
      "inputs": [],
      "name": "CALLDATA_SIZE_LIMIT",
      "outputs": [
        {
          "internalType": "uint256",
          "name": "",
          "type": "uint256"
        }
      ],
      "stateMutability": "view",
      "type": "function"
    },
    {
      "inputs": [],
      "name": "FORWARDER_HUB_OVERHEAD",
      "outputs": [
        {
          "internalType": "uint256",
          "name": "",
          "type": "uint256"
        }
      ],
      "stateMutability": "view",
      "type": "function"
    },
    {
      "inputs": [],
      "name": "PAYMASTER_ACCEPTANCE_BUDGET",
      "outputs": [
        {
          "internalType": "uint256",
          "name": "",
          "type": "uint256"
        }
      ],
      "stateMutability": "view",
      "type": "function"
    },
    {
      "inputs": [],
      "name": "POST_RELAYED_CALL_GAS_LIMIT",
      "outputs": [
        {
          "internalType": "uint256",
          "name": "",
          "type": "uint256"
        }
      ],
      "stateMutability": "view",
      "type": "function"
    },
    {
      "inputs": [],
      "name": "PRE_RELAYED_CALL_GAS_LIMIT",
      "outputs": [
        {
          "internalType": "uint256",
          "name": "",
          "type": "uint256"
        }
      ],
      "stateMutability": "view",
      "type": "function"
    },
    {
      "inputs": [
        {
          "internalType": "address[]",
          "name": "_targets",
          "type": "address[]"
        }
      ],
      "name": "addTargets",
      "outputs": [],
      "stateMutability": "nonpayable",
      "type": "function"
    },
    {
      "inputs": [],
      "name": "deposit",
      "outputs": [],
      "stateMutability": "payable",
      "type": "function"
    },
    {
      "inputs": [],
      "name": "getGasAndDataLimits",
      "outputs": [
        {
          "components": [
            {
              "internalType": "uint256",
              "name": "acceptanceBudget",
              "type": "uint256"
            },
            {
              "internalType": "uint256",
              "name": "preRelayedCallGasLimit",
              "type": "uint256"
            },
            {
              "internalType": "uint256",
              "name": "postRelayedCallGasLimit",
              "type": "uint256"
            },
            {
              "internalType": "uint256",
              "name": "calldataSizeLimit",
              "type": "uint256"
            }
          ],
          "internalType": "struct IPaymaster.GasAndDataLimits",
          "name": "limits",
          "type": "tuple"
        }
      ],
      "stateMutability": "view",
      "type": "function"
    },
    {
      "inputs": [],
      "name": "getRelayHub",
      "outputs": [
        {
          "internalType": "address",
          "name": "",
          "type": "address"
        }
      ],
      "stateMutability": "view",
      "type": "function"
    },
    {
      "inputs": [],
      "name": "getTrustedForwarder",
      "outputs": [
        {
          "internalType": "address",
          "name": "",
          "type": "address"
        }
      ],
      "stateMutability": "view",
      "type": "function"
    },
    {
      "inputs": [],
      "name": "owner",
      "outputs": [
        {
          "internalType": "address",
          "name": "",
          "type": "address"
        }
      ],
      "stateMutability": "view",
      "type": "function"
    },
    {
      "inputs": [
        {
          "internalType": "bytes",
          "name": "context",
          "type": "bytes"
        },
        {
          "internalType": "bool",
          "name": "success",
          "type": "bool"
        },
        {
          "internalType": "uint256",
          "name": "gasUseWithoutPost",
          "type": "uint256"
        },
        {
          "components": [
            {
              "internalType": "uint256",
              "name": "maxFeePerGas",
              "type": "uint256"
            },
            {
              "internalType": "uint256",
              "name": "maxPriorityFeePerGas",
              "type": "uint256"
            },
            {
              "internalType": "uint256",
              "name": "transactionCalldataGasUsed",
              "type": "uint256"
            },
            {
              "internalType": "address",
              "name": "relayWorker",
              "type": "address"
            },
            {
              "internalType": "address",
              "name": "paymaster",
              "type": "address"
            },
            {
              "internalType": "address",
              "name": "forwarder",
              "type": "address"
            },
            {
              "internalType": "bytes",
              "name": "paymasterData",
              "type": "bytes"
            },
            {
              "internalType": "uint256",
              "name": "clientId",
              "type": "uint256"
            }
          ],
          "internalType": "struct GsnTypes.RelayData",
          "name": "relayData",
          "type": "tuple"
        }
      ],
      "name": "postRelayedCall",
      "outputs": [],
      "stateMutability": "nonpayable",
      "type": "function"
    },
    {
      "inputs": [
        {
          "components": [
            {
              "components": [
                {
                  "internalType": "address",
                  "name": "from",
                  "type": "address"
                },
                {
                  "internalType": "address",
                  "name": "to",
                  "type": "address"
                },
                {
                  "internalType": "uint256",
                  "name": "value",
                  "type": "uint256"
                },
                {
                  "internalType": "uint256",
                  "name": "gas",
                  "type": "uint256"
                },
                {
                  "internalType": "uint256",
                  "name": "nonce",
                  "type": "uint256"
                },
                {
                  "internalType": "bytes",
                  "name": "data",
                  "type": "bytes"
                },
                {
                  "internalType": "uint256",
                  "name": "validUntilTime",
                  "type": "uint256"
                }
              ],
              "internalType": "struct IForwarder.ForwardRequest",
              "name": "request",
              "type": "tuple"
            },
            {
              "components": [
                {
                  "internalType": "uint256",
                  "name": "maxFeePerGas",
                  "type": "uint256"
                },
                {
                  "internalType": "uint256",
                  "name": "maxPriorityFeePerGas",
                  "type": "uint256"
                },
                {
                  "internalType": "uint256",
                  "name": "transactionCalldataGasUsed",
                  "type": "uint256"
                },
                {
                  "internalType": "address",
                  "name": "relayWorker",
                  "type": "address"
                },
                {
                  "internalType": "address",
                  "name": "paymaster",
                  "type": "address"
                },
                {
                  "internalType": "address",
                  "name": "forwarder",
                  "type": "address"
                },
                {
                  "internalType": "bytes",
                  "name": "paymasterData",
                  "type": "bytes"
                },
                {
                  "internalType": "uint256",
                  "name": "clientId",
                  "type": "uint256"
                }
              ],
              "internalType": "struct GsnTypes.RelayData",
              "name": "relayData",
              "type": "tuple"
            }
          ],
          "internalType": "struct GsnTypes.RelayRequest",
          "name": "relayRequest",
          "type": "tuple"
        },
        {
          "internalType": "bytes",
          "name": "signature",
          "type": "bytes"
        },
        {
          "internalType": "bytes",
          "name": "approvalData",
          "type": "bytes"
        },
        {
          "internalType": "uint256",
          "name": "maxPossibleGas",
          "type": "uint256"
        }
      ],
      "name": "preRelayedCall",
      "outputs": [
        {
          "internalType": "bytes",
          "name": "",
          "type": "bytes"
        },
        {
          "internalType": "bool",
          "name": "",
          "type": "bool"
        }
      ],
      "stateMutability": "nonpayable",
      "type": "function"
    },
    {
      "inputs": [
        {
          "internalType": "address[]",
          "name": "_targets",
          "type": "address[]"
        }
      ],
      "name": "removeTargets",
      "outputs": [],
      "stateMutability": "nonpayable",
      "type": "function"
    },
    {
      "inputs": [],
      "name": "renounceOwnership",
      "outputs": [],
      "stateMutability": "nonpayable",
      "type": "function"
    },
    {
      "inputs": [
        {
          "internalType": "contract IRelayHub",
          "name": "hub",
          "type": "address"
        }
      ],
      "name": "setRelayHub",
      "outputs": [],
      "stateMutability": "nonpayable",
      "type": "function"
    },
    {
      "inputs": [
        {
          "internalType": "address",
          "name": "forwarder",
          "type": "address"
        }
      ],
      "name": "setTrustedForwarder",
      "outputs": [],
      "stateMutability": "nonpayable",
      "type": "function"
    },
    {
      "inputs": [
        {
          "internalType": "bytes4",
          "name": "interfaceId",
          "type": "bytes4"
        }
      ],
      "name": "supportsInterface",
      "outputs": [
        {
          "internalType": "bool",
          "name": "",
          "type": "bool"
        }
      ],
      "stateMutability": "view",
      "type": "function"
    },
    {
      "inputs": [
        {
          "internalType": "address",
          "name": "",
          "type": "address"
        }
      ],
      "name": "targets",
      "outputs": [
        {
          "internalType": "bool",
          "name": "",
          "type": "bool"
        }
      ],
      "stateMutability": "view",
      "type": "function"
    },
    {
      "inputs": [
        {
          "internalType": "address",
          "name": "newOwner",
          "type": "address"
        }
      ],
      "name": "transferOwnership",
      "outputs": [],
      "stateMutability": "nonpayable",
      "type": "function"
    },
    {
      "inputs": [],
      "name": "versionPaymaster",
      "outputs": [
        {
          "internalType": "string",
          "name": "",
          "type": "string"
        }
      ],
      "stateMutability": "view",
      "type": "function"
    },
    {
      "inputs": [
        {
          "internalType": "address payable",
          "name": "destination",
          "type": "address"
        }
      ],
      "name": "withdrawAll",
      "outputs": [],
      "stateMutability": "nonpayable",
      "type": "function"
    },
    {
      "inputs": [
        {
          "internalType": "uint256",
          "name": "amount",
          "type": "uint256"
        },
        {
          "internalType": "address payable",
          "name": "target",
          "type": "address"
        }
      ],
      "name": "withdrawRelayHubDepositTo",
      "outputs": [],
      "stateMutability": "nonpayable",
      "type": "function"
    },
    {
      "stateMutability": "payable",
      "type": "receive"
    }
  ],
  "bytecode": "0x60806040523480156200001157600080fd5b5062000032620000266200003860201b60201c565b6200004060201b60201c565b62000104565b600033905090565b60008060009054906101000a900473ffffffffffffffffffffffffffffffffffffffff169050816000806101000a81548173ffffffffffffffffffffffffffffffffffffffff021916908373ffffffffffffffffffffffffffffffffffffffff1602179055508173ffffffffffffffffffffffffffffffffffffffff168173ffffffffffffffffffffffffffffffffffffffff167f8be0079c531659141344cd1fd0a4f28419497f9722a3daafe3b4186f6b6457e060405160405180910390a35050565b61292380620001146000396000f3fe6080604052600436106101435760003560e01c8063921276ea116100b6578063da7422281161006f578063da7422281461053e578063de866db314610567578063df463a6614610590578063f2fde38b146105bb578063f9c002f7146105e4578063fa09e6301461060f57610264565b8063921276ea1461045d578063b039a88f14610488578063b90b41cf146104b3578063bbdaa3c9146104de578063ce1b815f14610509578063d0e30db01461053457610264565b80635c5e3db1116101085780635c5e3db114610373578063715018a61461039e57806376fa01c3146103b55780637bb05264146103de5780637bdf2ec7146104075780638da5cb5b1461043257610264565b8062be5dd41461026957806301ffc9a7146102a75780632409e632146102e45780632d14c4b71461030d578063562c47841461033657610264565b3661026457600073ffffffffffffffffffffffffffffffffffffffff16600160009054906101000a900473ffffffffffffffffffffffffffffffffffffffff1673ffffffffffffffffffffffffffffffffffffffff16036101d9576040517f08c379a00000000000000000000000000000000000000000000000000000000081526004016101d0906117aa565b60405180910390fd5b600160009054906101000a900473ffffffffffffffffffffffffffffffffffffffff1673ffffffffffffffffffffffffffffffffffffffff1663aa67c91934306040518363ffffffff1660e01b8152600401610235919061180b565b6000604051808303818588803b15801561024e57600080fd5b505af1158015610262573d6000803e3d6000fd5b005b600080fd5b34801561027557600080fd5b50610290600480360381019061028b91906118f9565b610638565b60405161029e929190611a67565b60405180910390f35b3480156102b357600080fd5b506102ce60048036038101906102c99190611aef565b610686565b6040516102db9190611b1c565b60405180910390f35b3480156102f057600080fd5b5061030b60048036038101906103069190611ca1565b610768565b005b34801561031957600080fd5b50610334600480360381019061032f9190611d28565b6107ff565b005b34801561034257600080fd5b5061035d60048036038101906103589190611d68565b61089a565b60405161036a9190611b1c565b60405180910390f35b34801561037f57600080fd5b506103886108ba565b6040516103959190611da4565b60405180910390f35b3480156103aa57600080fd5b506103b36108c0565b005b3480156103c157600080fd5b506103dc60048036038101906103d79190611e0b565b6108d4565b005b3480156103ea57600080fd5b5061040560048036038101906104009190611eed565b6108f0565b005b34801561041357600080fd5b5061041c6109c4565b604051610429919061180b565b60405180910390f35b34801561043e57600080fd5b506104476109ee565b604051610454919061180b565b60405180910390f35b34801561046957600080fd5b50610472610a17565b60405161047f9190611f5e565b60405180910390f35b34801561049457600080fd5b5061049d610a37565b6040516104aa9190611fe4565b60405180910390f35b3480156104bf57600080fd5b506104c8610a7d565b6040516104d59190611da4565b60405180910390f35b3480156104ea57600080fd5b506104f3610a83565b6040516105009190611da4565b60405180910390f35b34801561051557600080fd5b5061051e610a8a565b60405161052b919061180b565b60405180910390f35b61053c610ab4565b005b34801561054a57600080fd5b5061056560048036038101906105609190611d68565b610bd5565b005b34801561057357600080fd5b5061058e60048036038101906105899190611ca1565b610ca9565b005b34801561059c57600080fd5b506105a5610df0565b6040516105b29190611da4565b60405180910390f35b3480156105c757600080fd5b506105e260048036038101906105dd9190611d68565b610e04565b005b3480156105f057600080fd5b506105f9610e87565b6040516106069190611da4565b60405180910390f35b34801561061b57600080fd5b5061063660048036038101906106319190611fff565b610e8e565b005b60606000610644610f44565b61064d88610fbb565b6106568861105d565b61065f886110b6565b610669858561111c565b610677888888888888611166565b91509150965096945050505050565b60007fe1ab2dea000000000000000000000000000000000000000000000000000000007bffffffffffffffffffffffffffffffffffffffffffffffffffffffff1916827bffffffffffffffffffffffffffffffffffffffffffffffffffffffff1916148061075157507f0e083076000000000000000000000000000000000000000000000000000000007bffffffffffffffffffffffffffffffffffffffffffffffffffffffff1916827bffffffffffffffffffffffffffffffffffffffffffffffffffffffff1916145b80610761575061076082611239565b5b9050919050565b6107706112a3565b60005b81518110156107fb576000600360008484815181106107955761079461202c565b5b602002602001015173ffffffffffffffffffffffffffffffffffffffff1673ffffffffffffffffffffffffffffffffffffffff16815260200190815260200160002060006101000a81548160ff0219169083151502179055508080600101915050610773565b5050565b6108076112a3565b600160009054906101000a900473ffffffffffffffffffffffffffffffffffffffff1673ffffffffffffffffffffffffffffffffffffffff1663f3fef3a382846040518363ffffffff1660e01b815260040161086492919061206a565b600060405180830381600087803b15801561087e57600080fd5b505af1158015610892573d6000803e3d6000fd5b505050505050565b60036020528060005260406000206000915054906101000a900460ff1681565b61290481565b6108c86112a3565b6108d26000611321565b565b6108dc610f44565b6108e985858585856113e5565b5050505050565b6108f86112a3565b6109417fe9fb30f7000000000000000000000000000000000000000000000000000000008273ffffffffffffffffffffffffffffffffffffffff166113ec90919063ffffffff16565b610980576040517f08c379a0000000000000000000000000000000000000000000000000000000008152600401610977906120df565b60405180910390fd5b80600160006101000a81548173ffffffffffffffffffffffffffffffffffffffff021916908373ffffffffffffffffffffffffffffffffffffffff16021790555050565b6000600160009054906101000a900473ffffffffffffffffffffffffffffffffffffffff16905090565b60008060009054906101000a900473ffffffffffffffffffffffffffffffffffffffff16905090565b60606040518060600160405280602581526020016128c960259139905090565b610a3f611725565b604051806080016040528061c350620186a0610a5b919061212e565b8152602001620186a081526020016201adb08152602001612904815250905090565b61c35081565b6201adb081565b6000600260009054906101000a900473ffffffffffffffffffffffffffffffffffffffff16905090565b600073ffffffffffffffffffffffffffffffffffffffff16600160009054906101000a900473ffffffffffffffffffffffffffffffffffffffff1673ffffffffffffffffffffffffffffffffffffffff1603610b45576040517f08c379a0000000000000000000000000000000000000000000000000000000008152600401610b3c906121ae565b60405180910390fd5b600160009054906101000a900473ffffffffffffffffffffffffffffffffffffffff1673ffffffffffffffffffffffffffffffffffffffff1663aa67c91934306040518363ffffffff1660e01b8152600401610ba1919061180b565b6000604051808303818588803b158015610bba57600080fd5b505af1158015610bce573d6000803e3d6000fd5b5050505050565b610bdd6112a3565b610c267f25e23e64000000000000000000000000000000000000000000000000000000008273ffffffffffffffffffffffffffffffffffffffff166113ec90919063ffffffff16565b610c65576040517f08c379a0000000000000000000000000000000000000000000000000000000008152600401610c5c9061221a565b60405180910390fd5b80600260006101000a81548173ffffffffffffffffffffffffffffffffffffffff021916908373ffffffffffffffffffffffffffffffffffffffff16021790555050565b610cb16112a3565b60005b8151811015610dec57600073ffffffffffffffffffffffffffffffffffffffff16828281518110610ce857610ce761202c565b5b602002602001015173ffffffffffffffffffffffffffffffffffffffff1603610d1057600080fd5b600160036000848481518110610d2957610d2861202c565b5b602002602001015173ffffffffffffffffffffffffffffffffffffffff1673ffffffffffffffffffffffffffffffffffffffff16815260200190815260200160002060006101000a81548160ff021916908315150217905550818181518110610d9557610d9461202c565b5b602002602001015173ffffffffffffffffffffffffffffffffffffffff167f2124916666eafb28928bfe4bad7d911dc792fa4c41427d6b7e28112e992e5a1a60405160405180910390a28080600101915050610cb4565b5050565b61c350620186a0610e01919061212e565b81565b610e0c6112a3565b600073ffffffffffffffffffffffffffffffffffffffff168173ffffffffffffffffffffffffffffffffffffffff1603610e7b576040517f08c379a0000000000000000000000000000000000000000000000000000000008152600401610e72906122ac565b60405180910390fd5b610e8481611321565b50565b620186a081565b610e966112a3565b6000600160009054906101000a900473ffffffffffffffffffffffffffffffffffffffff1673ffffffffffffffffffffffffffffffffffffffff166370a08231306040518263ffffffff1660e01b8152600401610ef3919061180b565b602060405180830381865afa158015610f10573d6000803e3d6000fd5b505050506040513d601f19601f82011682018060405250810190610f3491906122e1565b9050610f4081836107ff565b5050565b610f4c6109c4565b73ffffffffffffffffffffffffffffffffffffffff163373ffffffffffffffffffffffffffffffffffffffff1614610fb9576040517f08c379a0000000000000000000000000000000000000000000000000000000008152600401610fb09061235a565b60405180910390fd5b565b808060200190610fcb9190612389565b60a0016020810190610fdd9190611d68565b73ffffffffffffffffffffffffffffffffffffffff16610ffb610a8a565b73ffffffffffffffffffffffffffffffffffffffff1614611051576040517f08c379a0000000000000000000000000000000000000000000000000000000008152600401611048906123fe565b60405180910390fd5b61105a81611411565b50565b600081806000019061106f919061241e565b60400135146110b3576040517f08c379a00000000000000000000000000000000000000000000000000000000081526004016110aa90612492565b60405180910390fd5b50565b60008180602001906110c89190612389565b8060c001906110d791906124b2565b905014611119576040517f08c379a000000000000000000000000000000000000000000000000000000000815260040161111090612561565b60405180910390fd5b50565b60008282905014611162576040517f08c379a0000000000000000000000000000000000000000000000000000000008152600401611159906125cd565b60405180910390fd5b5050565b606060006003600089806000019061117e919061241e565b60200160208101906111909190611d68565b73ffffffffffffffffffffffffffffffffffffffff1673ffffffffffffffffffffffffffffffffffffffff16815260200190815260200160002060009054906101000a900460ff16611217576040517f08c379a000000000000000000000000000000000000000000000000000000000815260040161120e90612639565b60405180910390fd5b6000604051806020016040528060008152509091509150965096945050505050565b60007f01ffc9a7000000000000000000000000000000000000000000000000000000007bffffffffffffffffffffffffffffffffffffffffffffffffffffffff1916827bffffffffffffffffffffffffffffffffffffffffffffffffffffffff1916149050919050565b6112ab611611565b73ffffffffffffffffffffffffffffffffffffffff166112c96109ee565b73ffffffffffffffffffffffffffffffffffffffff161461131f576040517f08c379a0000000000000000000000000000000000000000000000000000000008152600401611316906126a5565b60405180910390fd5b565b60008060009054906101000a900473ffffffffffffffffffffffffffffffffffffffff169050816000806101000a81548173ffffffffffffffffffffffffffffffffffffffff021916908373ffffffffffffffffffffffffffffffffffffffff1602179055508173ffffffffffffffffffffffffffffffffffffffff168173ffffffffffffffffffffffffffffffffffffffff167f8be0079c531659141344cd1fd0a4f28419497f9722a3daafe3b4186f6b6457e060405160405180910390a35050565b5050505050565b60006113f783611619565b801561140957506114088383611666565b5b905092915050565b600080828060000190611424919061241e565b60200160208101906114369190611d68565b73ffffffffffffffffffffffffffffffffffffffff1663572b6c0560e01b8480602001906114649190612389565b60a00160208101906114769190611d68565b604051602401611486919061180b565b604051602081830303815290604052907bffffffffffffffffffffffffffffffffffffffffffffffffffffffff19166020820180517bffffffffffffffffffffffffffffffffffffffffffffffffffffffff83818316178352505050506040516114f09190612701565b600060405180830381855afa9150503d806000811461152b576040519150601f19603f3d011682016040523d82523d6000602084013e611530565b606091505b509150915081611575576040517f08c379a000000000000000000000000000000000000000000000000000000000815260040161156c90612764565b60405180910390fd5b60208151146115b9576040517f08c379a00000000000000000000000000000000000000000000000000000000081526004016115b0906127d0565b60405180910390fd5b808060200190518101906115cd9190612805565b61160c576040517f08c379a00000000000000000000000000000000000000000000000000000000081526004016116039061287e565b60405180910390fd5b505050565b600033905090565b6000611645827f01ffc9a700000000000000000000000000000000000000000000000000000000611666565b801561165f575061165d8263ffffffff60e01b611666565b155b9050919050565b6000806301ffc9a760e01b8360405160240161168291906128ad565b604051602081830303815290604052907bffffffffffffffffffffffffffffffffffffffffffffffffffffffff19166020820180517bffffffffffffffffffffffffffffffffffffffffffffffffffffffff838183161783525050505090506000806000602060008551602087018a617530fa92503d9150600051905082801561170d575060208210155b80156117195750600081115b94505050505092915050565b6040518060800160405280600081526020016000815260200160008152602001600081525090565b600082825260208201905092915050565b7f72656c6179206875622061646472657373206e6f742073657400000000000000600082015250565b600061179460198361174d565b915061179f8261175e565b602082019050919050565b600060208201905081810360008301526117c381611787565b9050919050565b600073ffffffffffffffffffffffffffffffffffffffff82169050919050565b60006117f5826117ca565b9050919050565b611805816117ea565b82525050565b600060208201905061182060008301846117fc565b92915050565b6000604051905090565b600080fd5b600080fd5b600080fd5b6000604082840312156118555761185461183a565b5b81905092915050565b600080fd5b600080fd5b600080fd5b60008083601f8401126118835761188261185e565b5b8235905067ffffffffffffffff8111156118a05761189f611863565b5b6020830191508360018202830111156118bc576118bb611868565b5b9250929050565b6000819050919050565b6118d6816118c3565b81146118e157600080fd5b50565b6000813590506118f3816118cd565b92915050565b6000806000806000806080878903121561191657611915611830565b5b600087013567ffffffffffffffff81111561193457611933611835565b5b61194089828a0161183f565b965050602087013567ffffffffffffffff81111561196157611960611835565b5b61196d89828a0161186d565b9550955050604087013567ffffffffffffffff8111156119905761198f611835565b5b61199c89828a0161186d565b935093505060606119af89828a016118e4565b9150509295509295509295565b600081519050919050565b600082825260208201905092915050565b60005b838110156119f65780820151818401526020810190506119db565b60008484015250505050565b6000601f19601f8301169050919050565b6000611a1e826119bc565b611a2881856119c7565b9350611a388185602086016119d8565b611a4181611a02565b840191505092915050565b60008115159050919050565b611a6181611a4c565b82525050565b60006040820190508181036000830152611a818185611a13565b9050611a906020830184611a58565b9392505050565b60007fffffffff0000000000000000000000000000000000000000000000000000000082169050919050565b611acc81611a97565b8114611ad757600080fd5b50565b600081359050611ae981611ac3565b92915050565b600060208284031215611b0557611b04611830565b5b6000611b1384828501611ada565b91505092915050565b6000602082019050611b316000830184611a58565b92915050565b7f4e487b7100000000000000000000000000000000000000000000000000000000600052604160045260246000fd5b611b6f82611a02565b810181811067ffffffffffffffff82111715611b8e57611b8d611b37565b5b80604052505050565b6000611ba1611826565b9050611bad8282611b66565b919050565b600067ffffffffffffffff821115611bcd57611bcc611b37565b5b602082029050602081019050919050565b611be7816117ea565b8114611bf257600080fd5b50565b600081359050611c0481611bde565b92915050565b6000611c1d611c1884611bb2565b611b97565b90508083825260208201905060208402830185811115611c4057611c3f611868565b5b835b81811015611c695780611c558882611bf5565b845260208401935050602081019050611c42565b5050509392505050565b600082601f830112611c8857611c8761185e565b5b8135611c98848260208601611c0a565b91505092915050565b600060208284031215611cb757611cb6611830565b5b600082013567ffffffffffffffff811115611cd557611cd4611835565b5b611ce184828501611c73565b91505092915050565b6000611cf5826117ca565b9050919050565b611d0581611cea565b8114611d1057600080fd5b50565b600081359050611d2281611cfc565b92915050565b60008060408385031215611d3f57611d3e611830565b5b6000611d4d858286016118e4565b9250506020611d5e85828601611d13565b9150509250929050565b600060208284031215611d7e57611d7d611830565b5b6000611d8c84828501611bf5565b91505092915050565b611d9e816118c3565b82525050565b6000602082019050611db96000830184611d95565b92915050565b611dc881611a4c565b8114611dd357600080fd5b50565b600081359050611de581611dbf565b92915050565b60006101008284031215611e0257611e0161183a565b5b81905092915050565b600080600080600060808688031215611e2757611e26611830565b5b600086013567ffffffffffffffff811115611e4557611e44611835565b5b611e518882890161186d565b95509550506020611e6488828901611dd6565b9350506040611e75888289016118e4565b925050606086013567ffffffffffffffff811115611e9657611e95611835565b5b611ea288828901611deb565b9150509295509295909350565b6000611eba826117ea565b9050919050565b611eca81611eaf565b8114611ed557600080fd5b50565b600081359050611ee781611ec1565b92915050565b600060208284031215611f0357611f02611830565b5b6000611f1184828501611ed8565b91505092915050565b600081519050919050565b6000611f3082611f1a565b611f3a818561174d565b9350611f4a8185602086016119d8565b611f5381611a02565b840191505092915050565b60006020820190508181036000830152611f788184611f25565b905092915050565b611f89816118c3565b82525050565b608082016000820151611fa56000850182611f80565b506020820151611fb86020850182611f80565b506040820151611fcb6040850182611f80565b506060820151611fde6060850182611f80565b50505050565b6000608082019050611ff96000830184611f8f565b92915050565b60006020828403121561201557612014611830565b5b600061202384828501611d13565b91505092915050565b7f4e487b7100000000000000000000000000000000000000000000000000000000600052603260045260246000fd5b61206481611cea565b82525050565b600060408201905061207f600083018561205b565b61208c6020830184611d95565b9392505050565b7f746172676574206973206e6f7420612076616c6964204952656c617948756200600082015250565b60006120c9601f8361174d565b91506120d482612093565b602082019050919050565b600060208201905081810360008301526120f8816120bc565b9050919050565b7f4e487b7100000000000000000000000000000000000000000000000000000000600052601160045260246000fd5b6000612139826118c3565b9150612144836118c3565b925082820190508082111561215c5761215b6120ff565b5b92915050565b7f496e76616c69642052656c617948756220616464726573730000000000000000600082015250565b600061219860188361174d565b91506121a382612162565b602082019050919050565b600060208201905081810360008301526121c78161218b565b9050919050565b7f746172676574206973206e6f7420612076616c69642049466f72776172646572600082015250565b600061220460208361174d565b915061220f826121ce565b602082019050919050565b60006020820190508181036000830152612233816121f7565b9050919050565b7f4f776e61626c653a206e6577206f776e657220697320746865207a65726f206160008201527f6464726573730000000000000000000000000000000000000000000000000000602082015250565b600061229660268361174d565b91506122a18261223a565b604082019050919050565b600060208201905081810360008301526122c581612289565b9050919050565b6000815190506122db816118cd565b92915050565b6000602082840312156122f7576122f6611830565b5b6000612305848285016122cc565b91505092915050565b7f63616e206f6e6c792062652063616c6c65642062792052656c61794875620000600082015250565b6000612344601e8361174d565b915061234f8261230e565b602082019050919050565b6000602082019050818103600083015261237381612337565b9050919050565b600080fd5b600080fd5b600080fd5b600082356001610100038336030381126123a6576123a561237a565b5b80830191505092915050565b7f466f72776172646572206973206e6f7420747275737465640000000000000000600082015250565b60006123e860188361174d565b91506123f3826123b2565b602082019050919050565b60006020820190508181036000830152612417816123db565b9050919050565b60008235600160e00383360303811261243a5761243961237a565b5b80830191505092915050565b7f76616c7565207472616e73666572206e6f7420737570706f7274656400000000600082015250565b600061247c601c8361174d565b915061248782612446565b602082019050919050565b600060208201905081810360008301526124ab8161246f565b9050919050565b600080833560016020038436030381126124cf576124ce61237a565b5b80840192508235915067ffffffffffffffff8211156124f1576124f061237f565b5b60208301925060018202360383131561250d5761250c612384565b5b509250929050565b7f73686f756c642068617665206e6f207061796d61737465724461746100000000600082015250565b600061254b601c8361174d565b915061255682612515565b602082019050919050565b6000602082019050818103600083015261257a8161253e565b9050919050565b7f73686f756c642068617665206e6f20617070726f76616c446174610000000000600082015250565b60006125b7601b8361174d565b91506125c282612581565b602082019050919050565b600060208201905081810360008301526125e6816125aa565b9050919050565b7f556e417574686f72697a65642074617267657400000000000000000000000000600082015250565b600061262360138361174d565b915061262e826125ed565b602082019050919050565b6000602082019050818103600083015261265281612616565b9050919050565b7f4f776e61626c653a2063616c6c6572206973206e6f7420746865206f776e6572600082015250565b600061268f60208361174d565b915061269a82612659565b602082019050919050565b600060208201905081810360008301526126be81612682565b9050919050565b600081905092915050565b60006126db826119bc565b6126e581856126c5565b93506126f58185602086016119d8565b80840191505092915050565b600061270d82846126d0565b915081905092915050565b7f697354727573746564466f727761726465723a20726576657274656400000000600082015250565b600061274e601c8361174d565b915061275982612718565b602082019050919050565b6000602082019050818103600083015261277d81612741565b9050919050565b7f697354727573746564466f727761726465723a2062616420726573706f6e7365600082015250565b60006127ba60208361174d565b91506127c582612784565b602082019050919050565b600060208201905081810360008301526127e9816127ad565b9050919050565b6000815190506127ff81611dbf565b92915050565b60006020828403121561281b5761281a611830565b5b6000612829848285016127f0565b91505092915050565b7f696e76616c696420666f7277617264657220666f7220726563697069656e7400600082015250565b6000612868601f8361174d565b915061287382612832565b602082019050919050565b600060208201905081810360008301526128978161285b565b9050919050565b6128a781611a97565b82525050565b60006020820190506128c2600083018461289e565b9291505056fe332e302e302d626574612e332b6f70656e67736e2e64657363692e697061796d6173746572a2646970667358221220bd6784447d3ef8559b3073a8fdf4ca842640a50c9ff21b6ff27d7b744e6669b564736f6c63430008110033",
  "linkReferences": {},
  "deployedLinkReferences": {}
}