{
  "_format": "hh-sol-artifact-1",
  "contractName": "DpidAliasRegistry",
  "sourceName": "contracts/DpidAliasRegistry.sol",
  "abi": [
    {
      "inputs": [],
      "stateMutability": "nonpayable",
      "type": "constructor"
    },
    {
      "anonymous": false,
      "inputs": [
        {
          "indexed": false,
          "internalType": "uint256",
          "name": "dpid",
          "type": "uint256"
        },
        {
          "indexed": false,
          "internalType": "string",
          "name": "streamID",
          "type": "string"
        }
      ],
      "name": "DpidMinted",
      "type": "event"
    },
    {
      "anonymous": false,
      "inputs": [
        {
          "indexed": false,
          "internalType": "uint256",
          "name": "dpid",
          "type": "uint256"
        },
        {
          "components": [
            {
              "internalType": "address",
              "name": "owner",
              "type": "address"
            },
            {
              "components": [
                {
                  "internalType": "string",
                  "name": "cid",
                  "type": "string"
                },
                {
                  "internalType": "uint256",
                  "name": "time",
                  "type": "uint256"
                }
              ],
              "internalType": "struct DpidAliasRegistry.LegacyVersion[]",
              "name": "versions",
              "type": "tuple[]"
            }
          ],
          "indexed": false,
          "internalType": "struct DpidAliasRegistry.LegacyDpidEntry",
          "name": "entry",
          "type": "tuple"
        }
      ],
      "name": "ImportedDpid",
      "type": "event"
    },
    {
      "anonymous": false,
      "inputs": [
        {
          "indexed": false,
          "internalType": "uint8",
          "name": "version",
          "type": "uint8"
        }
      ],
      "name": "Initialized",
      "type": "event"
    },
    {
      "anonymous": false,
      "inputs": [
        {
          "indexed": true,
          "internalType": "address",
          "name": "previousOwner",
          "type": "address"
        },
        {
          "indexed": true,
          "internalType": "address",
          "name": "newOwner",
          "type": "address"
        }
      ],
      "name": "OwnershipTransferred",
      "type": "event"
    },
    {
      "anonymous": false,
      "inputs": [
        {
          "indexed": false,
          "internalType": "uint256",
          "name": "dpid",
          "type": "uint256"
        },
        {
          "indexed": false,
          "internalType": "string",
          "name": "streamId",
          "type": "string"
        }
      ],
      "name": "UpgradedDpid",
      "type": "event"
    },
    {
      "inputs": [
        {
          "internalType": "string",
          "name": "streamId",
          "type": "string"
        }
      ],
      "name": "find",
      "outputs": [
        {
          "internalType": "uint256",
          "name": "",
          "type": "uint256"
        }
      ],
      "stateMutability": "view",
      "type": "function"
    },
    {
      "inputs": [],
      "name": "firstDpid",
      "outputs": [
        {
          "internalType": "uint256",
          "name": "",
          "type": "uint256"
        }
      ],
      "stateMutability": "view",
      "type": "function"
    },
    {
      "inputs": [],
      "name": "freezeMigration",
      "outputs": [],
      "stateMutability": "nonpayable",
      "type": "function"
    },
    {
      "inputs": [
        {
          "internalType": "uint256",
          "name": "dpid",
          "type": "uint256"
        },
        {
          "components": [
            {
              "internalType": "address",
              "name": "owner",
              "type": "address"
            },
            {
              "components": [
                {
                  "internalType": "string",
                  "name": "cid",
                  "type": "string"
                },
                {
                  "internalType": "uint256",
                  "name": "time",
                  "type": "uint256"
                }
              ],
              "internalType": "struct DpidAliasRegistry.LegacyVersion[]",
              "name": "versions",
              "type": "tuple[]"
            }
          ],
          "internalType": "struct DpidAliasRegistry.LegacyDpidEntry",
          "name": "entry",
          "type": "tuple"
        }
      ],
      "name": "importLegacyDpid",
      "outputs": [],
      "stateMutability": "nonpayable",
      "type": "function"
    },
    {
      "inputs": [
        {
          "internalType": "uint256",
          "name": "_firstDpid",
          "type": "uint256"
        }
      ],
      "name": "initialize",
      "outputs": [],
      "stateMutability": "nonpayable",
      "type": "function"
    },
    {
      "inputs": [
        {
          "internalType": "uint256",
          "name": "",
          "type": "uint256"
        }
      ],
      "name": "legacy",
      "outputs": [
        {
          "internalType": "address",
          "name": "owner",
          "type": "address"
        }
      ],
      "stateMutability": "view",
      "type": "function"
    },
    {
      "inputs": [
        {
          "internalType": "uint256",
          "name": "dpid",
          "type": "uint256"
        }
      ],
      "name": "legacyLookup",
      "outputs": [
        {
          "components": [
            {
              "internalType": "address",
              "name": "owner",
              "type": "address"
            },
            {
              "components": [
                {
                  "internalType": "string",
                  "name": "cid",
                  "type": "string"
                },
                {
                  "internalType": "uint256",
                  "name": "time",
                  "type": "uint256"
                }
              ],
              "internalType": "struct DpidAliasRegistry.LegacyVersion[]",
              "name": "versions",
              "type": "tuple[]"
            }
          ],
          "internalType": "struct DpidAliasRegistry.LegacyDpidEntry",
          "name": "",
          "type": "tuple"
        }
      ],
      "stateMutability": "view",
      "type": "function"
    },
    {
      "inputs": [],
      "name": "migrationFrozen",
      "outputs": [
        {
          "internalType": "bool",
          "name": "",
          "type": "bool"
        }
      ],
      "stateMutability": "view",
      "type": "function"
    },
    {
      "inputs": [
        {
          "internalType": "string",
          "name": "streamId",
          "type": "string"
        }
      ],
      "name": "mintDpid",
      "outputs": [
        {
          "internalType": "uint256",
          "name": "",
          "type": "uint256"
        }
      ],
      "stateMutability": "nonpayable",
      "type": "function"
    },
    {
      "inputs": [],
      "name": "nextDpid",
      "outputs": [
        {
          "internalType": "uint256",
          "name": "",
          "type": "uint256"
        }
      ],
      "stateMutability": "view",
      "type": "function"
    },
    {
      "inputs": [],
      "name": "owner",
      "outputs": [
        {
          "internalType": "address",
          "name": "",
          "type": "address"
        }
      ],
      "stateMutability": "view",
      "type": "function"
    },
    {
      "inputs": [
        {
          "internalType": "uint256",
          "name": "",
          "type": "uint256"
        }
      ],
      "name": "registry",
      "outputs": [
        {
          "internalType": "string",
          "name": "",
          "type": "string"
        }
      ],
      "stateMutability": "view",
      "type": "function"
    },
    {
      "inputs": [],
      "name": "renounceOwnership",
      "outputs": [],
      "stateMutability": "nonpayable",
      "type": "function"
    },
    {
      "inputs": [
        {
          "internalType": "uint256",
          "name": "dpid",
          "type": "uint256"
        }
      ],
      "name": "resolve",
      "outputs": [
        {
          "internalType": "string",
          "name": "",
          "type": "string"
        }
      ],
      "stateMutability": "view",
      "type": "function"
    },
    {
      "inputs": [
        {
          "internalType": "string",
          "name": "",
          "type": "string"
        }
      ],
      "name": "reverseRegistry",
      "outputs": [
        {
          "internalType": "uint256",
          "name": "",
          "type": "uint256"
        }
      ],
      "stateMutability": "view",
      "type": "function"
    },
    {
      "inputs": [
        {
          "internalType": "address",
          "name": "newOwner",
          "type": "address"
        }
      ],
      "name": "transferOwnership",
      "outputs": [],
      "stateMutability": "nonpayable",
      "type": "function"
    },
    {
      "inputs": [
        {
          "internalType": "uint256",
          "name": "dpid",
          "type": "uint256"
        },
        {
          "internalType": "string",
          "name": "streamId",
          "type": "string"
        }
      ],
      "name": "upgradeDpid",
      "outputs": [],
      "stateMutability": "nonpayable",
      "type": "function"
    }
  ],
  "bytecode": "0x60806040523480156200001157600080fd5b50620000226200002860201b60201c565b620001d3565b600060019054906101000a900460ff16156200007b576040517f08c379a0000000000000000000000000000000000000000000000000000000008152600401620000729062000127565b60405180910390fd5b60ff801660008054906101000a900460ff1660ff161015620000ed5760ff6000806101000a81548160ff021916908360ff1602179055507f7f26b83ff96e1f2b6a682f133852f6798a09c465da95921460cefb384740249860ff604051620000e4919062000149565b60405180910390a15b565b6000620000fe60278362000166565b91506200010b8262000184565b604082019050919050565b620001218162000177565b82525050565b600060208201905081810360008301526200014281620000ef565b9050919050565b600060208201905062000160600083018462000116565b92915050565b600082825260208201905092915050565b600060ff82169050919050565b7f496e697469616c697a61626c653a20636f6e747261637420697320696e69746960008201527f616c697a696e6700000000000000000000000000000000000000000000000000602082015250565b61281d80620001e36000396000f3fe608060405234801561001057600080fd5b506004361061010b5760003560e01c806382b7b500116100a2578063b9e2924111610071578063b9e29241146102cc578063cfb452b5146102ea578063ded8896b14610308578063f2fde38b14610324578063fe4b84df146103405761010b565b806382b7b500146102305780638da5cb5b14610260578063afc269111461027e578063b724de3a1461029c5761010b565b80635893253c116100de5780635893253c14610196578063715018a6146101c6578063788243d5146101d0578063810a9afa146102005761010b565b80630d70b3aa14610110578063144ae8551461011a5780634f896d4f14610136578063587a8cbf14610166575b600080fd5b61011861035c565b005b610134600480360381019061012f91906111f4565b610381565b005b610150600480360381019061014b9190611173565b61043f565b60405161015d919061173e565b60405180910390f35b610180600480360381019061017b9190611132565b6104e4565b60405161018d9190611882565b60405180910390f35b6101b060048036038101906101ab9190611173565b610512565b6040516101bd919061173e565b60405180910390f35b6101ce6105b2565b005b6101ea60048036038101906101e59190611173565b6105c6565b6040516101f791906116ed565b60405180910390f35b61021a60048036038101906102159190611173565b610604565b6040516102279190611860565b60405180910390f35b61024a600480360381019061024591906110ed565b610782565b6040516102579190611882565b60405180910390f35b6102686107ad565b60405161027591906116ed565b60405180910390f35b6102866107d7565b6040516102939190611882565b60405180910390f35b6102b660048036038101906102b191906110ed565b6107dd565b6040516102c39190611882565b60405180910390f35b6102d46108f2565b6040516102e19190611708565b60405180910390f35b6102f2610905565b6040516102ff9190611882565b60405180910390f35b610322600480360381019061031d919061119c565b61090b565b005b61033e600480360381019061033991906110c4565b610b00565b005b61035a60048036038101906103559190611173565b610b84565b005b610364610cd1565b6001606760006101000a81548160ff021916908315150217905550565b610389610cd1565b60001515606760009054906101000a900460ff161515146103df576040517f08c379a00000000000000000000000000000000000000000000000000000000081526004016103d6906117a0565b60405180910390fd5b80606a600084815260200190815260200160002081816103ff9190612740565b9050507fa9c55ebaa1fada408bd72c2f0ea7c27f5444b105bcff12c5381baac912156ada82826040516104339291906118cf565b60405180910390a15050565b606060686000838152602001908152602001600020805461045f906120f6565b80601f016020809104026020016040519081016040528092919081815260200182805461048b906120f6565b80156104d85780601f106104ad576101008083540402835291602001916104d8565b820191906000526020600020905b8154815290600101906020018083116104bb57829003601f168201915b50505050509050919050565b6069818051602081018201805184825260208301602085012081835280955050505050506000915090505481565b60686020528060005260406000206000915090508054610531906120f6565b80601f016020809104026020016040519081016040528092919081815260200182805461055d906120f6565b80156105aa5780601f1061057f576101008083540402835291602001916105aa565b820191906000526020600020905b81548152906001019060200180831161058d57829003601f168201915b505050505081565b6105ba610cd1565b6105c46000610d4f565b565b606a6020528060005260406000206000915090508060000160009054906101000a900473ffffffffffffffffffffffffffffffffffffffff16905081565b61060c610efa565b606a60008381526020019081526020016000206040518060400160405290816000820160009054906101000a900473ffffffffffffffffffffffffffffffffffffffff1673ffffffffffffffffffffffffffffffffffffffff1673ffffffffffffffffffffffffffffffffffffffff16815260200160018201805480602002602001604051908101604052809291908181526020016000905b8282101561077357838290600052602060002090600202016040518060400160405290816000820180546106d8906120f6565b80601f0160208091040260200160405190810160405280929190818152602001828054610704906120f6565b80156107515780601f1061072657610100808354040283529160200191610751565b820191906000526020600020905b81548152906001019060200180831161073457829003601f168201915b50505050508152602001600182015481525050815260200190600101906106a5565b50505050815250509050919050565b6000606983836040516107969291906116d4565b908152602001604051809103902054905092915050565b6000603360009054906101000a900473ffffffffffffffffffffffffffffffffffffffff16905090565b60665481565b600082826000606983836040516107f59291906116d4565b90815260200160405180910390205414610844576040517f08c379a000000000000000000000000000000000000000000000000000000000815260040161083b906117c0565b60405180910390fd5b60006066549050858560686000848152602001908152602001600020919061086d929190610f2a565b5080606987876040516108819291906116d4565b9081526020016040518091039020819055507f96a65efbb6991f67fc8a4c7550fcfd08f1968737d2f5adcded5cd937b3cc0f3d8187876040516108c69392919061189d565b60405180910390a1606660008154809291906108e190612175565b919050555080935050505092915050565b606760009054906101000a900460ff1681565b60655481565b81816000606983836040516109219291906116d4565b90815260200160405180910390205414610970576040517f08c379a0000000000000000000000000000000000000000000000000000000008152600401610967906117c0565b60405180910390fd5b6000606860008781526020019081526020016000208054610990906120f6565b9050146109d2576040517f08c379a00000000000000000000000000000000000000000000000000000000081526004016109c990611760565b60405180910390fd5b3373ffffffffffffffffffffffffffffffffffffffff16606a600087815260200190815260200160002060000160009054906101000a900473ffffffffffffffffffffffffffffffffffffffff1673ffffffffffffffffffffffffffffffffffffffff1614610a76576040517f08c379a0000000000000000000000000000000000000000000000000000000008152600401610a6d90611840565b60405180910390fd5b8383606860008881526020019081526020016000209190610a98929190610f2a565b508460698585604051610aac9291906116d4565b9081526020016040518091039020819055507f442b41840a10393534508176faee6f70b1870707dc24573b67d49f28cbac7f1c858585604051610af19392919061189d565b60405180910390a15050505050565b610b08610cd1565b600073ffffffffffffffffffffffffffffffffffffffff168173ffffffffffffffffffffffffffffffffffffffff161415610b78576040517f08c379a0000000000000000000000000000000000000000000000000000000008152600401610b6f90611780565b60405180910390fd5b610b8181610d4f565b50565b60008060019054906101000a900460ff16159050808015610bb55750600160008054906101000a900460ff1660ff16105b80610be25750610bc430610e15565b158015610be15750600160008054906101000a900460ff1660ff16145b5b610c21576040517f08c379a0000000000000000000000000000000000000000000000000000000008152600401610c18906117e0565b60405180910390fd5b60016000806101000a81548160ff021916908360ff1602179055508015610c5e576001600060016101000a81548160ff0219169083151502179055505b610c66610e38565b81606581905550816066819055508015610ccd5760008060016101000a81548160ff0219169083151502179055507f7f26b83ff96e1f2b6a682f133852f6798a09c465da95921460cefb38474024986001604051610cc49190611723565b60405180910390a15b5050565b610cd9610e91565b73ffffffffffffffffffffffffffffffffffffffff16610cf76107ad565b73ffffffffffffffffffffffffffffffffffffffff1614610d4d576040517f08c379a0000000000000000000000000000000000000000000000000000000008152600401610d4490611800565b60405180910390fd5b565b6000603360009054906101000a900473ffffffffffffffffffffffffffffffffffffffff16905081603360006101000a81548173ffffffffffffffffffffffffffffffffffffffff021916908373ffffffffffffffffffffffffffffffffffffffff1602179055508173ffffffffffffffffffffffffffffffffffffffff168173ffffffffffffffffffffffffffffffffffffffff167f8be0079c531659141344cd1fd0a4f28419497f9722a3daafe3b4186f6b6457e060405160405180910390a35050565b6000808273ffffffffffffffffffffffffffffffffffffffff163b119050919050565b600060019054906101000a900460ff16610e87576040517f08c379a0000000000000000000000000000000000000000000000000000000008152600401610e7e90611820565b60405180910390fd5b610e8f610e99565b565b600033905090565b600060019054906101000a900460ff16610ee8576040517f08c379a0000000000000000000000000000000000000000000000000000000008152600401610edf90611820565b60405180910390fd5b610ef8610ef3610e91565b610d4f565b565b6040518060400160405280600073ffffffffffffffffffffffffffffffffffffffff168152602001606081525090565b828054610f36906120f6565b90600052602060002090601f016020900481019282610f585760008555610f9f565b82601f10610f7157803560ff1916838001178555610f9f565b82800160010185558215610f9f579182015b82811115610f9e578235825591602001919060010190610f83565b5b509050610fac9190610fb0565b5090565b5b80821115610fc9576000816000905550600101610fb1565b5090565b6000610fe0610fdb846119f6565b6119d1565b905082815260208101848484011115610ff857600080fd5b611003848285612028565b509392505050565b60008135905061101a816127b4565b92915050565b60008083601f84011261103257600080fd5b8235905067ffffffffffffffff81111561104b57600080fd5b60208301915083600182028301111561106357600080fd5b9250929050565b600082601f83011261107b57600080fd5b813561108b848260208601610fcd565b91505092915050565b6000604082840312156110a657600080fd5b81905092915050565b6000813590506110be816127cb565b92915050565b6000602082840312156110d657600080fd5b60006110e48482850161100b565b91505092915050565b6000806020838503121561110057600080fd5b600083013567ffffffffffffffff81111561111a57600080fd5b61112685828601611020565b92509250509250929050565b60006020828403121561114457600080fd5b600082013567ffffffffffffffff81111561115e57600080fd5b61116a8482850161106a565b91505092915050565b60006020828403121561118557600080fd5b6000611193848285016110af565b91505092915050565b6000806000604084860312156111b157600080fd5b60006111bf868287016110af565b935050602084013567ffffffffffffffff8111156111dc57600080fd5b6111e886828701611020565b92509250509250925092565b6000806040838503121561120757600080fd5b6000611215858286016110af565b925050602083013567ffffffffffffffff81111561123257600080fd5b61123e85828601611094565b9150509250929050565b6000611254838361162a565b905092915050565b60006112688383611679565b905092915050565b61127981611d70565b82525050565b61128881611d70565b82525050565b600061129a8385611ad3565b9350836020840285016112ac84611a3e565b8060005b878110156112f05784840389526112c78284611cdb565b6112d18582611248565b94506112dc83611ab9565b925060208a019950506001810190506112b0565b50829750879450505050509392505050565b600061130d82611a8d565b6113178185611ad3565b93508360208202850161132985611a48565b8060005b858110156113655784840389528151611346858261125c565b945061135183611ac6565b925060208a0199505060018101905061132d565b50829750879550505050505092915050565b61138081611d82565b82525050565b61138f81611e6b565b82525050565b60006113a18385611ae4565b93506113ae838584612028565b6113b7836123cc565b840190509392505050565b60006113ce8385611af5565b93506113db838584612028565b6113e4836123cc565b840190509392505050565b60006113fb8385611b06565b9350611408838584612028565b82840190509392505050565b600061141f82611aae565b6114298185611ae4565b9350611439818560208601612037565b611442816123cc565b840191505092915050565b600061145882611aae565b6114628185611af5565b9350611472818560208601612037565b61147b816123cc565b840191505092915050565b6000611493601583611af5565b915061149e82612458565b602082019050919050565b60006114b6602683611af5565b91506114c182612481565b604082019050919050565b60006114d9601383611af5565b91506114e4826124d0565b602082019050919050565b60006114fc601983611af5565b9150611507826124f9565b602082019050919050565b600061151f602e83611af5565b915061152a82612522565b604082019050919050565b6000611542602083611af5565b915061154d82612571565b602082019050919050565b6000611565602b83611af5565b91506115708261259a565b604082019050919050565b6000611588601983611af5565b9150611593826125e9565b602082019050919050565b6000604083016115b16000840184611c16565b6115be6000860182611270565b506115cc6020840184611c2d565b85830360208701526115df83828461128e565b925050508091505092915050565b60006040830160008301516116056000860182611270565b506020830151848203602086015261161d8282611302565b9150508091505092915050565b60006040830161163d6000840184611c84565b8583036000870152611650838284611395565b925050506116616020840184611cff565b61166e60208601826116b6565b508091505092915050565b600060408301600083015184820360008601526116968282611414565b91505060208301516116ab60208601826116b6565b508091505092915050565b6116bf81611dae565b82525050565b6116ce81611dae565b82525050565b60006116e18284866113ef565b91508190509392505050565b6000602082019050611702600083018461127f565b92915050565b600060208201905061171d6000830184611377565b92915050565b60006020820190506117386000830184611386565b92915050565b60006020820190508181036000830152611758818461144d565b905092915050565b6000602082019050818103600083015261177981611486565b9050919050565b60006020820190508181036000830152611799816114a9565b9050919050565b600060208201905081810360008301526117b9816114cc565b9050919050565b600060208201905081810360008301526117d9816114ef565b9050919050565b600060208201905081810360008301526117f981611512565b9050919050565b6000602082019050818103600083015261181981611535565b9050919050565b6000602082019050818103600083015261183981611558565b9050919050565b600060208201905081810360008301526118598161157b565b9050919050565b6000602082019050818103600083015261187a81846115ed565b905092915050565b600060208201905061189760008301846116c5565b92915050565b60006040820190506118b260008301866116c5565b81810360208301526118c58184866113c2565b9050949350505050565b60006040820190506118e460008301856116c5565b81810360208301526118f6818461159e565b90509392505050565b6000808335600160200384360303811261191857600080fd5b80840192508235915067ffffffffffffffff82111561193657600080fd5b60208301925060208202360383131561194e57600080fd5b509250929050565b6000808335600160200384360303811261196f57600080fd5b80840192508235915067ffffffffffffffff82111561198d57600080fd5b6020830192506001820236038313156119a557600080fd5b509250929050565b6000823560016040038336030381126119c557600080fd5b80830191505092915050565b60006119db6119ec565b90506119e78282612144565b919050565b6000604051905090565b600067ffffffffffffffff821115611a1157611a10612269565b5b611a1a826123cc565b9050602081019050919050565b6000819050611a37826002611d16565b9050919050565b6000819050919050565b6000819050602082019050919050565b60008190508160005260206000209050919050565b60008190508160005260206000209050919050565b600082905092915050565b600081519050919050565b600081549050919050565b600082905092915050565b600081519050919050565b6000602082019050919050565b6000602082019050919050565b600082825260208201905092915050565b600082825260208201905092915050565b600082825260208201905092915050565b600081905092915050565b6020841060008114611b6a57601f841160018114611b3a57611b338685612128565b8355611b64565b611b4383611a6d565b611b586020601f880104820160018301611dd3565b611b628785612612565b505b50611bb3565b611b7382611a6d565b6020601f8701048101601f87168015611b9457611b938160018403612298565b5b611ba66020601f890104840183611dd3565b6001886002021785555050505b5050505050565b6020831060008114611c05576020851060008114611be357611bdc8685612128565b8355611bff565b8360ff1916935083611bf484611a6d565b556001866002020183555b50611c0f565b6001856002020182555b5050505050565b6000611c25602084018461100b565b905092915050565b60008083356001602003843603038112611c4657600080fd5b83810192508235915060208301925067ffffffffffffffff821115611c6a57600080fd5b602082023603841315611c7c57600080fd5b509250929050565b60008083356001602003843603038112611c9d57600080fd5b83810192508235915060208301925067ffffffffffffffff821115611cc157600080fd5b600182023603841315611cd357600080fd5b509250929050565b600082356001604003833603038112611cf357600080fd5b82810191505092915050565b6000611d0e60208401846110af565b905092915050565b6000611d2182611dae565b9150611d2c83611dae565b9250817fffffffffffffffffffffffffffffffffffffffffffffffffffffffffffffffff0483118215151615611d6557611d6461220b565b5b828202905092915050565b6000611d7b82611d8e565b9050919050565b60008115159050919050565b600073ffffffffffffffffffffffffffffffffffffffff82169050919050565b6000819050919050565b600060ff82169050919050565b611dd0600082612377565b50565b5b81811015611df257611de7600082612440565b600181019050611dd4565b5050565b5b81811015611e1557611e0a600082612422565b600281019050611df7565b5050565b81811015611e3757611e2c600082612440565b600181019050611e19565b5050565b611e486000808301612404565b611e56600060018301612440565b50565b6000611e6482611e7d565b9050919050565b6000611e7682611db8565b9050919050565b6000611e8882611e8f565b9050919050565b6000611e9a82611d8e565b9050919050565b6000611eac82611dae565b9050919050565b611ebd8383611a82565b611ec78183612313565b611ed083611a3e565b611ed983611a58565b6000805b84811015611f1257611eef84886119ad565b611efa818486612771565b60208501945060028401935050600181019050611edd565b5050505050505050565b611f268383611aa3565b67ffffffffffffffff811115611f3f57611f3e612269565b5b611f4982546120f6565b600080601f8411601f84111715611f6657611f6385611a6d565b90505b601f831115611f99576020601f85010481016020851015611f85578190505b611f976020601f860104830182611dd3565b505b601f841160018114611fc65760008515611fb4578388013590505b611fbe8682612128565b87555061201e565b601f1985168260005b82811015611ff457858a01358255600182019150602086019550602081019050611fcf565b8783101561201157858a013561200d601f8a16826121be565b8355505b6001600289020189555050505b5050505050505050565b82818337600083830152505050565b60005b8381101561205557808201518184015260208101905061203a565b83811115612064576000848401525b50505050565b60008101600083018061207c816122e7565b905061208881846126fd565b505050600181016020830161209d81856118ff565b6120a8818386612720565b505050505050565b60008101600083016120c28185611956565b6120cd818386612730565b505050506001810160208301806120e3816122fd565b90506120ef818461274e565b5050505050565b6000600282049050600182168061210e57607f821691505b602082108114156121225761212161223a565b5b50919050565b600061213483836121be565b9150826002028217905092915050565b61214d826123cc565b810181811067ffffffffffffffff8211171561216c5761216b612269565b5b80604052505050565b600061218082611dae565b91507fffffffffffffffffffffffffffffffffffffffffffffffffffffffffffffffff8214156121b3576121b261220b565b5b600182019050919050565b60006121cf600019846008026123f7565b1980831691505092915050565b7f4e487b7100000000000000000000000000000000000000000000000000000000600052600060045260246000fd5b7f4e487b7100000000000000000000000000000000000000000000000000000000600052601160045260246000fd5b7f4e487b7100000000000000000000000000000000000000000000000000000000600052602260045260246000fd5b7f4e487b7100000000000000000000000000000000000000000000000000000000600052604160045260246000fd5b6122c87fffffffffffffffffffffffffffffffffffffffffffffffffffffffffffffffff836020036008026123f7565b815481168255505050565b6000819050919050565b6000819050919050565b600081356122f4816127b4565b80915050919050565b6000813561230a816127cb565b80915050919050565b6801000000000000000082111561232d5761232c612269565b5b61233681611a98565b828255808310156123725761234a81611a27565b61235384611a27565b61235c84611a58565b81810183820161236c8183611df6565b50505050505b505050565b6801000000000000000082111561239157612390612269565b5b805461239c816120f6565b808411156123b1576123b084828486611bba565b5b808410156123c6576123c584828486611b11565b5b50505050565b6000601f19601f8301169050919050565b60008160001b9050919050565b600082821b905092915050565b600082821c905092915050565b60008214612415576124146121dc565b5b61241e81611dc5565b5050565b60008214612433576124326121dc565b5b61243c81611e3b565b5050565b6124486127e2565b61245381848461278f565b505050565b7f6470696420616c72656164792075706772616465640000000000000000000000600082015250565b7f4f776e61626c653a206e6577206f776e657220697320746865207a65726f206160008201527f6464726573730000000000000000000000000000000000000000000000000000602082015250565b7f6d6967726174696f6e2069732066726f7a656e00000000000000000000000000600082015250565b7f73747265616d20616c7265616479206861732061206450494400000000000000600082015250565b7f496e697469616c697a61626c653a20636f6e747261637420697320616c72656160008201527f647920696e697469616c697a6564000000000000000000000000000000000000602082015250565b7f4f776e61626c653a2063616c6c6572206973206e6f7420746865206f776e6572600082015250565b7f496e697469616c697a61626c653a20636f6e7472616374206973206e6f74206960008201527f6e697469616c697a696e67000000000000000000000000000000000000000000602082015250565b7f756e617574686f72697a65642064706964207570677261646500000000000000600082015250565b61261b81611a6d565b612626838254612128565b8083556000825550505050565b600073ffffffffffffffffffffffffffffffffffffffff612653846123dd565b9350801983169250808416831791505092915050565b60007fffffffffffffffffffffffffffffffffffffffffffffffffffffffffffffffff612695846123dd565b9350801983169250808416831791505092915050565b6000600883026126db7fffffffffffffffffffffffffffffffffffffffffffffffffffffffffffffffff826123ea565b6126e586836123ea565b95508019841693508086168417925050509392505050565b61270682611e59565b612719612712826122d3565b8354612633565b8255505050565b61272b838383611eb3565b505050565b61273b838383611f1c565b505050565b61274a828261206a565b5050565b61275782611ea1565b61276a612763826122dd565b8354612669565b8255505050565b81156127805761277f6121dc565b5b61278a83826120b0565b505050565b61279883611ea1565b6127ac6127a4826122dd565b8484546126ab565b825550505050565b6127bd81611d70565b81146127c857600080fd5b50565b6127d481611dae565b81146127df57600080fd5b50565b60009056fea26469706673582212203cd9493558aa831bec9e62a003cae25d442665c9c02edcb7c1725ad3e5bb65db64736f6c63430008040033",
  "linkReferences": {},
  "deployedLinkReferences": {}
}