{
  "_format": "hh-sol-artifact-1",
  "contractName": "DpidAliasRegistry",
  "sourceName": "contracts/DpidAliasRegistry.sol",
  "abi": [
    {
      "inputs": [],
      "stateMutability": "nonpayable",
      "type": "constructor"
    },
    {
      "anonymous": false,
      "inputs": [
        {
          "indexed": false,
          "internalType": "uint256",
          "name": "dpid",
          "type": "uint256"
        },
        {
          "indexed": false,
          "internalType": "string",
          "name": "streamID",
          "type": "string"
        }
      ],
      "name": "DpidMinted",
      "type": "event"
    },
    {
      "anonymous": false,
      "inputs": [
        {
          "indexed": false,
          "internalType": "uint256",
          "name": "dpid",
          "type": "uint256"
        },
        {
          "components": [
            {
              "internalType": "address",
              "name": "owner",
              "type": "address"
            },
            {
              "components": [
                {
                  "internalType": "string",
                  "name": "cid",
                  "type": "string"
                },
                {
                  "internalType": "uint256",
                  "name": "timestamp",
                  "type": "uint256"
                }
              ],
              "internalType": "struct DpidAliasRegistry.LegacyVersion[]",
              "name": "versions",
              "type": "tuple[]"
            }
          ],
          "indexed": false,
          "internalType": "struct DpidAliasRegistry.LegacyDpidEntry",
          "name": "entry",
          "type": "tuple"
        }
      ],
      "name": "ImportedDpid",
      "type": "event"
    },
    {
      "anonymous": false,
      "inputs": [
        {
          "indexed": false,
          "internalType": "uint8",
          "name": "version",
          "type": "uint8"
        }
      ],
      "name": "Initialized",
      "type": "event"
    },
    {
      "anonymous": false,
      "inputs": [
        {
          "indexed": true,
          "internalType": "address",
          "name": "previousOwner",
          "type": "address"
        },
        {
          "indexed": true,
          "internalType": "address",
          "name": "newOwner",
          "type": "address"
        }
      ],
      "name": "OwnershipTransferred",
      "type": "event"
    },
    {
      "anonymous": false,
      "inputs": [
        {
          "indexed": false,
          "internalType": "uint256",
          "name": "dpid",
          "type": "uint256"
        },
        {
          "indexed": false,
          "internalType": "string",
          "name": "streamId",
          "type": "string"
        }
      ],
      "name": "UpgradedDpid",
      "type": "event"
    },
    {
      "inputs": [
        {
          "internalType": "uint256",
          "name": "firstDpid",
          "type": "uint256"
        }
      ],
      "name": "__DpidAliasRegistry_init",
      "outputs": [],
      "stateMutability": "nonpayable",
      "type": "function"
    },
    {
      "inputs": [],
      "name": "_firstDpid",
      "outputs": [
        {
          "internalType": "uint256",
          "name": "",
          "type": "uint256"
        }
      ],
      "stateMutability": "view",
      "type": "function"
    },
    {
      "inputs": [
        {
          "internalType": "uint256",
          "name": "dpid",
          "type": "uint256"
        },
        {
          "components": [
            {
              "internalType": "address",
              "name": "owner",
              "type": "address"
            },
            {
              "components": [
                {
                  "internalType": "string",
                  "name": "cid",
                  "type": "string"
                },
                {
                  "internalType": "uint256",
                  "name": "timestamp",
                  "type": "uint256"
                }
              ],
              "internalType": "struct DpidAliasRegistry.LegacyVersion[]",
              "name": "versions",
              "type": "tuple[]"
            }
          ],
          "internalType": "struct DpidAliasRegistry.LegacyDpidEntry",
          "name": "entry",
          "type": "tuple"
        }
      ],
      "name": "importLegacyDpid",
      "outputs": [],
      "stateMutability": "nonpayable",
      "type": "function"
    },
    {
      "inputs": [
        {
          "internalType": "uint256",
          "name": "",
          "type": "uint256"
        }
      ],
      "name": "legacy",
      "outputs": [
        {
          "internalType": "address",
          "name": "owner",
          "type": "address"
        }
      ],
      "stateMutability": "view",
      "type": "function"
    },
    {
      "inputs": [
        {
          "internalType": "uint256",
          "name": "dpid",
          "type": "uint256"
        }
      ],
      "name": "legacyLookup",
      "outputs": [
        {
          "components": [
            {
              "internalType": "address",
              "name": "owner",
              "type": "address"
            },
            {
              "components": [
                {
                  "internalType": "string",
                  "name": "cid",
                  "type": "string"
                },
                {
                  "internalType": "uint256",
                  "name": "timestamp",
                  "type": "uint256"
                }
              ],
              "internalType": "struct DpidAliasRegistry.LegacyVersion[]",
              "name": "versions",
              "type": "tuple[]"
            }
          ],
          "internalType": "struct DpidAliasRegistry.LegacyDpidEntry",
          "name": "",
          "type": "tuple"
        }
      ],
      "stateMutability": "view",
      "type": "function"
    },
    {
      "inputs": [
        {
          "internalType": "uint256",
          "name": "dpid",
          "type": "uint256"
        }
      ],
      "name": "lookup",
      "outputs": [
        {
          "internalType": "string",
          "name": "",
          "type": "string"
        }
      ],
      "stateMutability": "view",
      "type": "function"
    },
    {
      "inputs": [
        {
          "internalType": "string",
          "name": "streamId",
          "type": "string"
        }
      ],
      "name": "mintDpid",
      "outputs": [
        {
          "internalType": "uint256",
          "name": "",
          "type": "uint256"
        }
      ],
      "stateMutability": "nonpayable",
      "type": "function"
    },
    {
      "inputs": [],
      "name": "nextDpid",
      "outputs": [
        {
          "internalType": "uint256",
          "name": "",
          "type": "uint256"
        }
      ],
      "stateMutability": "view",
      "type": "function"
    },
    {
      "inputs": [],
      "name": "owner",
      "outputs": [
        {
          "internalType": "address",
          "name": "",
          "type": "address"
        }
      ],
      "stateMutability": "view",
      "type": "function"
    },
    {
      "inputs": [
        {
          "internalType": "uint256",
          "name": "",
          "type": "uint256"
        }
      ],
      "name": "registry",
      "outputs": [
        {
          "internalType": "string",
          "name": "",
          "type": "string"
        }
      ],
      "stateMutability": "view",
      "type": "function"
    },
    {
      "inputs": [],
      "name": "renounceOwnership",
      "outputs": [],
      "stateMutability": "nonpayable",
      "type": "function"
    },
    {
      "inputs": [
        {
          "internalType": "address",
          "name": "newOwner",
          "type": "address"
        }
      ],
      "name": "transferOwnership",
      "outputs": [],
      "stateMutability": "nonpayable",
      "type": "function"
    },
    {
      "inputs": [
        {
          "internalType": "uint256",
          "name": "dpid",
          "type": "uint256"
        },
        {
          "internalType": "string",
          "name": "streamId",
          "type": "string"
        }
      ],
      "name": "upgradeDpid",
      "outputs": [],
      "stateMutability": "nonpayable",
      "type": "function"
    }
  ],
  "bytecode": "0x60806040523480156200001157600080fd5b50620000226200002860201b60201c565b620001d3565b600060019054906101000a900460ff16156200007b576040517f08c379a0000000000000000000000000000000000000000000000000000000008152600401620000729062000127565b60405180910390fd5b60ff801660008054906101000a900460ff1660ff161015620000ed5760ff6000806101000a81548160ff021916908360ff1602179055507f7f26b83ff96e1f2b6a682f133852f6798a09c465da95921460cefb384740249860ff604051620000e4919062000149565b60405180910390a15b565b6000620000fe60278362000166565b91506200010b8262000184565b604082019050919050565b620001218162000177565b82525050565b600060208201905081810360008301526200014281620000ef565b9050919050565b600060208201905062000160600083018462000116565b92915050565b600082825260208201905092915050565b600060ff82169050919050565b7f496e697469616c697a61626c653a20636f6e747261637420697320696e69746960008201527f616c697a696e6700000000000000000000000000000000000000000000000000602082015250565b6122cb80620001e36000396000f3fe608060405234801561001057600080fd5b50600436106100cf5760003560e01c8063810a9afa1161008c578063b724de3a11610066578063b724de3a14610212578063dc5d7a2e14610242578063ded8896b14610260578063f2fde38b1461027c576100cf565b8063810a9afa146101a65780638da5cb5b146101d6578063afc26911146101f4576100cf565b80630a874df6146100d4578063144ae85514610104578063362b3e63146101205780635893253c1461013c578063715018a61461016c578063788243d514610176575b600080fd5b6100ee60048036038101906100e99190610dff565b610298565b6040516100fb919061131c565b60405180910390f35b61011e60048036038101906101199190610e80565b61033d565b005b61013a60048036038101906101359190610dff565b6103a5565b005b61015660048036038101906101519190610dff565b6104eb565b604051610163919061131c565b60405180910390f35b61017461058b565b005b610190600480360381019061018b9190610dff565b61059f565b60405161019d91906112e6565b60405180910390f35b6101c060048036038101906101bb9190610dff565b6105dd565b6040516101cd91906113fe565b60405180910390f35b6101de61075b565b6040516101eb91906112e6565b60405180910390f35b6101fc610785565b6040516102099190611420565b60405180910390f35b61022c60048036038101906102279190610dba565b61078b565b6040516102399190611420565b60405180910390f35b61024a610813565b6040516102579190611420565b60405180910390f35b61027a60048036038101906102759190610e28565b610819565b005b61029660048036038101906102919190610d91565b610982565b005b60606067600083815260200190815260200160002080546102b890611c27565b80601f01602080910402602001604051908101604052809291908181526020018280546102e490611c27565b80156103315780601f1061030657610100808354040283529160200191610331565b820191906000526020600020905b81548152906001019060200180831161031457829003601f168201915b50505050509050919050565b610345610a06565b8060686000848152602001908152602001600020818161036591906121ee565b9050507fa9c55ebaa1fada408bd72c2f0ea7c27f5444b105bcff12c5381baac912156ada828260405161039992919061146d565b60405180910390a15050565b60008060019054906101000a900460ff161590508080156103d65750600160008054906101000a900460ff1660ff16105b8061040357506103e530610a84565b1580156104025750600160008054906101000a900460ff1660ff16145b5b610442576040517f08c379a00000000000000000000000000000000000000000000000000000000081526004016104399061137e565b60405180910390fd5b60016000806101000a81548160ff021916908360ff160217905550801561047f576001600060016101000a81548160ff0219169083151502179055505b610487610aa7565b8160668190555080156104e75760008060016101000a81548160ff0219169083151502179055507f7f26b83ff96e1f2b6a682f133852f6798a09c465da95921460cefb384740249860016040516104de9190611301565b60405180910390a15b5050565b6067602052806000526040600020600091509050805461050a90611c27565b80601f016020809104026020016040519081016040528092919081815260200182805461053690611c27565b80156105835780601f1061055857610100808354040283529160200191610583565b820191906000526020600020905b81548152906001019060200180831161056657829003601f168201915b505050505081565b610593610a06565b61059d6000610b00565b565b60686020528060005260406000206000915090508060000160009054906101000a900473ffffffffffffffffffffffffffffffffffffffff16905081565b6105e5610c2f565b606860008381526020019081526020016000206040518060400160405290816000820160009054906101000a900473ffffffffffffffffffffffffffffffffffffffff1673ffffffffffffffffffffffffffffffffffffffff1673ffffffffffffffffffffffffffffffffffffffff16815260200160018201805480602002602001604051908101604052809291908181526020016000905b8282101561074c57838290600052602060002090600202016040518060400160405290816000820180546106b190611c27565b80601f01602080910402602001604051908101604052809291908181526020018280546106dd90611c27565b801561072a5780601f106106ff5761010080835404028352916020019161072a565b820191906000526020600020905b81548152906001019060200180831161070d57829003601f168201915b505050505081526020016001820154815250508152602001906001019061067e565b50505050815250509050919050565b6000603360009054906101000a900473ffffffffffffffffffffffffffffffffffffffff16905090565b60665481565b600080606654905083836067600084815260200190815260200160002091906107b5929190610c5f565b507f96a65efbb6991f67fc8a4c7550fcfd08f1968737d2f5adcded5cd937b3cc0f3d8185856040516107e99392919061143b565b60405180910390a16066600081548092919061080490611c75565b91905055508091505092915050565b60655481565b600060676000858152602001908152602001600020805461083990611c27565b90501461087b576040517f08c379a00000000000000000000000000000000000000000000000000000000081526004016108729061133e565b60405180910390fd5b3273ffffffffffffffffffffffffffffffffffffffff166068600085815260200190815260200160002060000160009054906101000a900473ffffffffffffffffffffffffffffffffffffffff1673ffffffffffffffffffffffffffffffffffffffff161461091f576040517f08c379a0000000000000000000000000000000000000000000000000000000008152600401610916906113de565b60405180910390fd5b8181606760008681526020019081526020016000209190610941929190610c5f565b507f442b41840a10393534508176faee6f70b1870707dc24573b67d49f28cbac7f1c8383836040516109759392919061143b565b60405180910390a1505050565b61098a610a06565b600073ffffffffffffffffffffffffffffffffffffffff168173ffffffffffffffffffffffffffffffffffffffff1614156109fa576040517f08c379a00000000000000000000000000000000000000000000000000000000081526004016109f19061135e565b60405180910390fd5b610a0381610b00565b50565b610a0e610bc6565b73ffffffffffffffffffffffffffffffffffffffff16610a2c61075b565b73ffffffffffffffffffffffffffffffffffffffff1614610a82576040517f08c379a0000000000000000000000000000000000000000000000000000000008152600401610a799061139e565b60405180910390fd5b565b6000808273ffffffffffffffffffffffffffffffffffffffff163b119050919050565b600060019054906101000a900460ff16610af6576040517f08c379a0000000000000000000000000000000000000000000000000000000008152600401610aed906113be565b60405180910390fd5b610afe610bce565b565b6000603360009054906101000a900473ffffffffffffffffffffffffffffffffffffffff16905081603360006101000a81548173ffffffffffffffffffffffffffffffffffffffff021916908373ffffffffffffffffffffffffffffffffffffffff1602179055508173ffffffffffffffffffffffffffffffffffffffff168173ffffffffffffffffffffffffffffffffffffffff167f8be0079c531659141344cd1fd0a4f28419497f9722a3daafe3b4186f6b6457e060405160405180910390a35050565b600033905090565b600060019054906101000a900460ff16610c1d576040517f08c379a0000000000000000000000000000000000000000000000000000000008152600401610c14906113be565b60405180910390fd5b610c2d610c28610bc6565b610b00565b565b6040518060400160405280600073ffffffffffffffffffffffffffffffffffffffff168152602001606081525090565b828054610c6b90611c27565b90600052602060002090601f016020900481019282610c8d5760008555610cd4565b82601f10610ca657803560ff1916838001178555610cd4565b82800160010185558215610cd4579182015b82811115610cd3578235825591602001919060010190610cb8565b5b509050610ce19190610ce5565b5090565b5b80821115610cfe576000816000905550600101610ce6565b5090565b600081359050610d1181612262565b92915050565b60008083601f840112610d2957600080fd5b8235905067ffffffffffffffff811115610d4257600080fd5b602083019150836001820283011115610d5a57600080fd5b9250929050565b600060408284031215610d7357600080fd5b81905092915050565b600081359050610d8b81612279565b92915050565b600060208284031215610da357600080fd5b6000610db184828501610d02565b91505092915050565b60008060208385031215610dcd57600080fd5b600083013567ffffffffffffffff811115610de757600080fd5b610df385828601610d17565b92509250509250929050565b600060208284031215610e1157600080fd5b6000610e1f84828501610d7c565b91505092915050565b600080600060408486031215610e3d57600080fd5b6000610e4b86828701610d7c565b935050602084013567ffffffffffffffff811115610e6857600080fd5b610e7486828701610d17565b92509250509250925092565b60008060408385031215610e9357600080fd5b6000610ea185828601610d7c565b925050602083013567ffffffffffffffff811115610ebe57600080fd5b610eca85828601610d61565b9150509250929050565b6000610ee0838361123c565b905092915050565b6000610ef4838361128b565b905092915050565b610f05816118ad565b82525050565b610f14816118ad565b82525050565b6000610f26838561161b565b935083602084028501610f3884611586565b8060005b87811015610f7c578484038952610f538284611818565b610f5d8582610ed4565b9450610f6883611601565b925060208a01995050600181019050610f3c565b50829750879450505050509392505050565b6000610f99826115d5565b610fa3818561161b565b935083602082028501610fb585611590565b8060005b85811015610ff15784840389528151610fd28582610ee8565b9450610fdd8361160e565b925060208a01995050600181019050610fb9565b50829750879550505050505092915050565b61100c8161199c565b82525050565b600061101e838561162c565b935061102b838584611b59565b61103483611ecc565b840190509392505050565b600061104b838561163d565b9350611058838584611b59565b61106183611ecc565b840190509392505050565b6000611077826115f6565b611081818561162c565b9350611091818560208601611b68565b61109a81611ecc565b840191505092915050565b60006110b0826115f6565b6110ba818561163d565b93506110ca818560208601611b68565b6110d381611ecc565b840191505092915050565b60006110eb60158361163d565b91506110f682611f58565b602082019050919050565b600061110e60268361163d565b915061111982611f81565b604082019050919050565b6000611131602e8361163d565b915061113c82611fd0565b604082019050919050565b600061115460208361163d565b915061115f8261201f565b602082019050919050565b6000611177602b8361163d565b915061118282612048565b604082019050919050565b600061119a60198361163d565b91506111a582612097565b602082019050919050565b6000604083016111c36000840184611753565b6111d06000860182610efc565b506111de602084018461176a565b85830360208701526111f1838284610f1a565b925050508091505092915050565b60006040830160008301516112176000860182610efc565b506020830151848203602086015261122f8282610f8e565b9150508091505092915050565b60006040830161124f60008401846117c1565b8583036000870152611262838284611012565b92505050611273602084018461183c565b61128060208601826112c8565b508091505092915050565b600060408301600083015184820360008601526112a8828261106c565b91505060208301516112bd60208601826112c8565b508091505092915050565b6112d1816118df565b82525050565b6112e0816118df565b82525050565b60006020820190506112fb6000830184610f0b565b92915050565b60006020820190506113166000830184611003565b92915050565b6000602082019050818103600083015261133681846110a5565b905092915050565b60006020820190508181036000830152611357816110de565b9050919050565b6000602082019050818103600083015261137781611101565b9050919050565b6000602082019050818103600083015261139781611124565b9050919050565b600060208201905081810360008301526113b781611147565b9050919050565b600060208201905081810360008301526113d78161116a565b9050919050565b600060208201905081810360008301526113f78161118d565b9050919050565b6000602082019050818103600083015261141881846111ff565b905092915050565b600060208201905061143560008301846112d7565b92915050565b600060408201905061145060008301866112d7565b818103602083015261146381848661103f565b9050949350505050565b600060408201905061148260008301856112d7565b818103602083015261149481846111b0565b90509392505050565b600080833560016020038436030381126114b657600080fd5b80840192508235915067ffffffffffffffff8211156114d457600080fd5b6020830192506020820236038313156114ec57600080fd5b509250929050565b6000808335600160200384360303811261150d57600080fd5b80840192508235915067ffffffffffffffff82111561152b57600080fd5b60208301925060018202360383131561154357600080fd5b509250929050565b60008235600160400383360303811261156357600080fd5b80830191505092915050565b600081905061157f826002611853565b9050919050565b6000819050919050565b6000819050602082019050919050565b60008190508160005260206000209050919050565b60008190508160005260206000209050919050565b600082905092915050565b600081519050919050565b600081549050919050565b600082905092915050565b600081519050919050565b6000602082019050919050565b6000602082019050919050565b600082825260208201905092915050565b600082825260208201905092915050565b600082825260208201905092915050565b60208410600081146116a757601f841160018114611677576116708685611c59565b83556116a1565b611680836115b5565b6116956020601f880104820160018301611904565b61169f87856120c0565b505b506116f0565b6116b0826115b5565b6020601f8701048101601f871680156116d1576116d08160018403611d98565b5b6116e36020601f890104840183611904565b6001886002021785555050505b5050505050565b6020831060008114611742576020851060008114611720576117198685611c59565b835561173c565b8360ff1916935083611731846115b5565b556001866002020183555b5061174c565b6001856002020182555b5050505050565b60006117626020840184610d02565b905092915050565b6000808335600160200384360303811261178357600080fd5b83810192508235915060208301925067ffffffffffffffff8211156117a757600080fd5b6020820236038413156117b957600080fd5b509250929050565b600080833560016020038436030381126117da57600080fd5b83810192508235915060208301925067ffffffffffffffff8211156117fe57600080fd5b60018202360384131561181057600080fd5b509250929050565b60008235600160400383360303811261183057600080fd5b82810191505092915050565b600061184b6020840184610d7c565b905092915050565b600061185e826118df565b9150611869836118df565b9250817fffffffffffffffffffffffffffffffffffffffffffffffffffffffffffffffff04831182151516156118a2576118a1611d0b565b5b828202905092915050565b60006118b8826118bf565b9050919050565b600073ffffffffffffffffffffffffffffffffffffffff82169050919050565b6000819050919050565b600060ff82169050919050565b611901600082611e77565b50565b5b8181101561192357611918600082611f40565b600181019050611905565b5050565b5b818110156119465761193b600082611f22565b600281019050611928565b5050565b818110156119685761195d600082611f40565b60018101905061194a565b5050565b6119796000808301611f04565b611987600060018301611f40565b50565b6000611995826119ae565b9050919050565b60006119a7826118e9565b9050919050565b60006119b9826119c0565b9050919050565b60006119cb826118bf565b9050919050565b60006119dd826118df565b9050919050565b6119ee83836115ca565b6119f88183611e13565b611a0183611586565b611a0a836115a0565b6000805b84811015611a4357611a20848861154b565b611a2b81848661221f565b60208501945060028401935050600181019050611a0e565b5050505050505050565b611a5783836115eb565b67ffffffffffffffff811115611a7057611a6f611d69565b5b611a7a8254611c27565b600080601f8411601f84111715611a9757611a94856115b5565b90505b601f831115611aca576020601f85010481016020851015611ab6578190505b611ac86020601f860104830182611904565b505b601f841160018114611af75760008515611ae5578388013590505b611aef8682611c59565b875550611b4f565b601f1985168260005b82811015611b2557858a01358255600182019150602086019550602081019050611b00565b87831015611b4257858a0135611b3e601f8a1682611cbe565b8355505b6001600289020189555050505b5050505050505050565b82818337600083830152505050565b60005b83811015611b86578082015181840152602081019050611b6b565b83811115611b95576000848401525b50505050565b600081016000830180611bad81611de7565b9050611bb981846121ab565b5050506001810160208301611bce818561149d565b611bd98183866121ce565b505050505050565b6000810160008301611bf381856114f4565b611bfe8183866121de565b50505050600181016020830180611c1481611dfd565b9050611c2081846121fc565b5050505050565b60006002820490506001821680611c3f57607f821691505b60208210811415611c5357611c52611d3a565b5b50919050565b6000611c658383611cbe565b9150826002028217905092915050565b6000611c80826118df565b91507fffffffffffffffffffffffffffffffffffffffffffffffffffffffffffffffff821415611cb357611cb2611d0b565b5b600182019050919050565b6000611ccf60001984600802611ef7565b1980831691505092915050565b7f4e487b7100000000000000000000000000000000000000000000000000000000600052600060045260246000fd5b7f4e487b7100000000000000000000000000000000000000000000000000000000600052601160045260246000fd5b7f4e487b7100000000000000000000000000000000000000000000000000000000600052602260045260246000fd5b7f4e487b7100000000000000000000000000000000000000000000000000000000600052604160045260246000fd5b611dc87fffffffffffffffffffffffffffffffffffffffffffffffffffffffffffffffff83602003600802611ef7565b815481168255505050565b6000819050919050565b6000819050919050565b60008135611df481612262565b80915050919050565b60008135611e0a81612279565b80915050919050565b68010000000000000000821115611e2d57611e2c611d69565b5b611e36816115e0565b82825580831015611e7257611e4a8161156f565b611e538461156f565b611e5c846115a0565b818101838201611e6c8183611927565b50505050505b505050565b68010000000000000000821115611e9157611e90611d69565b5b8054611e9c81611c27565b80841115611eb157611eb0848284866116f7565b5b80841015611ec657611ec58482848661164e565b5b50505050565b6000601f19601f8301169050919050565b60008160001b9050919050565b600082821b905092915050565b600082821c905092915050565b60008214611f1557611f14611cdc565b5b611f1e816118f6565b5050565b60008214611f3357611f32611cdc565b5b611f3c8161196c565b5050565b611f48612290565b611f5381848461223d565b505050565b7f6470696420616c72656164792075706772616465640000000000000000000000600082015250565b7f4f776e61626c653a206e6577206f776e657220697320746865207a65726f206160008201527f6464726573730000000000000000000000000000000000000000000000000000602082015250565b7f496e697469616c697a61626c653a20636f6e747261637420697320616c72656160008201527f647920696e697469616c697a6564000000000000000000000000000000000000602082015250565b7f4f776e61626c653a2063616c6c6572206973206e6f7420746865206f776e6572600082015250565b7f496e697469616c697a61626c653a20636f6e7472616374206973206e6f74206960008201527f6e697469616c697a696e67000000000000000000000000000000000000000000602082015250565b7f756e617574686f72697a65642064706964207570677261646500000000000000600082015250565b6120c9816115b5565b6120d4838254611c59565b8083556000825550505050565b600073ffffffffffffffffffffffffffffffffffffffff61210184611edd565b9350801983169250808416831791505092915050565b60007fffffffffffffffffffffffffffffffffffffffffffffffffffffffffffffffff61214384611edd565b9350801983169250808416831791505092915050565b6000600883026121897fffffffffffffffffffffffffffffffffffffffffffffffffffffffffffffffff82611eea565b6121938683611eea565b95508019841693508086168417925050509392505050565b6121b48261198a565b6121c76121c082611dd3565b83546120e1565b8255505050565b6121d98383836119e4565b505050565b6121e9838383611a4d565b505050565b6121f88282611b9b565b5050565b612205826119d2565b61221861221182611ddd565b8354612117565b8255505050565b811561222e5761222d611cdc565b5b6122388382611be1565b505050565b612246836119d2565b61225a61225282611ddd565b848454612159565b825550505050565b61226b816118ad565b811461227657600080fd5b50565b612282816118df565b811461228d57600080fd5b50565b60009056fea26469706673582212209d15c5501273e10408c38b0c27c1d9008c55404af21e411dc9d13c190f83a2b364736f6c63430008040033",
  "linkReferences": {},
  "deployedLinkReferences": {}
}