{
  "_format": "hh-sol-artifact-1",
  "contractName": "AcceptEverythingPaymaster",
  "sourceName": "@opengsn/paymasters/contracts/AcceptEverythingPaymaster.sol",
  "abi": [
    {
      "anonymous": false,
      "inputs": [
        {
          "indexed": true,
          "internalType": "address",
          "name": "previousOwner",
          "type": "address"
        },
        {
          "indexed": true,
          "internalType": "address",
          "name": "newOwner",
          "type": "address"
        }
      ],
      "name": "OwnershipTransferred",
      "type": "event"
    },
    {
      "inputs": [],
      "name": "CALLDATA_SIZE_LIMIT",
      "outputs": [
        {
          "internalType": "uint256",
          "name": "",
          "type": "uint256"
        }
      ],
      "stateMutability": "view",
      "type": "function"
    },
    {
      "inputs": [],
      "name": "FORWARDER_HUB_OVERHEAD",
      "outputs": [
        {
          "internalType": "uint256",
          "name": "",
          "type": "uint256"
        }
      ],
      "stateMutability": "view",
      "type": "function"
    },
    {
      "inputs": [],
      "name": "PAYMASTER_ACCEPTANCE_BUDGET",
      "outputs": [
        {
          "internalType": "uint256",
          "name": "",
          "type": "uint256"
        }
      ],
      "stateMutability": "view",
      "type": "function"
    },
    {
      "inputs": [],
      "name": "POST_RELAYED_CALL_GAS_LIMIT",
      "outputs": [
        {
          "internalType": "uint256",
          "name": "",
          "type": "uint256"
        }
      ],
      "stateMutability": "view",
      "type": "function"
    },
    {
      "inputs": [],
      "name": "PRE_RELAYED_CALL_GAS_LIMIT",
      "outputs": [
        {
          "internalType": "uint256",
          "name": "",
          "type": "uint256"
        }
      ],
      "stateMutability": "view",
      "type": "function"
    },
    {
      "inputs": [],
      "name": "getGasAndDataLimits",
      "outputs": [
        {
          "components": [
            {
              "internalType": "uint256",
              "name": "acceptanceBudget",
              "type": "uint256"
            },
            {
              "internalType": "uint256",
              "name": "preRelayedCallGasLimit",
              "type": "uint256"
            },
            {
              "internalType": "uint256",
              "name": "postRelayedCallGasLimit",
              "type": "uint256"
            },
            {
              "internalType": "uint256",
              "name": "calldataSizeLimit",
              "type": "uint256"
            }
          ],
          "internalType": "struct IPaymaster.GasAndDataLimits",
          "name": "limits",
          "type": "tuple"
        }
      ],
      "stateMutability": "view",
      "type": "function"
    },
    {
      "inputs": [],
      "name": "getRelayHub",
      "outputs": [
        {
          "internalType": "address",
          "name": "",
          "type": "address"
        }
      ],
      "stateMutability": "view",
      "type": "function"
    },
    {
      "inputs": [],
      "name": "getTrustedForwarder",
      "outputs": [
        {
          "internalType": "address",
          "name": "",
          "type": "address"
        }
      ],
      "stateMutability": "view",
      "type": "function"
    },
    {
      "inputs": [],
      "name": "owner",
      "outputs": [
        {
          "internalType": "address",
          "name": "",
          "type": "address"
        }
      ],
      "stateMutability": "view",
      "type": "function"
    },
    {
      "inputs": [
        {
          "internalType": "bytes",
          "name": "context",
          "type": "bytes"
        },
        {
          "internalType": "bool",
          "name": "success",
          "type": "bool"
        },
        {
          "internalType": "uint256",
          "name": "gasUseWithoutPost",
          "type": "uint256"
        },
        {
          "components": [
            {
              "internalType": "uint256",
              "name": "maxFeePerGas",
              "type": "uint256"
            },
            {
              "internalType": "uint256",
              "name": "maxPriorityFeePerGas",
              "type": "uint256"
            },
            {
              "internalType": "uint256",
              "name": "transactionCalldataGasUsed",
              "type": "uint256"
            },
            {
              "internalType": "address",
              "name": "relayWorker",
              "type": "address"
            },
            {
              "internalType": "address",
              "name": "paymaster",
              "type": "address"
            },
            {
              "internalType": "address",
              "name": "forwarder",
              "type": "address"
            },
            {
              "internalType": "bytes",
              "name": "paymasterData",
              "type": "bytes"
            },
            {
              "internalType": "uint256",
              "name": "clientId",
              "type": "uint256"
            }
          ],
          "internalType": "struct GsnTypes.RelayData",
          "name": "relayData",
          "type": "tuple"
        }
      ],
      "name": "postRelayedCall",
      "outputs": [],
      "stateMutability": "nonpayable",
      "type": "function"
    },
    {
      "inputs": [
        {
          "components": [
            {
              "components": [
                {
                  "internalType": "address",
                  "name": "from",
                  "type": "address"
                },
                {
                  "internalType": "address",
                  "name": "to",
                  "type": "address"
                },
                {
                  "internalType": "uint256",
                  "name": "value",
                  "type": "uint256"
                },
                {
                  "internalType": "uint256",
                  "name": "gas",
                  "type": "uint256"
                },
                {
                  "internalType": "uint256",
                  "name": "nonce",
                  "type": "uint256"
                },
                {
                  "internalType": "bytes",
                  "name": "data",
                  "type": "bytes"
                },
                {
                  "internalType": "uint256",
                  "name": "validUntilTime",
                  "type": "uint256"
                }
              ],
              "internalType": "struct IForwarder.ForwardRequest",
              "name": "request",
              "type": "tuple"
            },
            {
              "components": [
                {
                  "internalType": "uint256",
                  "name": "maxFeePerGas",
                  "type": "uint256"
                },
                {
                  "internalType": "uint256",
                  "name": "maxPriorityFeePerGas",
                  "type": "uint256"
                },
                {
                  "internalType": "uint256",
                  "name": "transactionCalldataGasUsed",
                  "type": "uint256"
                },
                {
                  "internalType": "address",
                  "name": "relayWorker",
                  "type": "address"
                },
                {
                  "internalType": "address",
                  "name": "paymaster",
                  "type": "address"
                },
                {
                  "internalType": "address",
                  "name": "forwarder",
                  "type": "address"
                },
                {
                  "internalType": "bytes",
                  "name": "paymasterData",
                  "type": "bytes"
                },
                {
                  "internalType": "uint256",
                  "name": "clientId",
                  "type": "uint256"
                }
              ],
              "internalType": "struct GsnTypes.RelayData",
              "name": "relayData",
              "type": "tuple"
            }
          ],
          "internalType": "struct GsnTypes.RelayRequest",
          "name": "relayRequest",
          "type": "tuple"
        },
        {
          "internalType": "bytes",
          "name": "signature",
          "type": "bytes"
        },
        {
          "internalType": "bytes",
          "name": "approvalData",
          "type": "bytes"
        },
        {
          "internalType": "uint256",
          "name": "maxPossibleGas",
          "type": "uint256"
        }
      ],
      "name": "preRelayedCall",
      "outputs": [
        {
          "internalType": "bytes",
          "name": "",
          "type": "bytes"
        },
        {
          "internalType": "bool",
          "name": "",
          "type": "bool"
        }
      ],
      "stateMutability": "nonpayable",
      "type": "function"
    },
    {
      "inputs": [],
      "name": "renounceOwnership",
      "outputs": [],
      "stateMutability": "nonpayable",
      "type": "function"
    },
    {
      "inputs": [
        {
          "internalType": "contract IRelayHub",
          "name": "hub",
          "type": "address"
        }
      ],
      "name": "setRelayHub",
      "outputs": [],
      "stateMutability": "nonpayable",
      "type": "function"
    },
    {
      "inputs": [
        {
          "internalType": "address",
          "name": "forwarder",
          "type": "address"
        }
      ],
      "name": "setTrustedForwarder",
      "outputs": [],
      "stateMutability": "nonpayable",
      "type": "function"
    },
    {
      "inputs": [
        {
          "internalType": "bytes4",
          "name": "interfaceId",
          "type": "bytes4"
        }
      ],
      "name": "supportsInterface",
      "outputs": [
        {
          "internalType": "bool",
          "name": "",
          "type": "bool"
        }
      ],
      "stateMutability": "view",
      "type": "function"
    },
    {
      "inputs": [
        {
          "internalType": "address",
          "name": "newOwner",
          "type": "address"
        }
      ],
      "name": "transferOwnership",
      "outputs": [],
      "stateMutability": "nonpayable",
      "type": "function"
    },
    {
      "inputs": [],
      "name": "versionPaymaster",
      "outputs": [
        {
          "internalType": "string",
          "name": "",
          "type": "string"
        }
      ],
      "stateMutability": "view",
      "type": "function"
    },
    {
      "inputs": [
        {
          "internalType": "uint256",
          "name": "amount",
          "type": "uint256"
        },
        {
          "internalType": "address payable",
          "name": "target",
          "type": "address"
        }
      ],
      "name": "withdrawRelayHubDepositTo",
      "outputs": [],
      "stateMutability": "nonpayable",
      "type": "function"
    },
    {
      "stateMutability": "payable",
      "type": "receive"
    }
  ],
  "bytecode": "0x608060405234801561001057600080fd5b5061002d61002261003260201b60201c565b61003a60201b60201c565b6100fe565b600033905090565b60008060009054906101000a900473ffffffffffffffffffffffffffffffffffffffff169050816000806101000a81548173ffffffffffffffffffffffffffffffffffffffff021916908373ffffffffffffffffffffffffffffffffffffffff1602179055508173ffffffffffffffffffffffffffffffffffffffff168173ffffffffffffffffffffffffffffffffffffffff167f8be0079c531659141344cd1fd0a4f28419497f9722a3daafe3b4186f6b6457e060405160405180910390a35050565b611edb8061010d6000396000f3fe60806040526004361061010c5760003560e01c8063921276ea11610095578063ce1b815f11610064578063ce1b815f1461046c578063da74222814610497578063df463a66146104c0578063f2fde38b146104eb578063f9c002f7146105145761022d565b8063921276ea146103c0578063b039a88f146103eb578063b90b41cf14610416578063bbdaa3c9146104415761022d565b8063715018a6116100dc578063715018a61461030157806376fa01c3146103185780637bb05264146103415780637bdf2ec71461036a5780638da5cb5b146103955761022d565b8062be5dd41461023257806301ffc9a7146102705780632d14c4b7146102ad5780635c5e3db1146102d65761022d565b3661022d57600073ffffffffffffffffffffffffffffffffffffffff16600160009054906101000a900473ffffffffffffffffffffffffffffffffffffffff1673ffffffffffffffffffffffffffffffffffffffff16036101a2576040517f08c379a000000000000000000000000000000000000000000000000000000000815260040161019990611130565b60405180910390fd5b600160009054906101000a900473ffffffffffffffffffffffffffffffffffffffff1673ffffffffffffffffffffffffffffffffffffffff1663aa67c91934306040518363ffffffff1660e01b81526004016101fe9190611191565b6000604051808303818588803b15801561021757600080fd5b505af115801561022b573d6000803e3d6000fd5b005b600080fd5b34801561023e57600080fd5b5061025960048036038101906102549190611275565b61053f565b6040516102679291906113e3565b60405180910390f35b34801561027c57600080fd5b506102976004803603810190610292919061146b565b61058d565b6040516102a49190611498565b60405180910390f35b3480156102b957600080fd5b506102d460048036038101906102cf91906114f1565b61066f565b005b3480156102e257600080fd5b506102eb61070a565b6040516102f89190611540565b60405180910390f35b34801561030d57600080fd5b50610316610710565b005b34801561032457600080fd5b5061033f600480360381019061033a91906115a7565b610724565b005b34801561034d57600080fd5b5061036860048036038101906103639190611689565b610740565b005b34801561037657600080fd5b5061037f6107cb565b60405161038c9190611191565b60405180910390f35b3480156103a157600080fd5b506103aa6107f5565b6040516103b79190611191565b60405180910390f35b3480156103cc57600080fd5b506103d561081e565b6040516103e291906116fa565b60405180910390f35b3480156103f757600080fd5b5061040061083e565b60405161040d9190611780565b60405180910390f35b34801561042257600080fd5b5061042b610884565b6040516104389190611540565b60405180910390f35b34801561044d57600080fd5b5061045661088a565b6040516104639190611540565b60405180910390f35b34801561047857600080fd5b50610481610891565b60405161048e9190611191565b60405180910390f35b3480156104a357600080fd5b506104be60048036038101906104b991906117c7565b6108bb565b005b3480156104cc57600080fd5b506104d5610946565b6040516104e29190611540565b60405180910390f35b3480156104f757600080fd5b50610512600480360381019061050d91906117c7565b61095a565b005b34801561052057600080fd5b506105296109dd565b6040516105369190611540565b60405180910390f35b6060600061054b6109e4565b61055488610a5b565b61055d88610afd565b61056688610b56565b6105708585610bbc565b61057e888888888888610c06565b91509150965096945050505050565b60007fe1ab2dea000000000000000000000000000000000000000000000000000000007bffffffffffffffffffffffffffffffffffffffffffffffffffffffff1916827bffffffffffffffffffffffffffffffffffffffffffffffffffffffff1916148061065857507f0e083076000000000000000000000000000000000000000000000000000000007bffffffffffffffffffffffffffffffffffffffffffffffffffffffff1916827bffffffffffffffffffffffffffffffffffffffffffffffffffffffff1916145b80610668575061066782610c2b565b5b9050919050565b610677610c95565b600160009054906101000a900473ffffffffffffffffffffffffffffffffffffffff1673ffffffffffffffffffffffffffffffffffffffff1663f3fef3a382846040518363ffffffff1660e01b81526004016106d4929190611803565b600060405180830381600087803b1580156106ee57600080fd5b505af1158015610702573d6000803e3d6000fd5b505050505050565b61290481565b610718610c95565b6107226000610d13565b565b61072c6109e4565b6107398585858585610dd7565b5050505050565b610748610c95565b6107876040518060400160405280600e81526020017f73657452656c617948756220257300000000000000000000000000000000000081525082610dde565b80600160006101000a81548173ffffffffffffffffffffffffffffffffffffffff021916908373ffffffffffffffffffffffffffffffffffffffff16021790555050565b6000600160009054906101000a900473ffffffffffffffffffffffffffffffffffffffff16905090565b60008060009054906101000a900473ffffffffffffffffffffffffffffffffffffffff16905090565b6060604051806060016040528060308152602001611e7660309139905090565b6108466110ab565b604051806080016040528061c350620186a0610862919061185b565b8152602001620186a081526020016201adb08152602001612904815250905090565b61c35081565b6201adb081565b6000600260009054906101000a900473ffffffffffffffffffffffffffffffffffffffff16905090565b6108c3610c95565b6109026040518060400160405280601681526020017f73657454727573746564466f727761726465722025730000000000000000000081525082610dde565b80600260006101000a81548173ffffffffffffffffffffffffffffffffffffffff021916908373ffffffffffffffffffffffffffffffffffffffff16021790555050565b61c350620186a0610957919061185b565b81565b610962610c95565b600073ffffffffffffffffffffffffffffffffffffffff168173ffffffffffffffffffffffffffffffffffffffff16036109d1576040517f08c379a00000000000000000000000000000000000000000000000000000000081526004016109c890611901565b60405180910390fd5b6109da81610d13565b50565b620186a081565b6109ec6107cb565b73ffffffffffffffffffffffffffffffffffffffff163373ffffffffffffffffffffffffffffffffffffffff1614610a59576040517f08c379a0000000000000000000000000000000000000000000000000000000008152600401610a509061196d565b60405180910390fd5b565b808060200190610a6b919061199c565b60a0016020810190610a7d91906117c7565b73ffffffffffffffffffffffffffffffffffffffff16610a9b610891565b73ffffffffffffffffffffffffffffffffffffffff1614610af1576040517f08c379a0000000000000000000000000000000000000000000000000000000008152600401610ae890611a11565b60405180910390fd5b610afa81610e7a565b50565b6000818060000190610b0f9190611a31565b6040013514610b53576040517f08c379a0000000000000000000000000000000000000000000000000000000008152600401610b4a90611aa5565b60405180910390fd5b50565b6000818060200190610b68919061199c565b8060c00190610b779190611ac5565b905014610bb9576040517f08c379a0000000000000000000000000000000000000000000000000000000008152600401610bb090611b74565b60405180910390fd5b50565b60008282905014610c02576040517f08c379a0000000000000000000000000000000000000000000000000000000008152600401610bf990611be0565b60405180910390fd5b5050565b6060600080604051806020016040528060008152509091509150965096945050505050565b60007f01ffc9a7000000000000000000000000000000000000000000000000000000007bffffffffffffffffffffffffffffffffffffffffffffffffffffffff1916827bffffffffffffffffffffffffffffffffffffffffffffffffffffffff1916149050919050565b610c9d61107a565b73ffffffffffffffffffffffffffffffffffffffff16610cbb6107f5565b73ffffffffffffffffffffffffffffffffffffffff1614610d11576040517f08c379a0000000000000000000000000000000000000000000000000000000008152600401610d0890611c4c565b60405180910390fd5b565b60008060009054906101000a900473ffffffffffffffffffffffffffffffffffffffff169050816000806101000a81548173ffffffffffffffffffffffffffffffffffffffff021916908373ffffffffffffffffffffffffffffffffffffffff1602179055508173ffffffffffffffffffffffffffffffffffffffff168173ffffffffffffffffffffffffffffffffffffffff167f8be0079c531659141344cd1fd0a4f28419497f9722a3daafe3b4186f6b6457e060405160405180910390a35050565b5050505050565b610e768282604051602401610df4929190611c6c565b6040516020818303038152906040527f319af333000000000000000000000000000000000000000000000000000000007bffffffffffffffffffffffffffffffffffffffffffffffffffffffff19166020820180517bffffffffffffffffffffffffffffffffffffffffffffffffffffffff8381831617835250505050611082565b5050565b600080828060000190610e8d9190611a31565b6020016020810190610e9f91906117c7565b73ffffffffffffffffffffffffffffffffffffffff1663572b6c0560e01b848060200190610ecd919061199c565b60a0016020810190610edf91906117c7565b604051602401610eef9190611191565b604051602081830303815290604052907bffffffffffffffffffffffffffffffffffffffffffffffffffffffff19166020820180517bffffffffffffffffffffffffffffffffffffffffffffffffffffffff8381831617835250505050604051610f599190611cd8565b600060405180830381855afa9150503d8060008114610f94576040519150601f19603f3d011682016040523d82523d6000602084013e610f99565b606091505b509150915081610fde576040517f08c379a0000000000000000000000000000000000000000000000000000000008152600401610fd590611d3b565b60405180910390fd5b6020815114611022576040517f08c379a000000000000000000000000000000000000000000000000000000000815260040161101990611da7565b60405180910390fd5b808060200190518101906110369190611ddc565b611075576040517f08c379a000000000000000000000000000000000000000000000000000000000815260040161106c90611e55565b60405180910390fd5b505050565b600033905090565b60008151905060006a636f6e736f6c652e6c6f679050602083016000808483855afa5050505050565b6040518060800160405280600081526020016000815260200160008152602001600081525090565b600082825260208201905092915050565b7f72656c6179206875622061646472657373206e6f742073657400000000000000600082015250565b600061111a6019836110d3565b9150611125826110e4565b602082019050919050565b600060208201905081810360008301526111498161110d565b9050919050565b600073ffffffffffffffffffffffffffffffffffffffff82169050919050565b600061117b82611150565b9050919050565b61118b81611170565b82525050565b60006020820190506111a66000830184611182565b92915050565b600080fd5b600080fd5b600080fd5b6000604082840312156111d1576111d06111b6565b5b81905092915050565b600080fd5b600080fd5b600080fd5b60008083601f8401126111ff576111fe6111da565b5b8235905067ffffffffffffffff81111561121c5761121b6111df565b5b602083019150836001820283011115611238576112376111e4565b5b9250929050565b6000819050919050565b6112528161123f565b811461125d57600080fd5b50565b60008135905061126f81611249565b92915050565b60008060008060008060808789031215611292576112916111ac565b5b600087013567ffffffffffffffff8111156112b0576112af6111b1565b5b6112bc89828a016111bb565b965050602087013567ffffffffffffffff8111156112dd576112dc6111b1565b5b6112e989828a016111e9565b9550955050604087013567ffffffffffffffff81111561130c5761130b6111b1565b5b61131889828a016111e9565b9350935050606061132b89828a01611260565b9150509295509295509295565b600081519050919050565b600082825260208201905092915050565b60005b83811015611372578082015181840152602081019050611357565b60008484015250505050565b6000601f19601f8301169050919050565b600061139a82611338565b6113a48185611343565b93506113b4818560208601611354565b6113bd8161137e565b840191505092915050565b60008115159050919050565b6113dd816113c8565b82525050565b600060408201905081810360008301526113fd818561138f565b905061140c60208301846113d4565b9392505050565b60007fffffffff0000000000000000000000000000000000000000000000000000000082169050919050565b61144881611413565b811461145357600080fd5b50565b6000813590506114658161143f565b92915050565b600060208284031215611481576114806111ac565b5b600061148f84828501611456565b91505092915050565b60006020820190506114ad60008301846113d4565b92915050565b60006114be82611150565b9050919050565b6114ce816114b3565b81146114d957600080fd5b50565b6000813590506114eb816114c5565b92915050565b60008060408385031215611508576115076111ac565b5b600061151685828601611260565b9250506020611527858286016114dc565b9150509250929050565b61153a8161123f565b82525050565b60006020820190506115556000830184611531565b92915050565b611564816113c8565b811461156f57600080fd5b50565b6000813590506115818161155b565b92915050565b6000610100828403121561159e5761159d6111b6565b5b81905092915050565b6000806000806000608086880312156115c3576115c26111ac565b5b600086013567ffffffffffffffff8111156115e1576115e06111b1565b5b6115ed888289016111e9565b9550955050602061160088828901611572565b935050604061161188828901611260565b925050606086013567ffffffffffffffff811115611632576116316111b1565b5b61163e88828901611587565b9150509295509295909350565b600061165682611170565b9050919050565b6116668161164b565b811461167157600080fd5b50565b6000813590506116838161165d565b92915050565b60006020828403121561169f5761169e6111ac565b5b60006116ad84828501611674565b91505092915050565b600081519050919050565b60006116cc826116b6565b6116d681856110d3565b93506116e6818560208601611354565b6116ef8161137e565b840191505092915050565b6000602082019050818103600083015261171481846116c1565b905092915050565b6117258161123f565b82525050565b608082016000820151611741600085018261171c565b506020820151611754602085018261171c565b506040820151611767604085018261171c565b50606082015161177a606085018261171c565b50505050565b6000608082019050611795600083018461172b565b92915050565b6117a481611170565b81146117af57600080fd5b50565b6000813590506117c18161179b565b92915050565b6000602082840312156117dd576117dc6111ac565b5b60006117eb848285016117b2565b91505092915050565b6117fd816114b3565b82525050565b600060408201905061181860008301856117f4565b6118256020830184611531565b9392505050565b7f4e487b7100000000000000000000000000000000000000000000000000000000600052601160045260246000fd5b60006118668261123f565b91506118718361123f565b92508282019050808211156118895761188861182c565b5b92915050565b7f4f776e61626c653a206e6577206f776e657220697320746865207a65726f206160008201527f6464726573730000000000000000000000000000000000000000000000000000602082015250565b60006118eb6026836110d3565b91506118f68261188f565b604082019050919050565b6000602082019050818103600083015261191a816118de565b9050919050565b7f63616e206f6e6c792062652063616c6c65642062792052656c61794875620000600082015250565b6000611957601e836110d3565b915061196282611921565b602082019050919050565b600060208201905081810360008301526119868161194a565b9050919050565b600080fd5b600080fd5b600080fd5b600082356001610100038336030381126119b9576119b861198d565b5b80830191505092915050565b7f466f72776172646572206973206e6f7420747275737465640000000000000000600082015250565b60006119fb6018836110d3565b9150611a06826119c5565b602082019050919050565b60006020820190508181036000830152611a2a816119ee565b9050919050565b60008235600160e003833603038112611a4d57611a4c61198d565b5b80830191505092915050565b7f76616c7565207472616e73666572206e6f7420737570706f7274656400000000600082015250565b6000611a8f601c836110d3565b9150611a9a82611a59565b602082019050919050565b60006020820190508181036000830152611abe81611a82565b9050919050565b60008083356001602003843603038112611ae257611ae161198d565b5b80840192508235915067ffffffffffffffff821115611b0457611b03611992565b5b602083019250600182023603831315611b2057611b1f611997565b5b509250929050565b7f73686f756c642068617665206e6f207061796d61737465724461746100000000600082015250565b6000611b5e601c836110d3565b9150611b6982611b28565b602082019050919050565b60006020820190508181036000830152611b8d81611b51565b9050919050565b7f73686f756c642068617665206e6f20617070726f76616c446174610000000000600082015250565b6000611bca601b836110d3565b9150611bd582611b94565b602082019050919050565b60006020820190508181036000830152611bf981611bbd565b9050919050565b7f4f776e61626c653a2063616c6c6572206973206e6f7420746865206f776e6572600082015250565b6000611c366020836110d3565b9150611c4182611c00565b602082019050919050565b60006020820190508181036000830152611c6581611c29565b9050919050565b60006040820190508181036000830152611c8681856116c1565b9050611c956020830184611182565b9392505050565b600081905092915050565b6000611cb282611338565b611cbc8185611c9c565b9350611ccc818560208601611354565b80840191505092915050565b6000611ce48284611ca7565b915081905092915050565b7f697354727573746564466f727761726465723a20726576657274656400000000600082015250565b6000611d25601c836110d3565b9150611d3082611cef565b602082019050919050565b60006020820190508181036000830152611d5481611d18565b9050919050565b7f697354727573746564466f727761726465723a2062616420726573706f6e7365600082015250565b6000611d916020836110d3565b9150611d9c82611d5b565b602082019050919050565b60006020820190508181036000830152611dc081611d84565b9050919050565b600081519050611dd68161155b565b92915050565b600060208284031215611df257611df16111ac565b5b6000611e0084828501611dc7565b91505092915050565b7f696e76616c696420666f7277617264657220666f7220726563697069656e7400600082015250565b6000611e3f601f836110d3565b9150611e4a82611e09565b602082019050919050565b60006020820190508181036000830152611e6e81611e32565b905091905056fe332e302e302d626574612e332b6f70656e67736e2e61636365707465766572797468696e672e697061796d6173746572a2646970667358221220cd3ac5bb20441b501f16fa9e29f665ab9e1d137cf7ac094ae108e023fa66dda164736f6c63430008110033",
  "linkReferences": {},
  "deployedLinkReferences": {}
}